:020000040800F2
:1000000000000320C117000811180008111800088B
:10001000111800081118000811180008000000004D
:10002000000000000000000000000000111800089F
:10003000111800080000000011180008F311000852
:1000400011180008111800081118000811180008EC
:100050001118000811180008E9120008EF12000832
:10006000F5120008FB12000801130008111800081F
:1000700011180008111800081118000811180008BC
:1000800011180008111800081118000811180008AC
:1000900011180008111800081118000807130008AB
:1000A00029110008411000083D11000865100008E2
:1000B000791000088D100008A11000081118000820
:1000C000111800081118000811180008111800086C
:1000D000111800081D1600083516000851160008F2
:1000E0002F130008111800081118000851110008FA
:1000F000F11000086511000815110008111800081A
:100100001118000811180008B5100008111800088F
:100110006D16000885160008C9100008DD100008DB
:10012000111800081118000811180008111800080B
:1001300011180008111800081118000811180008FB
:1001400011180008111800081118000811180008EB
:100150001118000811180008111800089D16000851
:1001600011180008111800081118000811180008CB
:1001700011180008111800081118000800000000EC
:100180001118000811180008B5160008CD1600084F
:10019000111800081118000811180008111800089B
:0C01A000111800081118000811180008C0
:1001AC0053B94AB9002908BF00281CBF4FF0FF31D2
:1001BC004FF0FF3000F00CB8ADF1080C6DE904CE37
:1001CC0001F086FDDDF804E0DDE9022304B07047A0
:1001DC00704700BF10B5054C237833B9044B13B1ED
:1001EC000448AFF300800123237010BD640000208D
:1001FC0000000000DC1F000808B5034B1BB10349CD
:10020C000348AFF3008008BD000000006800002028
:10021C00DC1F0008054A013810F8013F03B970478C
:10022C0011680906FCD55360F6E700BF00100140C9
:10023C00134B07B54FF4B6729A6042F20C02DA60B7
:10024C001048FFF7E7FF4FF0E0234FF47A725A6142
:10025C0001221A619A6900230193019B632B0BDD28
:10026C004FF0E0239B699A4214BF0748074803B03C
:10027C005DF804EBFFF7CEBF019B0133ECE700BF49
:10028C0000100140F41F0008012000080D20000898
:10029C0007B50848FFF7BEFF0023074A0193019BEF
:1002AC00934202D903B05DF804FB019B0133019327
:1002BC00F5E700BF1B2000081FA1070070470000D6
:1002CC0038B50E4B1A784FF47A73B3FBF2F30C4A31
:1002DC0005461068B0FBF3F000F0A6F8044658B9D8
:1002EC000F2D09D8024629464FF0FF3000F04AF88E
:1002FC00044B20461D6038BD0120FCE700000020A7
:10030C00100000200400002008B50B4B1A6842F4C2
:10031C0000721A601A6842F480621A601A6842F419
:10032C0080721A60032000F01BF80020FFF7C8FF52
:10033C00FFF7C4FF002008BD003C0240034A044BF9
:10034C0011681B780B441360704700BF80000020BD
:10035C0000000020014B1868704700BF800000208F
:10036C000749CA6822F4E0620302120403F4E06352
:10037C00120C134343F0BF6343F40033CB6070475C
:10038C0000ED00E0164B30B5DC68C4F30224C4F178
:10039C000703251D042B28BF0423062D4FF0FF3522
:1003AC008CBF033C002405FA03F321EA0303A540A8
:1003BC0022EA0502A340002843EA0203ACBF00F185
:1003CC006040084A4FEA0313B8BF00F00F00DBB2DD
:1003DC00AABF00F56140135480F8003330BD00BF54
:1003EC0000ED00E014ED00E0002807DB044A4109B1
:1003FC00012300F01F00834042F82130704700BFFA
:10040C0000E100E000280CDB4309064900F01F0066
:10041C0020330122824041F82320BFF34F8FBFF3DA
:10042C006F8F704700E100E00138B0F1807F0BD294
:10043C004FF0E023054A5861F02182F82310002088
:10044C00072298611A6170470120704700ED00E0A7
:10045C00002808DB4309044900F01F000122603327
:10046C00824041F82320704700E100E0704708B556
:10047C00FFF7FCFF08BD704710B5044650B1437937
:10048C0003F0FF0213B90271FFF7F5FF012363714B
:10049C00002010BD0120FCE770B50446866DFFF707
:1004AC0059FF94F83530022B054606D0802363653E
:1004BC000120002384F8343070BD23681A6822F0C0
:1004CC0016021A605A6922F080025A61226C0AB92B
:1004DC00A26C1AB11A6822F008021A601A6822F08B
:1004EC0001021A602368186810F0010007D1E26D50
:1004FC003F239340B360012384F83530D9E7FFF7ED
:10050C0029FF401B0528EDD920230320636584F8BF
:10051C003500CEE790F83530022B03D080234365AD
:10052C00012070470268052380F83530136823F0EA
:10053C000103136000207047044A5169014208B559
:10054C0002D0506100F0B4FE08BD00BF003C014079
:10055C002DE9F341044640B30368DE0710D4236849
:10056C009D075BD42368190700F19D8023685A0707
:10057C0000F1BD80A369002B40F0248100202CE009
:10058C008D4B9A6802F00C02042A07D09A6802F08C
:10059C000C02082A0BD15B68590208D5864B1B68E4
:1005AC009A03DCD56368002BD9D1012015E0636870
:1005BC00814DB3F5803F13D12B6843F480332B600E
:1005CC00FFF7C8FE7C4E054633689B03C7D4FFF784
:1005DC00C1FE401B6428F7D9032002B0BDE8F081AE
:1005EC00B3F5A02F04D12B6843F480232B60E3E7F1
:1005FC002A6822F480322A602A6822F480222A6037
:10060C00002BDDD1FFF7A6FE06462B689F03A6D56F
:10061C00FFF7A0FE801B6428F7D9DDE7664B9A68CC
:10062C0012F00C0F07D09A6802F00C02082A11D1B4
:10063C005B685D020ED4604A1368990702D5E368C3
:10064C00012BB2D11368216923F0F80343EAC103EB
:10065C00136087E7E268594BB2B101221A60FFF7C9
:10066C0079FE554D06462B689B0707D52B682269EA
:10067C0023F0F80343EAC2032B6073E7FFF76AFE2B
:10068C00801B0228EFD9A7E71A60FFF763FE4A4EDA
:10069C00054633689F077FF565AFFFF75BFE401B90
:1006AC000228F6D998E76269444B82B10122C3F85B
:1006BC00802EFFF74FFE404E0546736F9B073FF5AC
:1006CC0055AFFFF747FE401B0228F6D984E7C3F865
:1006DC00802EFFF73FFE384E0546736F9F077FF560
:1006EC0045AFFFF737FE401B0228F6D974E7324BB3
:1006FC001A6C12F0805228D101921A6C42F080527E
:10070C001A641B6C03F080530193019B01272C4D41
:10071C002B68D8051BD5A368274D012B27D12B6F30
:10072C0043F001032B67FFF715FE234E054641F2FC
:10073C008838336F9A0739D5002F3FF41BAF1E4A08
:10074C00136C23F08053136414E70027DFE72B6846
:10075C0043F480732B60FFF7FDFD06462B68D9052B
:10076C00D9D4FFF7F7FD801B0228F7D934E7052B06
:10077C0004D12B6F43F004032B67D0E72A6F22F0D0
:10078C0001022A672A6F22F004022A67002BCAD1C1
:10079C00FFF7E0FD41F2883806462B6F9B07CBD55F
:1007AC00FFF7D8FD801B4045F7D915E7FFF7D2FDC1
:1007BC00401B4045BDD90FE70038024000004742BE
:1007CC0000700040374DAA6802F00C02082A3ED097
:1007DC00022B354B4FF000021A662BD1FFF7BAFDF6
:1007EC0006462B6899011FD4D4E907321343626A79
:1007FC0043EA8213E26A43EA0263A26A5208013AAC
:10080C0043EA02436B60284B264D01221A66FFF720
:10081C00A1FD04462B689A013FF5B0AEFFF79AFD97
:10082C00001B0228F6D9D7E6FFF794FD801B02289F
:10083C00D7D9D1E6FFF78EFD04462B689B017FF5D7
:10084C009DAEFFF787FD001B0228F6D9C4E6012BED
:10085C003FF4ABAE6B68E26903F4800191427FF424
:10086C00A4AE216A03F03F028A427FF49EAE616A15
:10087C0047F6C0721A40B2EB811F7FF496AEA26AA3
:10088C00520803F44031013AB1EB024F7FF48DAEC4
:10089C00E26A03F07063B3EB026F14BF0120002017
:1008AC009BE600BF0038024000004742134908B5E0
:1008BC008B6803F00C03042B1CD0082B1CD14A684A
:1008CC004B68496813F4800314BF0D480D48C1F3FD
:1008DC00881118BF002302F03F02A1FB0001FFF7B3
:1008EC005FFC064B5B68C3F3014301335B00B0FB59
:1008FC00F3F008BD0248FCE70248FAE70038024072
:10090C0000127A000024F4002DE9F0410D46044653
:10091C0010B90120BDE8F081434B1A6802F00F02B8
:10092C008A4228D321688F072DD4C80740D43E4B68
:10093C001A6802F00F02AA4265D8226851076BD4DC
:10094C00130707D5394A2169936823F4604343EAB6
:10095C00C1039360FFF7AAFF344B354A9B68C3F37E
:10096C000313D35CD840334B1860334B1868FFF734
:10097C00A7FC0020CEE7CAB21A701B6803F00F0365
:10098C008B42C6D1CEE7294B11F0040F1EBF9A68DB
:10099C0042F4E0529A600E0742BF9A6842F46042F9
:1009AC009A609A68A06822F0F00202439A60BCE751
:1009BC0062681E4B012A1CD11B6813F4003FA8D09F
:1009CC001A4EB36823F003031343B360FFF7C2FC62
:1009DC0041F288380746B368626803F00C03B3EB46
:1009EC00820FA4D0FFF7B6FCC01B4045F3D90320FF
:1009FC0090E7911E01291B6802D813F0007FDEE7F7
:100A0C0013F0020FDBE7EAB21A701B6803F00F0356
:100A1C00AB427FF47EAF90E70449E0688B6823F427
:100A2C00E05303438B608BE7003C024000380240EC
:100A3C00212000081000002004000020704770479F
:100A4C00036870B5DD681E69B10704460DD5AA07A9
:100A5C000BD56FF002021A61012202779B699B078A
:100A6C0069D000F0BBFB00232377710710D56A0710
:100A7C000ED523686FF004021A61022222779B695B
:100A8C0013F4407F20465CD000F0A8FB00232377B2
:100A9C0033070FD528070DD523686FF008021A61AC
:100AAC0004222277DB699907204650D000F096FB90
:100ABC0000232377F20610D5EB060ED523686FF0D2
:100ACC0010021A6108222277DB6913F4407F20465A
:100ADC0043D000F083FB00232377F00708D5E90708
:100AEC0006D523686FF001021A61204600F053FB13
:100AFC00320608D52B0606D523686FF080021A61E2
:100B0C00204600F032F8700608D5690606D5236831
:100B1C006FF040021A612046FFF791FFB20622D512
:100B2C00AB0620D523686FF0200220461A61BDE881
:100B3C00704000F019B800F04FFB2046FFF77EFF25
:100B4C0091E700F049FB2046FFF778FF9EE700F0A5
:100B5C0043FB2046FFF772FFAAE700F03DFB20465F
:100B6C00FFF76CFFB7E770BD70477047026802F182
:100B7C000C0353E8003F23F490730C3242E800312D
:100B8C0002680029F2D102F1140353E8003F23F06C
:100B9C00010302F1140C4CE800310029F3D1036B72
:100BAC00012B0BD102F10C0353E8003F23F010038F
:100BBC0002F10C0C4CE800310029F3D1202380F811
:100BCC00423000230363704790F84130202B10D142
:100BDC0089B182B1C284016282840168002321221E
:100BEC00436480F84120CA6842F08002CA6018460B
:100BFC007047022070470120704708B5806B0023B6
:100C0C00C38500F0C7FC08BD704790F84230222B1A
:100C1C0007B542D181680268836AB1F5805F3FD124
:100C2C00016900293FD15268C2F3080223F8022B54
:100C3C008362C38D013B9BB2C385002B2DD102680F
:100C4C00D16821F02001D160D16821F48071D1608C
:100C5C00516921F001015161202280F84220436347
:100C6C00026B012A026828D1036302F10C0353E8DA
:100C7C00003F23F0100302F10C0C4CE8003100296A
:100C8C00F3D11368DB0605D5019113680193536802
:100C9C000193019B818DFFF7B7FF03B05DF804FB57
:100CAC0039B9016929B95268D2B21A70836A013311
:100CBC00BEE7526802F07F02F7E700F065FCECE754
:100CCC0003681A6873B51607D9685D69044608D1BC
:100CDC00960668D58D0666D502B0BDE87040FFF764
:100CEC0094BF05F0010001F4907505435BD0D60765
:100CFC0005D5CD0542BF636C43F001036364530714
:100D0C0004D518B1636C43F002036364960704D5F1
:100D1C0018B1636C43F004036364150707D501F045
:100D2C00200303431EBF636C43F008036364636CCE
:100D3C00002B32D0920604D58B0602D52046FFF745
:100D4C0064FF26687369626C03F0400302F00802CA
:100D5C0053EA0205204622D0FFF708FF73695E06AE
:100D6C0018D5226802F1140353E8003F23F0400326
:100D7C00143242E800310029F3D1E06B50B1774BCB
:100D8C000365FFF7C7FB40B1E06B036D02B0BDE834
:100D9C0070401847204600F0FDFB02B070BD00F01B
:100DAC00F9FB6564F9E7206B012840F09B80D506C0
:100DBC0040F19880C80640F19580002201921A6893
:100DCC0001925A680192019A5A69A18D520656D520
:100DDC00E06B0268526892B2002A47D0914245D922
:100DEC00E285C269B2F5807F36D003F10C0252E87D
:100DFC00002F22F4807203F10C0040E8002100293E
:100E0C00F3D103F1140252E8002F22F0010203F196
:100E1C00140040E800210029F3D103F1140252E838
:100E2C00002F22F0400203F1140040E800210029B9
:100E3C00F3D1202284F84220216303F10C0252E802
:100E4C00002F22F0100203F10C0040E800210029D1
:100E5C00F3D1E06BFFF720FB02236363E38DA18DDD
:100E6C00C91A89B22046FFF7CFFE96E7914294D17A
:100E7C00C369B3F5807F90D102236363F2E7E28DFF
:100E8C00E08D80B292B2002887D0891A89B20029ED
:100E9C0083D003F10C0252E8002F22F4907203F17C
:100EAC000C0545E800200028F3D103F1140252E8A8
:100EBC00002F22F0010203F1140545E80020002860
:100ECC00F3D1202284F84220206303F10C0252E873
:100EDC00002F22F0100203F10C0545E80020002839
:100EEC00F3D1C9E7160628D50D0626D594F841206E
:100EFC00212A7FF452AFA168226AB1F5805F17D125
:100F0C002169A9B932F8021BC1F3080159602262A8
:100F1C00E28C013A92B2E284002A7FF43EAFDA68A6
:100F2C0022F08002DA60DA6842F04002DA6034E7DC
:100F3C00511C216212785A60EAE750067FF52DAFFA
:100F4C004A067FF52AAFDA6822F04002DA602023E5
:100F5C0084F84130204600F01AFB1EE7070C00080D
:100F6C0090F84030012B11D00268242380F84130D6
:100F7C00D36823F00C0343F00803D360202380F8DC
:100F8C004130002380F840301846704702207047EB
:100F9C0090F84030012B11D00268242380F84130A6
:100FAC00D36823F00C0343F00403D360202380F8B0
:100FBC004130002380F840301846704702207047BB
:100FCC0090F8412090F8420010437047C2850023EE
:100FDC00828502694364222380F84230816203686F
:100FEC001AB1DA6842F48072DA605A6942F001028E
:100FFC005A61DA6842F02002DA600020704770B55E
:10100C0090F84260202E07D141B13AB1002404631C
:10101C00FFF7DCFF204670BD0220FCE70120FAE759
:10102C00836810B5044613B1032201469847204645
:10103C0010BD000010B5074C206810B10430FFF74C
:10104C00FFFC606A20B1BDE810400430FFF7F8BC2B
:10105C0010BD00BF84000020034B186810B1043091
:10106C00FFF7EEBC704700BF84000020034B5868AC
:10107C0010B10430FFF7E4BC704700BF84000020BF
:10108C00034B986810B10430FFF7DABC704700BF0F
:10109C0084000020034BD86810B10430FFF7D0BC9B
:1010AC00704700BF84000020034B186910B1043056
:1010BC00FFF7C6BC704700BF84000020034B586983
:1010CC0010B10430FFF7BCBC704700BF8400002097
:1010DC00034B986910B10430FFF7B2BC704700BFE6
:1010EC008400002010B5074CE06910B10430FFF704
:1010FC00A7FC206B20B1BDE810400430FFF7A0BC6A
:10110C0010BD00BF84000020034BD86910B104301F
:10111C00FFF796BC704700BF84000020034B186A91
:10112C0010B10430FFF78CBC704700BF8400002066
:10113C00034B986A10B10430FFF782BC704700BFB4
:10114C0084000020034BD86A10B10430FFF778BC40
:10115C00704700BF84000020034B586B10B1043063
:10116C00FFF76EBC704700BF84000020826810B58A
:10117C000AB900F029FFBDE81040C368184708B54C
:10118C0000B9FEE700F09EF90068836E13B1603081
:10119C00FFF7ECFF08BDFFF7F2BF10B500B9FEE793
:1011AC00037F013B072B10D8DFE803F004140F106A
:1011BC000F0F0F12012400F085F90068063400EBC4
:1011CC00041083680BB1FFF7D1FF10BD0324F2E7C5
:1011DC000424F0E70224EEE7FFF7DFBFFFF7DDBFE3
:1011EC00FFF7B8B8704708B5FFF7A8F8FFF73FF955
:1011FC00FFF7F8FF08BD704784B0114B0022019235
:10120C00196C41F080511964196C01F080510191F5
:10121C0001990292596C41F480415964596C01F462
:10122C0080410291029903921A6B42F480521A6324
:10123C001B6B03F480530393039B04B0704700BFF4
:10124C00003802400C4BD3F8FC20D2015EBFD3F81F
:10125C00FC2042F08072C3F8FC20084B00225A603C
:10126C001A6842F001021A6000BF00BF00BF586844
:10127C00B0FA80F04009704700ED00E0001000E08B
:10128C0008B5FFF7B9FFFFF7DDFFFFF73DF8FFF7F4
:10129C00B2FF00F02DFABDE808400148FFF7ECB8AA
:1012AC00080000200023C0E90033C0E90233704776
:1012BC000023012803F101020AD11422DBB25343AB
:1012CC00054A181D1044816829B11A44136918473E
:1012DC0040081346EDE77047BC0000200120FFF7E3
:1012EC002BB90220FFF728B90420FFF725B90820F5
:1012FC00FFF722B91020FFF71FB908B52020FFF720
:10130C001BF94020FFF718F98020FFF715F94FF46F
:10131C008070FFF711F9BDE808404FF40070FFF73B
:10132C000BB938B506244FF48065A8B2FFF704F961
:10133C00013C4FEA4505F8D138BD0000344A10464F
:10134C0008B5062300F8043BFFF7ACFF072302F1B6
:10135C0018001375FFF7A6FF082302F12C0082F882
:10136C002830FFF79FFF092302F1400082F83C3040
:10137C00FFF798FF0A2302F1540082F8503017212E
:10138C00FFF790FF02F1680082F86410FFF78AFF04
:10139C0002F17C0082F87810FFF784FF02F19000D4
:1013AC0082F88C10FFF77EFF02F1A40082F8A010E7
:1013BC00FFF778FF02F1B80082F8B4102821FFF78C
:1013CC0071FF02F1CC0082F8C810FFF76BFF02F13D
:1013DC00E00082F8DC10FFF765FF02F1F40082F800
:1013EC00F010FFF75FFF02F5847082F80411FFF72D
:1013FC0059FF02F58E7082F81811FFF753FFBDE804
:10140C00084002F5987082F82C11FFF74BBF00BF13
:10141C00BC00002038B5054CA4F5A075143C201D6B
:10142C00FFF7FEFDAC42F9D138BD00BFFC01002036
:10143C000B685A1C01D100207047834201D14868C7
:10144C0070470C31F4E7431C01D0FFF7F1BF0020CB
:10145C0070474B6813B94FF0FF307047834201D18E
:10146C00086870470C31F4E708B1FFF7F2BF4FF092
:10147C00FF3070471049D1F8883043F47003C1F83D
:10148C0088300E4B1A6842F001021A6000229A60F2
:10149C001A6822F0847222F480321A60084A5A6068
:1014AC001A6822F480221A604FF47F02DA604FF03F
:1014BC0000638B60704700BF00ED00E00038024015
:1014CC00103000240438704708B5074B90F865209D
:1014DC0053F82200FFF774FD00F02200A0F1220364
:1014EC005842584108BD00BFFC01002008B5074B0D
:1014FC0090F8652053F82200FFF762FD00F0210000
:10150C00A0F121035842584108BD00BFFC01002046
:10151C0038B515460446B8B1016590F96400FEF77C
:10152C0071FFE36EB4F8761094F8650013FA81F14C
:10153C00064BAAB253F82000FFF746FB94F964005F
:10154C00BDE83840FEF750BF38BD00BFFC0100209D
:10155C0048B1836D013306D190F86520024B53F8E6
:10156C002200FFF7FDBC7047FC01002048B1836DE1
:10157C00013306D190F86520024B53F82200FFF797
:10158C0007BD7047FC010020836C04381847C36CFE
:10159C000438184730B5044650F804391D6815F066
:1015AC00010585B012D0002200921A6800925B6887
:1015BC000093009BFFF788FF40BB012204F16201FE
:1015CC00204605B0BDE83040FFF719BD196811F091
:1015DC00020106D001951A6801925B680193019B88
:1015EC00E8E71A6812F0040206D002911A68029217
:1015FC005B680293029BDDE719680907DAD5039251
:10160C001A6803925B680393039BD3E705B030BD64
:10161C0008B52520FEF71CFF024B1868BDE80840F2
:10162C00FFF74EBBFC01002008B52620FEF710FF8B
:10163C00034B586818B1BDE80840FFF741BB08BD23
:10164C00FC01002008B52720FEF702FF034B986829
:10165C0018B1BDE80840FFF733BB08BDFC01002002
:10166C0008B53420FEF7F4FE024BD868BDE80840FC
:10167C00FFF726BBFC01002008B53520FEF7E8FE7D
:10168C00024B1869BDE80840FFF71ABBFC010020AB
:10169C0008B54720FEF7DCFE024B5869BDE8084050
:1016AC00FFF70EBBFC01002008B55220FEF7D0FE60
:1016BC00024B9869BDE80840FFF702BBFC01002013
:1016CC0008B55320FEF7C4FE024BD869BDE80840AC
:1016DC00FFF7F6BAFC010020FEE70000024B1622D1
:1016EC001A604FF0FF3070476C04002001207047E7
:1016FC0010B594B0102200210AA800F063FA14224D
:10170C00002103A800F05EFA1F4B002101911A6C16
:10171C0042F080521A641B6C1C4A03F080530193F4
:10172C00019B0291136823F4404343F480431360FC
:10173C00136803F440430293029B01224FF480335D
:10174C000224CDE908234FF48003CDE90E43042194
:10175C004823CDE9101308A8032312941393FEF722
:10176C00F7FE00B1FEE70F23CDE903344FF48053AD
:10177C00CDE906300590214603A8FFF7C5F800B166
:10178C00FEE714B010BD00BF0038024000700040EE
:10179C0008B50320FEF7E4FDBDE8084000F042B8B0
:1017AC0008B5AFF30080FEF743FDFEF771FD00F0C6
:1017BC002BF8FAE7DFF834D0FFF75CFE0C480D4944
:1017CC000D4A002302E0D458C4500433C4188C4290
:1017DC00F9D30A4A0A4C002301E013600432A242F6
:1017EC00FBD300F0F7F9FFF7DBFF70470000032095
:1017FC000000002064000020CC23000864000020BE
:10180C0070040020FEE7000008B5044B2BB104481F
:10181C0000F00AF808B1AFF3008008BD000000002A
:10182C001C020020FFF72CBDB0F80831B0F80421E1
:10183C00981A00F03F007047B0F80831B0F8042156
:10184C009BB293421ABFD0F8FC30985C4FF0FF303B
:10185C00704790F80631B0F80A01C0B2834227BF36
:10186C00C3F13F03C018C01A00F1FF30704707B531
:10187C0003688DF807105B6801220DF1070198478A
:10188C0003B05DF804FB0000B0F87620816F11FA0C
:10189C0082F202F03F0210B5A0F87620B0F8761074
:1018AC00B0F8722089B28A421AD0B0F87640B0F8FB
:1018BC007610A4B24032121B544289B204F03F0499
:1018CC0002F03F02C1F1400158BF62428A4228BF78
:1018DC000A4682670349FFF71BFE4FF0FF3010BD2D
:1018EC000020FCE7951800082DE9F843036804462E
:1018FC009B6888461646984701232374D4F8EC302D
:10190C00B4F8067101338146C7F1400709D194F848
:10191C00113133B1002384F8113104F19400FFF735
:10192C0017FE236820469B6898470028F9D0354657
:10193C00BD4225D84D4523D8B4F80631D4F8000162
:10194C005A19402A184430D82A46414600F066F904
:10195C002F46B4F806311D4405F03F05A4F8065196
:10196C0004F194052846FFF7C1FD30B91649C4F8B7
:10197C000C713A462846FFF7CBFD3046BDE8F8839C
:10198C004F45236828BF4F463A4641465B68204680
:10199C009847236820469B689847ED1BB844B4F8D9
:1019AC0006718146C7F14007C2E7C3F140073A46CA
:1019BC00414600F033F9D4F80001EA1B08EB0701AB
:1019CC0000F02CF9C5E700BF95180008C0F8F030FE
:1019DC00009BC0F8F430914208BF4FF0FF3100F18A
:1019EC001403C0E93A21C0F8FC3000F15402002382
:1019FC00A0F80831C0E94023A0F80A317047000074
:101A0C00F7B54FF47A7317460022C0E901231D4B3A
:101A1C0003604FF0FF33C0F8EC301B4B1B4E0446F9
:101A2C009C42D6F8D4000D4605D1336EC4F8EC3088
:101A3C00C4F8E8000BE01649FFF705FD854216D106
:101A4C00336EC4F8EC30D6F8D430C4F8E830012F3B
:101A5C004FF0FF3308BFC4F8EC3000932046D4E9B4
:101A6C003A214FF0FF33FFF7B1FF03B0F0BD094946
:101A7C002846FFF7F9FC0649C4F8EC002846FFF7A6
:101A8C00F3FCD5E7882300081C020020B4210008D1
:101A9C00F420000834200008037C70B504460D4681
:101AAC00A3B1FEF757FC0646B4F80621B4F80A3188
:101ABC009BB29A420AD0002DF8D0FEF74BFC801B4B
:101ACC008542F1D8B4F80A31A4F8063170BD002172
:101ADC00FFF7E2BFD0F8EC30013310B504460ED15D
:101AEC000368DB68984794F8113143B9012384F8F3
:101AFC00113104F19400BDE81040FFF737BD10BD63
:101B0C0010B50446FFF7E6FFB4F80821B4F8043129
:101B1C0092B29A421FBFD4F8FC20D05C013303F080
:101B2C003F0314BFA4F804314FF0FF3010BD000088
:101B3C00024903480022FFF763BF00BF00100140B9
:101B4C001C02002010B5044600F03AF8E06023684F
:101B5C0020465B699847002808DA00F031F8E36802
:101B6C00C01AA3689842F2D34FF0FF3010BDF8B5FD
:101B7C0007460D468E180C46B44201D1601BF8BDC9
:101B8C003846FFF7DFFF431CF8D004F8010BF3E7EE
:101B9C002DE9F0410746884616461D4673B10024D0
:101BAC003846FFF7CFFF431C05D0404503D03055D6
:101BBC000134A542F4D12046BDE8F0811C46FAE779
:101BCC00FFF70EBB02440346934200D1704703F863
:101BDC00011BF9E770B50D4B0D4D5B1B9C100026DE
:101BEC00A64209D100F0F4F90A4D0B4B5B1B9C107B
:101BFC000026A64205D170BD55F8043B9847013626
:101C0C00EEE755F8043B98470136F2E7B423000899
:101C1C00B4230008B4230008C42300080A449142EA
:101C2C0000F1FF3300D1704710B511F8014B03F8E8
:101C3C00014F9142F9D110BD08B5062000F02CF8E7
:101C4C000120FFF749FD1F2938B505460C4604D97C
:101C5C00162303604FF0FF3038BDC26B12B152F83F
:101C6C0021304BB9284600F031F82246014628466F
:101C7C00BDE8384000F018B8012B0AD0591C03D12C
:101C8C00162303600120E7E7002142F824102046C8
:101C9C0098470020E0E70000024B01461868FFF768
:101CAC00D2BF00BF1400002038B5074D00230446F6
:101CBC00084611462B60FFF711FD431C02D12B681F
:101CCC0003B1236038BD00BF6C040020FFF70EBDCC
:101CDC002DE9F047089D0F4604468C46002B48D151
:101CEC008A42164661D9B2FA82F34BB1C3F1200293
:101CFC0001FA03FC20FA02F29E4042EA0C0C9C40D2
:101D0C004FEA164EB7B2BCFBFEF1220C0EFB11CC07
:101D1C0042EA0C4201FB07F0904209D9B21801F1DA
:101D2C00FF3C80F0EE80904240F2EB80023932446E
:101D3C00121AA4B2B2FBFEF00EFB102244EA0244CB
:101D4C0000FB07F7A74209D9341900F1FF3280F0E4
:101D5C00DA80A74240F2D7803444023840EA01408E
:101D6C00E41B00211DB1DC400023C5E90043BDE8A4
:101D7C00F0878B4206D90DB1C5E900010021084658
:101D8C00BDE8F087B3FA83F1002948D1BB4202D3F6
:101D9C00824200F20781841A67EB03020120944609
:101DAC00002DE4D0C5E9004CE1E7002A00F0928058
:101DBC00B2FA82F3002B40F0A8808A1A4FEA164E32
:101DCC001FFA86FC0121200CB2FBFEF70EFB17223A
:101DDC0040EA02420CFB07F0904207D9B21807F117
:101DEC00FF3802D2904200F2E2804746121AA4B2A7
:101DFC00B2FBFEF00EFB102244EA02440CFB00FC8A
:101E0C00A44507D9341900F1FF3202D2A44500F2DF
:101E1C00CB801046A4EB0C0440EA0740A2E7C1F1CA
:101E2C0020068B4022FA06FC4CEA030C07FA01F45C
:101E3C0020FA06F3F7404FEA1C49234300FA01F855
:101E4C001FFA8CFEB7FBF9F01C0C09FB107744EA67
:101E5C00074400FB0EF7A74202FA01F20AD91CEB69
:101E6C00040400F1FF3A80F09B80A74240F2988076
:101E7C0002386444E41B9FB2B4FBF9F309FB13442E
:101E8C0047EA044403FB0EFEA64509D91CEB0404E7
:101E9C0003F1FF3780F08280A6457FD9023B644472
:101EAC0043EA0040A4EB0E04A0FB02E7BC427346DD
:101EBC00B94663D360D05DB1B8EB030264EB09049F
:101ECC0004FA06F622FA01F31E43CC40C5E900647D
:101EDC0000214CE76208480842EAC1710B0C43EA46
:101EEC0000438AB242EA0342B3FBF6F1E407B4467C
:101EFC003746B6461F23B0FBF6F0D21B41EA004131
:101F0C0061E7614614E7104628E7C3F1200120FA87
:101F1C0001F29E4027FA01F19F403A434FEA164ED8
:101F2C001FFA86FCB1FBFEF70EFB1710110C41EAF1
:101F3C00004107FB0CF8884504FA03F43AD97118F0
:101F4C0007F1FF3001D288451FD8A1EB0801B1FB86
:101F5C00FEF808FB0CF70EFB181192B242EA014294
:101F6C00BA422FD2B21808F1FF31C6D2BA42C4D24B
:101F7C00A8F102013244C0E7F0459CD2BEEB02034B
:101F8C0067EB0C070138B94695E7A6EB0808414406
:101F9C00B81EB1FBFEF808FB0CF7DCE73B467FE70D
:101FAC00504667E70846FBE63444023832E7023F06
:101FBC0032441BE7A1EB08013846B1FBFEF808FBE5
:101FCC000CF7C8E7414698E708B5FFF735FE000067
:101FDC00F8B500BFF8BC08BC9E467047F8B500BF0A
:081FEC00F8BC08BC9E467047DA
:101FF40048414C20494E4954204F4B0A00535953F1
:102004005449434B204F4B0A005359535449434BB3
:10201400204641494C0A004C4F4F500A0000000032
:102024000000000000010203040607080900000084
:1020340001000000004C00401208000003000000F2
:1020440000440040120700000A0000000010014094
:1020540012070000170000000010014012070000E2
:102064001B00000000480040120700002700000089
:1020740000140140120800002B000000004C004036
:10208400120800002B010000004800401207000065
:10209400320000000050004012080000360000002A
:1020A40000440040120700003900000000480040CE
:1020B4001207000040000000007C004012080000ED
:1020C400470000000078004012080000560000009D
:1020D400007800401208000069000000001401406C
:1020E40012080000FFFFFFFF0000000000000000D6
:1020F40000000000004C0040120800000200000034
:1021040000440040120700000900000000100140D4
:102114001207000016000000001001401207000022
:102124001A000000004800401207000026000000CA
:1021340000140140120800002A000000004C004076
:10214400120800002A0100000048004012070000A5
:102154002C00000000500040120800003500000070
:10216400004400401207000038000000004800400E
:102174001207000041000000007C0040120800002B
:1021840048000000007800401208000057000000DA
:1021940000780040120800006E00000000140140A6
:1021A40012080000FFFFFFFF000000000000000015
:1021B4005400000052000000500000002E000000F7
:1021C40046000000440000004200000040000000FF
:1021D40018000000FFFFFFFF1600000014000000BD
:1021E4006F0000006D0000006B000000690000003B
:1021F400370000003500000033000000310000000B
:102204002C0000002A0000000E0000000C0000005A
:102214000A0000000800000028000000260000005A
:102224006700000065000000550000005300000036
:10223400510000002F0000002D00000045000000A8
:1022440043000000410000001900000017000000D6
:1022540015000000130000006E0000006C00000078
:102264006A00000036000000340000003200000064
:10227400300000002B0000000F0000000D000000E3
:102284000B000000090000002900000027000000E6
:1022940068000000660000006400000056000000B2
:1022A400580000005A0000007100000021000000E6
:1022B40023000000010000000300000005000000EE
:1022C4000700000025000000110000005C00000071
:1022D4005E000000600000004700000049000000AC
:1022E4004B0000004D0000004F0000001B000000E8
:1022F4001D0000001F000000390000003B0000002A
:102304003D0000003F000000630000005700000093
:1023140059000000700000002000000022000000AE
:10232400000000000200000004000000060000009D
:102334002400000010000000120000005B000000F8
:102344005D0000005F000000610000004800000024
:102354004A0000004C0000004E0000001A0000007B
:102364001C0000001E000000380000003A000000BD
:102374003C0000003E00000062000000000000007D
:10238400000000007B180008F51800085F1800081A
:10239400DB1A0008351800080D1B00084518000852
:0823A4007B1B00089D1B0008D3
:0823AC0030F9FF7F0100000081
:1023B4009D17000805020008491300083D1B00088A
:0823C400E101000821140008EA
:1023CC00010000001000000000300240000000007E
:1023DC000024F4001800002000000000340300204A
:1023EC009C030020040400200000000000000000FA
:1023FC0000000000000000000000000000000000D1
:10240C0000000000000000000000000000000000C0
:10241C0000000000000000000000000000000000B0
:04242C0000000000AC
:04000005080017C117
:00000001FF
