:020000040800F2
:1000000000000220952D0008E52D0008E52D0008D0
:10001000E52D0008E52D0008E52D00080000000092
:10002000000000000000000000000000E52D0008B6
:10003000E52D000800000000E52D0008CB180008A1
:10004000E52D0008E52D0008E52D0008E52D000848
:10005000E52D0008E52D0008C1190008C7190008A2
:10006000CD190008D3190008D9190008E52D00089A
:10007000E52D0008E52D0008E52D0008E52D000818
:10008000E52D0008E52D0008E52D0008E52D000808
:10009000E52D0008E52D0008E52D0008DF19000812
:1000A000BD150008D5140008D1150008F914000882
:1000B0000D1500082115000835150008E52D00086C
:1000C000E52D0008E52D0008E52D0008E52D0008C8
:1000D000E52D00088D260008A5260008C126000889
:1000E000071A0008E52D0008E52D0008E5150008B1
:1000F00085150008F9150008A9150008E52D000868
:10010000E52D0008E52D000849150008E52D00083B
:10011000DD260008F52600085D15000871150008A9
:10012000E52D0008E52D0008E52D0008E52D000867
:10013000E52D0008E52D0008E52D0008E52D000857
:10014000E52D0008E52D0008E52D0008E52D000847
:10015000E52D0008E52D0008E52D00080D27000815
:10016000E52D0008E52D0008E52D0008E52D000827
:10017000E52D0008E52D0008E52D00080000000031
:08018000E52D0008E52D000843
:10018800034613F8012B002AFBD1181A01387047CF
:1001980053B94AB9002908BF00281CBF4FF0FF31E6
:1001A8004FF0FF3000F00CB8ADF1080C6DE904CE4B
:1001B80003F07AF8DDF804E0DDE9022304B07047C3
:1001C800704700BF10B5054C237833B9044B13B101
:1001D8000448AFF300800123237010BD8C00002079
:1001E80000000000B035000808B5034B1BB10349F7
:1001F8000348AFF3008008BD000000009000002015
:10020800B035000808B5084806224FF4E13102F07D
:100218008DFC01215F2002F0E3FDBDE808400349A1
:10022800014802F01FBD00BF40020020C835000889
:1002380010B50121194C5F2002F03CFE18491948FD
:1002480002F0F6FC0A222168164802F04DFD164914
:10025800144802F007FD642002F066FE00215F20CA
:1002680002F028FE0E490F4802F0E2FC0A2221683B
:100278000C4802F039FD0D490A4802F0F3FC6420ED
:1002880002F052FE23680133022B236004DD084983
:10029800044802F0E7FCFEE710BD00BFA8000020FC
:1002A800E335000840020020E9350008F135000870
:1002B800FA3500087047000038B50E4B1A784FF42D
:1002C8007A73B3FBF2F30C4A05461068B0FBF3F0FF
:1002D80000F0A6F8044658B90F2D09D80246294659
:1002E8004FF0FF3000F04AF8044B20461D6038BD3F
:1002F8000120FCE70000002034000020040000205A
:1003080008B50B4B1A6842F400721A601A6842F476
:1003180080621A601A6842F480721A60032000F042
:100328001BF80020FFF7C8FFFFF7C4FF002008BD37
:10033800003C0240034A044B11681B780B441360CD
:10034800704700BFAC00002000000020014B186877
:10035800704700BFAC0000200749CA6822F4E06279
:100368000302120403F4E063120C134343F0BF6367
:1003780043F40033CB60704700ED00E0164B30B516
:10038800DC68C4F30224C4F10703251D042B28BF2D
:100398000423062D4FF0FF358CBF033C002405FADB
:1003A80003F321EA0303A54022EA0502A34000283B
:1003B80043EA0203ACBF00F16040084A4FEA031366
:1003C800B8BF00F00F00DBB2AABF00F561401354BC
:1003D80080F8003330BD00BF00ED00E014ED00E010
:1003E800002807DB044A4109012300F01F0083406D
:1003F80042F82130704700BF00E100E000280CDB24
:100408004309064900F01F0020330122824041F8C9
:100418002320BFF34F8FBFF36F8F704700E100E0D9
:100428000138B0F1807F0BD24FF0E023054A5861C4
:10043800F02182F823100020072298611A61704782
:100448000120704700ED00E0002808DB430904495B
:1004580000F01F0001226033824041F823207047DA
:1004680000E100E0704708B5FFF7FCFF08BD7047E2
:1004780010B5044650B1437903F0FF0213B9027175
:10048800FFF7F5FF01236371002010BD0120FCE791
:1004980010B5044640B10223037101F0B7F90020FA
:1004A80020616071207110BD0120FCE710B50123A7
:1004B80058B1046801F01001226803FA01F122EA38
:1004C800010222600371002010BD1846FCE770B5D8
:1004D8000446866DFFF73AFF94F83530022B05463F
:1004E80006D0802363650120002384F8343070BD72
:1004F80023681A6822F016021A605A6922F08002EC
:100508005A61226C0AB9A26C1AB11A6822F0080260
:100518001A601A6822F001021A602368186810F03D
:10052800010007D1E26D3F239340B360012384F8B3
:100538003530D9E7FFF70AFF401B0528EDD92023FE
:100548000320636584F83500CEE790F83530022B38
:1005580003D080234365012070470268052380F893
:100568003530136823F00103136000207047000042
:10057800044A5169014208B502D0506101F006FAF7
:1005880008BD00BF003C01402DE9F341044640B3DB
:100598000368DE0710D423689D075BD42368190716
:1005A80000F19D8023685A0700F1BD80A369002BE4
:1005B80040F0248100202CE08D4B9A6802F00C0258
:1005C800042A07D09A6802F00C02082A0BD15B684B
:1005D800590208D5864B1B689A03DCD56368002B43
:1005E800D9D1012015E06368814DB3F5803F13D15F
:1005F8002B6843F480332B60FFF7A8FE7C4E05463A
:1006080033689B03C7D4FFF7A1FE401B6428F7D9C2
:10061800032002B0BDE8F081B3F5A02F04D12B6808
:1006280043F480232B60E3E72A6822F480322A60AF
:100638002A6822F480222A60002BDDD1FFF786FE8B
:1006480006462B689F03A6D5FFF780FE801B64280B
:10065800F7D9DDE7664B9A6812F00C0F07D09A6855
:1006680002F00C02082A11D15B685D020ED4604AC0
:100678001368990702D5E368012BB2D11368216981
:1006880023F0F80343EAC103136087E7E268594B94
:10069800B2B101221A60FFF759FE554D06462B6884
:1006A8009B0707D52B68226923F0F80343EAC203A6
:1006B8002B6073E7FFF74AFE801B0228EFD9A7E7F4
:1006C8001A60FFF743FE4A4E054633689F077FF5D9
:1006D80065AFFFF73BFE401B0228F6D998E7626931
:1006E800444B82B10122C3F8802EFFF72FFE404E03
:1006F8000546736F9B073FF555AFFFF727FE401B75
:100708000228F6D984E7C3F8802EFFF71FFE384E7B
:100718000546736F9F077FF545AFFFF717FE401B30
:100728000228F6D974E7324B1A6C12F0805228D19D
:1007380001921A6C42F080521A641B6C03F08053C9
:100748000193019B01272C4D2B68D8051BD5A36865
:10075800274D012B27D12B6F43F001032B67FFF7A0
:10076800F5FD234E054641F28838336F9A0739D58F
:10077800002F3FF41BAF1E4A136C23F08053136401
:1007880014E70027DFE72B6843F480732B60FFF73B
:10079800DDFD06462B68D905D9D4FFF7D7FD801BA8
:1007A8000228F7D934E7052B04D12B6F43F0040353
:1007B8002B67D0E72A6F22F001022A672A6F22F0FE
:1007C80004022A67002BCAD1FFF7C0FD41F288381E
:1007D80006462B6F9B07CBD5FFF7B8FD801B40451E
:1007E800F7D915E7FFF7B2FD401B4045BDD90FE724
:1007F800003802400000474200700040374DAA68A8
:1008080002F00C02082A3ED0022B354B4FF00002B2
:100818001A662BD1FFF79AFD06462B6899011FD45B
:10082800D4E907321343626A43EA8213E26A43EA6D
:100838000263A26A5208013A43EA02436B60284BFA
:10084800264D01221A66FFF781FD04462B689A019E
:100858003FF5B0AEFFF77AFD001B0228F6D9D7E6C0
:10086800FFF774FD801B0228D7D9D1E6FFF76EFD8C
:1008780004462B689B017FF59DAEFFF767FD001BC3
:100888000228F6D9C4E6012B3FF4ABAE6B68E269E7
:1008980003F4800191427FF4A4AE216A03F03F0281
:1008A8008A427FF49EAE616A47F6C0721A40B2EB84
:1008B800811F7FF496AEA26A520803F44031013AD0
:1008C800B1EB024F7FF48DAEE26A03F07063B3EBD5
:1008D800026F14BF012000209BE600BF00380240D1
:1008E80000004742134908B58B6803F00C03042B3A
:1008F8001CD0082B1CD14A684B68496813F4800344
:1009080014BF0D480D48C1F3881118BF002302F029
:100918003F02A1FB0001FFF73BFC064B5B68C3F3FA
:10092800014301335B00B0FBF3F008BD0248FCE76C
:100938000248FAE70038024000127A000024F40066
:100948002DE9F0410D46044610B90120BDE8F081BB
:10095800434B1A6802F007028A4228D321688F079E
:100968002DD4C80740D43E4B1A6802F00702AA42A9
:1009780065D8226851076BD4130707D5394A21690E
:10098800936823F4604343EAC1039360FFF7AAFF27
:10099800344B354A9B68C3F30313D35CD840334BBD
:1009A8001860334B1868FFF787FC0020CEE7CAB2FF
:1009B8001A701B6803F007038B42C6D1CEE7294B98
:1009C80011F0040F1EBF9A6842F4E0529A600E07B5
:1009D80042BF9A6842F460429A609A68A06822F01E
:1009E800F00202439A60BCE762681E4B012A1CD1E0
:1009F8001B6813F4003FA8D01A4EB36823F0030312
:100A08001343B360FFF7A2FC41F288380746B36886
:100A1800626803F00C03B3EB820FA4D0FFF796FCD7
:100A2800C01B4045F3D9032090E7911E01291B689C
:100A380002D813F0007FDEE713F0020FDBE7EAB21B
:100A48001A701B6803F00703AB427FF47EAF90E790
:100A58000449E0688B6823F4E05303438B608BE719
:100A6800003C0240003802405436000834000020A0
:100A780004000020044B054A9B68C3F38223D35C1F
:100A8800034A1068D8407047003802404C360008C6
:100A980034000020044B054A9B68C3F34233D35CFF
:100AA800034A1068D8407047003802404C360008A6
:100AB8003400002070477047036870B5DD681E6910
:100AC800B10704460DD5AA070BD56FF002021A61CB
:100AD800012202779B699B0769D000F0E6FD00239D
:100AE8002377710710D56A070ED523686FF00402C3
:100AF8001A61022222779B6913F4407F20465CD05A
:100B080000F0D3FD0023237733070FD528070DD531
:100B180023686FF008021A6104222277DB699907BB
:100B2800204650D000F0C1FD00232377F20610D5EF
:100B3800EB060ED523686FF010021A61082222779F
:100B4800DB6913F4407F204643D000F0AEFD00235C
:100B58002377F00708D5E90706D523686FF0010267
:100B68001A61204600F07EFD320608D52B0606D510
:100B780023686FF080021A61204600F0B2F8700610
:100B880008D5690606D523686FF040021A61204629
:100B9800FFF791FFB20622D5AB0620D523686FF088
:100BA800200220461A61BDE8704000F099B800F0B4
:100BB8007AFD2046FFF77EFF91E700F074FD20469E
:100BC800FFF778FF9EE700F06EFD2046FFF772FF03
:100BD800AAE700F068FD2046FFF76CFFB7E770BD95
:100BE800274A0368904212D0B0F1804F0FD0A2F587
:100BF8007C4290420BD002F58062904207D002F509
:100C08008062904203D002F57842904208D14A6847
:100C180023F070031343CA6823F44073134316E0A8
:100C2800184A9042F7D002F580629042F3D002F55C
:100C380080629042EFD0A2F598329042EBD002F554
:100C480080629042E7D002F580629042E3D04A6920
:100C580023F0800313438A68C2620A688262084AE2
:100C6800904203D002F58062904201D10A69026382
:100C7800026842F004020260012242610360704788
:100C8800000001400040014010B5044630B390F820
:100C98003D3003F0FF021BB980F83C2001F0A8FAB0
:100CA8000223206884F83D30211DFFF799FF0123B6
:100CB80084F84630002084F83E3084F83F3084F8C9
:100CC800403084F8413084F8423084F8433084F866
:100CD800443084F8453084F83D3010BD0120FCE7ED
:100CE80070477047026802F10C0353E8003F23F491
:100CF80090730C3242E8003102680029F2D102F107
:100D0800140353E8003F23F0010302F1140C4CE8EC
:100D180000310029F3D1036B012B0BD102F10C0335
:100D280053E8003F23F0100302F10C0C4CE80031AB
:100D38000029F3D1202380F8423000230363704751
:100D48000268C16838B5136923F440530B43136133
:100D5800054683680069D168034368690343E86905
:100D680021F4164121F00C0103430B43D36053696E
:100D7800A96923F440730B4353611F4B9A4203D074
:100D880003F580639A4224D1FFF784FEEA691921AA
:100D9800B2F5004FD5E90043A0FB01011CD1DA18D8
:100DA8004FF0000545EB0503FFF7F2F96422B0FBAD
:100DB800F2F102FB1103DB003233B3FBF2F303F071
:100DC80007025B0002EB011203F4F8731344A360FB
:100DD80038BDFFF74FFED9E79A009B0FFFF7D8F908
:100DE8006422B0FBF2F102FB11031B013233B3FBA7
:100DF800F2F303EB0113EAE700100140704710B566
:100E0800044648B390F8413003F0FF021BB980F85C
:100E18004020FFF7F3FF2268242384F84130D36889
:100E280023F40053D3602046FFF78AFF23681A692A
:100E380022F490421A615A6922F02A025A61DA6849
:100E480042F40052DA6000202023606484F84130C4
:100E580084F84230606310BD0120FCE710B50446F9
:100E680068B390F8413003F0FF021BB980F84020C6
:100E7800FFF7C4FF2268242384F84130D36823F4A1
:100E88000053D3602046FFF75BFF23681A6922F4FA
:100E980090421A615A6922F022025A615A6942F054
:100EA80008025A61DA6842F40052DA60002020230E
:100EB800606484F8413084F84230606310BD0120DA
:100EC800FCE790F84130202B10D189B182B1C2845F
:100ED80001628284016800232122436480F8412052
:100EE800CA6842F08002CA601846704702207047FC
:100EF8000120704708B5806B0023C38501F084FB8F
:100F080008BD704790F84230222B07B542D181685E
:100F18000268836AB1F5805F3FD1016900293FD13A
:100F28005268C2F3080223F8022B8362C38D013B87
:100F38009BB2C385002B2DD10268D16821F0200116
:100F4800D160D16821F48071D160516921F001012B
:100F58005161202280F842204363026B012A026813
:100F680028D1036302F10C0353E8003F23F0100378
:100F780002F10C0C4CE800310029F3D11368DB06B0
:100F880005D501911368019353680193019B818DE5
:100F9800FFF7B7FF03B05DF804FB39B9016929B958
:100FA8005268D2B21A70836A0133BEE7526802F0FF
:100FB8007F02F7E701F022FBECE7000003681A68FC
:100FC80073B51607D9685D69044608D1960668D5D1
:100FD8008D0666D502B0BDE87040FFF793BF05F0F7
:100FE800010001F4907505435BD0D60705D5CD0502
:100FF80042BF636C43F001036364530704D518B11F
:10100800636C43F002036364960704D518B1636CFC
:1010180043F004036364150707D501F02003034375
:101028001EBF636C43F008036364636C002B32D00B
:10103800920604D58B0602D52046FFF763FF266883
:101048007369626C03F0400302F0080253EA020578
:10105800204622D0FFF746FE73695E0618D522683F
:1010680002F1140353E8003F23F04003143242E82E
:1010780000310029F3D1E06B50B1774B0365FFF7DE
:1010880064FA40B1E06B036D02B0BDE870401847E8
:10109800204601F0B9FA02B070BD01F0B5FA6564F6
:1010A800F9E7206B012840F09B80D50640F1988035
:1010B800C80640F19580002201921A6801925A6888
:1010C8000192019A5A69A18D520656D5E06B0268C1
:1010D800526892B2002A47D0914245D9E285C26946
:1010E800B2F5807F36D003F10C0252E8002F22F4CB
:1010F800807203F10C0040E800210029F3D103F1CC
:10110800140252E8002F22F0010203F1140040E813
:1011180000210029F3D103F1140252E8002F22F034
:10112800400203F1140040E800210029F3D12022F5
:1011380084F84220216303F10C0252E8002F22F0C8
:10114800100203F10C0040E800210029F3D1E06B04
:10115800FFF7BDF902236363E38DA18DC91A89B234
:101168002046FFF7CEFE96E7914294D1C369B3F5C6
:10117800807F90D102236363F2E7E28DE08D80B235
:1011880092B2002887D0891A89B2002983D003F146
:101198000C0252E8002F22F4907203F10C0545E886
:1011A80000200028F3D103F1140252E8002F22F0A6
:1011B800010203F1140545E800200028F3D120229C
:1011C80084F84220206303F10C0252E8002F22F039
:1011D800100203F10C0545E800200028F3D1C9E707
:1011E800160628D50D0626D594F84120212A7FF425
:1011F80052AFA168226AB1F5805F17D12169A9B9F8
:1012080032F8021BC1F3080159602262E28C013AEC
:1012180092B2E284002A7FF43EAFDA6822F08002BC
:10122800DA60DA6842F04002DA6034E7511C216281
:1012380012785A60EAE750067FF52DAF4A067FF527
:101248002AAFDA6822F04002DA60202384F84130BD
:10125800204601F0D6F91EE7FD0E000890F8403050
:10126800012B11D00268242380F84130D36823F081
:101278000C0343F00803D360202380F84130002397
:1012880080F84030184670470220704790F8403088
:10129800012B11D00268242380F84130D36823F051
:1012A8000C0343F00403D360202380F8413000236B
:1012B80080F84030184670470220704790F8412067
:1012C80090F8420010437047C28500238285026966
:1012D8004364222380F84230816203681AB1DA68D5
:1012E80042F48072DA605A6942F001025A61DA689F
:1012F80042F02002DA600020704770B590F8426032
:10130800202E07D141B13AB100240463FFF7DCFF76
:10131800204670BD0220FCE70120FAE7836810B57B
:1013280004462BB10322014698470023C4E902333F
:1013380010BD836810B5044613B1032201469847CF
:10134800204610BD294A9042034633D0B0F1804F61
:1013580032D0A2F57C42904230D002F580629042B1
:101368002ED002F5806290422CD002F58062904225
:101378002AD002F58062904228D002F5704290424D
:1013880026D04FF6FF701A4A934223D0194A934247
:1013980022D0194A934221D0184A934220D0184AA1
:1013A80093421FD0174A93421ED04FF6FF739842BC
:1013B8001BD1FEE70020E6E70120E7E70220E8E787
:1013C8000320E9E70420EAE70520EBE70620ECE73D
:1013D8000720704708207047092070470A20704787
:1013E8000B2070470C2070470D207047000001400B
:1013F80000400140004401400048014000180040FE
:10140800001C004000200040014670B5044651F819
:10141800100FFFF797FF0546084600F095FD094AAB
:10142800002342F8253004F16006E36004F1B005BA
:10143800B54204D0103D2846FFF77BFFF8E7204669
:1014480070BD00BFB0000020F8B504460846FFF79D
:1014580079FF236903B1FEE71B4DA36404F10C0275
:1014680045F8202004F110060E22C4E90C33C4E923
:101478000E33C4E91033C4E91623216184F82C30F3
:1014880084F84C3084F84D30E460304600F064FC59
:1014980004F1600504F1B00728461035FFF73EFF58
:1014A800BD42F9D10023C4E900334FF6FF72C4E905
:1014B8000632C4E90833A36063618023A36230461F
:1014C800BDE8F840FFF7E0BBB000002010B5074CBE
:1014D800206810B10430FFF7EFFA606A20B1BDE868
:1014E80010400430FFF7E8BA10BD00BFB00000207C
:1014F800034B186810B10430FFF7DEBA704700BF1D
:10150800B0000020034B586810B10430FFF7D4BA7C
:10151800704700BFB0000020034B986810B104303A
:10152800FFF7CABA704700BFB0000020034BD86865
:1015380010B10430FFF7C0BA704700BFB0000020F8
:10154800034B186910B10430FFF7B6BA704700BFF3
:10155800B0000020034B586910B10430FFF7ACBA53
:10156800704700BFB0000020034B986910B10430E9
:10157800FFF7A2BA704700BFB000002010B5074CB3
:10158800E06910B10430FFF797FA206B20B1BDE88D
:1015980010400430FFF790BA10BD00BFB000002023
:1015A800034BD86910B10430FFF786BA704700BF03
:1015B800B0000020034B186A10B10430FFF77CBA62
:1015C800704700BFB0000020034B986A10B1043088
:1015D800FFF772BA704700BFB0000020034BD86A0B
:1015E80010B10430FFF768BA704700BFB0000020A0
:1015F800034B586B10B10430FFF75EBA704700BF59
:10160800B00000200022C0E90022C0E90222704791
:10161800F8B504460E4600F1600500F1B00728460B
:101628001035FFF7EFFFBD42F9D1002320462361B3
:101638003146FFF709FF2046F8BD826810B50AB9A0
:1016480001F0AEFFBDE81040C368184708B500B9FF
:10165800FEE700F07FFB0068836E13B16030FFF790
:10166800ECFF08BDFFF7F2BF10B500B9FEE7037F36
:10167800013B072B10D8DFE803F004140F100F0FFD
:101688000F12012400F066FB0068063400EB04101A
:1016980083680BB1FFF7D1FF10BD0324F2E70424E0
:1016A800F0E70224EEE7FFF7DFBFFFF7DDBF01F049
:1016B8005BBC01F061BC00008AB0002308287CD81C
:1016C800DFE800F00513202D3A4754616E000193BE
:1016D8003B4B3C481A6B42F001021A631B6B03F048
:1016E80001030193019B0AB070470293344B3648BB
:1016F8001A6B42F002021A631B6B03F00203029397
:10170800029BF0E703932E4B30481A6B42F0040219
:101718001A631B6B03F004030393039BE3E704932F
:10172800274B2B481A6B42F008021A631B6B03F015
:1017380008030493049BD6E70593214B25481A6BAD
:1017480042F010021A631B6B03F010030593059B0C
:10175800C9E706931A4B20481A6B42F020021A6315
:101768001B6B03F020030693069BBCE70793144BFF
:101778001A481A6B42F040021A631B6B03F04003CD
:101788000793079BAFE708930D4B15481A6B42F078
:1017980080021A631B6B03F080030893089BA2E77F
:1017A8000993074B0F481A6B42F480721A631B6B3C
:1017B80003F480730993099B95E7002093E700BF22
:1017C80000380240000002400004024000080240C5
:1017D800000C0240001002400014024000180240B1
:1017E800001C02400020024008B5074900F07AFAC0
:1017F800C0F3C430012802D0022802D0FEE700203E
:1018080008BD1020FCE700BFC83B00080268094B70
:101818009A420DD103F5E2331A6A42F000521A6275
:101828001A6A22F000521A621A6C22F000521A64E4
:10183800704700BF0074004010B5094986B00446DF
:1018480000F02EFA019048B12046FFF7CDFF01467F
:1018580001A8FEF72BFE01A8FEF71AFE06B010BD80
:10186800C83B0008F8B51349134F064600F018FAAC
:10187800FFF768FD57F82030054673B9B020FFF729
:1018880016FF0C490446304600F00AFA0146204685
:10189800FFF7BEFE57F825301C601C6844B120468F
:1018A800FFF7B2FD2046B021BDE8F840FFF701BFC1
:1018B800F8BD00BF5C380008B0000020FEF746BD48
:1018C800704708B5FEF736FDFEF7CDFDFFF7F8FFC8
:1018D80008BD704784B0114B00220192196C41F089
:1018E80080511964196C01F080510191019902929B
:1018F800596C41F480415964596C01F4804102915A
:10190800029903921A6B42F480521A631B6B03F418
:1019180080530393039B04B0704700BF0038024014
:101928000C4BD3F8FC20D2015EBFD3F8FC2042F068
:101938008072C3F8FC20084B00225A601A6842F0F3
:1019480001021A6000BF00BF00BF5868B0FA80F0FB
:101958004009704700ED00E0001000E008B5FFF70F
:10196800B9FFFFF7DDFFFEF7CBFCFFF7B2FF00F092
:10197800FFFEBDE808400148FEF77ABD2C000020B4
:101988000023C0E90033C0E902337047002301286F
:1019980003F101020AD11422DBB25343054A181D90
:1019A8001044816829B11A4413691847400813463E
:1019B800EDE77047E80000200120FEF7D9BD0220BE
:1019C800FEF7D6BD0420FEF7D3BD0820FEF7D0BD34
:1019D8001020FEF7CDBD08B52020FEF7C9FD402038
:1019E800FEF7C6FD8020FEF7C3FD4FF48070FEF7BA
:1019F800BFFDBDE808404FF40070FEF7B9BD38B52B
:101A080006244FF48065A8B2FEF7B2FD013C4FEA08
:101A18004505F8D138BD0000344A104608B50623FC
:101A280000F8043BFFF7ACFF072302F11800137519
:101A3800FFF7A6FF082302F12C0082F82830FFF7F1
:101A48009FFF092302F1400082F83C30FFF798FF1E
:101A58000A2302F1540082F850301721FFF790FF53
:101A680002F1680082F86410FFF78AFF02F17C0037
:101A780082F87810FFF784FF02F1900082F88C104A
:101A8800FFF77EFF02F1A40082F8A010FFF778FFAD
:101A980002F1B80082F8B4102821FFF771FF02F1B3
:101AA800CC0082F8C810FFF76BFF02F1E00082F863
:101AB800DC10FFF765FF02F1F40082F8F010FFF781
:101AC8005FFF02F5847082F80411FFF759FF02F5F1
:101AD8008E7082F81811FFF753FFBDE8084002F531
:101AE800987082F82C11FFF74BBF00BFE800002068
:101AF80038B5054CA4F5A075143C201DFFF719FC5A
:101B0800AC42F9D138BD00BF2802002030B591FAA7
:101B1800A1F391FAA1F1B3FA83F3C4685B0003253A
:101B2800B1FA81F105FA03F3490024EA03038A4074
:101B38001A43C26030BD431C04D00C3151F80C3C30
:101B48005A1C01D100207047834201F10C01F5D1E4
:101B580001207047F8B5471C06460D4600D1FEE740
:101B680000F00F02414BC0F3031053F82240FFF777
:101B7800A3FD94FAA4F3B3FA83F3876803225B0006
:101B880002FA03F394FAA4F2B2FA82F227EA0307FC
:101B98005200032393403B4305F007018360032968
:101BA80003D8DFE801F05F612C03FEE7032394FA12
:101BB800A4F2B2FA82F206685200032707FA02F288
:101BC80026EA020694FAA4F2B2FA82F2520093408C
:101BD800013933430129036005D843682A074CBFFC
:101BE8002343A3434360C5F30112012A02D0022A0A
:101BF80018BF00222146BDE8F840FFF787BFC5F3AC
:101C080006227F2A01D10223D1E7360716D5230AF7
:101C180093FAA3F6B6FA86F6476A93FAA3F3B600E0
:101C28004FF00F0CB3FA83F30CFA06F69B0027EA81
:101C3800060602FA03F333434362E4E794FAA4F393
:101C4800B3FA83F3066A9B000F2707FA03F326EA21
:101C5800030694FAA4F3B3FA83F39B009A40324341
:101C68000262D0E70023A2E70123A0E70C360008B0
:101C7800431C06D17047834202D18968FFF76ABFC7
:101C88000C310B685A1CF6D1FEE70B685A1C01D1BF
:101C980000207047834201D1486870470C31F4E74F
:101CA800431C01D0FFF7F1BF002070474B6813B900
:101CB8004FF0FF307047834201D1086870470C31FC
:101CC800F4E708B1FFF7F2BF4FF0FF307047034663
:101CD8000868421C00D17047984201D18868704753
:101CE8000C31F5E7431C01D0FFF7F1BF70470346FD
:101CF8008B42084604D01BB100290CBF18460020AF
:101D0800704700001049D1F8883043F47003C1F8D7
:101D180088300E4B1A6842F001021A6000229A605D
:101D28001A6822F0847222F480321A60084A5A60D3
:101D38001A6822F480221A604FF43F02DA604FF0EA
:101D480000638B60704700BF00ED00E00038024080
:101D5800103000240438704703686D4A93428EB0EF
:101D68002AD1002200926B4A516C41F00101516462
:101D7800526C02F001020092009A674A93422AD1FB
:101D880000220592634A116C41F010011164126C33
:101D980002F010020592059A604A93422AD1002364
:101DA8000A935C4B5A6C42F480225A645B6C03F4CD
:101DB80080230A930A9BA9E0B3F1804F2AD100221D
:101DC8000192544A116C41F001011164126C02F045
:101DD80001020192019A524A93422AD100220692A4
:101DE8004C4A116C41F020011164126C02F020027F
:101DF8000692069A4B4A93422AD100230B93454BED
:101E08001A6C42F040021A641B6C03F040030B93F7
:101E18000B9B7BE0444A93422AD1002202923D4A1E
:101E2800116C41F002011164126C02F0020202927C
:101E3800029A3E4A93422AD100220792354A516CAF
:101E480041F002015164526C02F002020792079AB3
:101E5800374A93422AD100230C932E4B1A6C42F036
:101E680080021A641B6C03F080030C930C9B4DE0FA
:101E7800304A93422AD100220392264A116C41F03B
:101E880004011164126C02F004020392039A2A4AB4
:101E980093422BD1002208921E4A516C41F48031A2
:101EA8005164526C02F480320892089A234A934291
:101EB8002CD100230D93174B1A6C42F480721A64CC
:101EC8001B6C03F480730D930D9B1FE01C4A934217
:101ED8007FF453AF002204920E4A116C41F00801BE
:101EE8001164126C02F008020492049A154A934293
:101EF8007FF452AF00230993064B5A6C42F4003228
:101F08005A645B6C03F400330993099B0EB0704765
:101F18000000014000380240001000400048014025
:101F28000014004000180040000400400004014074
:101F3800001C004000080040004001400020004014
:101F4800000C00400044014003683B4A934215D10D
:101F58003A494A6C22F001024A64394A934215D13F
:101F680036490A6C22F010020A64364A934215D1A7
:101F780002F57042536C23F480235BE0B3F1804F89
:101F880016D12E490A6C22F001020A642E4A9342A5
:101F980016D12A490A6C22F020020A642B4A93427D
:101FA80016D102F50832136C23F04003136470470E
:101FB800274A934215D121490A6C22F002020A6489
:101FC800244A934215D11D494A6C22F002024A6400
:101FD800214A934215D102F50732136C23F080038E
:101FE800E4E71E4A934215D114490A6C22F0040210
:101FF8000A641B4A934215D110494A6C22F4803274
:102008004A64184A9342D2D102F50632136C23F47B
:102018008073CBE7144A93429FD108490A6C22F097
:1020280008020A64114A93429FD102F57442536C24
:1020380023F4003353647047000001400038024025
:102048000010004000480140001400400018004003
:102058000004004000040140001C0040000800404B
:102068000040014000200040000C004000440140B6
:10207800431C3AD0294B98423AD018D8A3F540636C
:10208800984237D00BD8A3F50063984234D003F5B3
:102098008063984232D0B0F1804F31D0FEE7204BB8
:1020A80098422FD003F5806398422DD0F6E71D4B58
:1020B80098422DD00CD8A3F56443984226D003F556
:1020C8006043984226D0A3F56443984220D0E5E7C0
:1020D800154B98421ED003F5806398421CD0A3F597
:1020E80000639842DAD1182070476FF00D007047EE
:1020F8002B207047322070471D2070471E207047E4
:102108001C20704736207047372070472D207047B5
:102118002C207047192070471A207047001800407B
:10212800001000400004014000440140431C3AD024
:102138002B4B98423AD01CD8A3F58053984237D0FD
:102148000BD8A3F50063984234D003F58063984216
:1021580032D0B0F1804F31D0FEE7224B98422FD0D9
:1021680003F5806398422DD0A3F5006398422BD0E5
:10217800F2E71D4B984229D00CD8A3F5804398422A
:1021880026D003F58063984224D0A3F5644398428F
:1021980022D0E1E7154B984220D003F5806398429E
:1021A800DAD11A2070476FF00D0070472C20704765
:1021B800322070471D2070471E2070471C20704732
:1021C800372070472B2070473620704718207047FB
:1021D8001B2070472E2070472D207047192070470C
:1021E800001C004000140040004001400044014031
:1021F80038B5FFF7B1FD04460068FFF739FFD4E9A9
:102208001212FEF7BBF82068FFF732FFFEF7E8F876
:1022180022681046FFF78AFF05461046FFF728FF99
:1022280085420BD02846D4E91212FEF7A7F8206899
:10223800FFF77CFFBDE83840FEF7D2B838BD000094
:102248002DE9F04F8A4687B091469846044618B95A
:10225800002007B0BDE8F08F8E49406DFFF720FDE4
:102268008D498346A06DFFF71BFD8C490646E06D3E
:10227800FFF716FD8A490546206EFFF711FD074650
:10228800BBF1000FE4D0A36D013301D0002EDFD0E5
:10229800E36D013301D0002DDAD0236E013301D074
:1022A800002FD5D031465846FFF721FD0346206060
:1022B80020B90146FFF71BFD034620602946184652
:1022C800FFF715FD39462060FFF711FD2060002853
:1022D800BED0744B984251D1734A536A43F01003ED
:1022E8005362536A23F01003536200230093516C26
:1022F80041F010015164526C02F010020092009AF1
:1023080025226449606D84F8653084F86420FFF7FD
:10231800AFFC1EB16049A06DFFF7AAFC2DB15F4963
:10232800E06DFFF7A5FC4FF480752FB15C49206E76
:1023380045F40075FFF79CFC94F865205B4B94F915
:102348006400C4F80C90271D43F822702368C4E980
:10235800013A109B0022C4E904380C23C4E906356D
:1023680022620121FEF70AF83846002E40F08E80DE
:10237800FEF774FDB0FA80F040096AE74C4B9842CA
:1023880017D103F5FA331A6A42F400321A621A6A4C
:1023980022F400321A62002201921A6C42F40032CE
:1023A8001A641B6C03F400330193019B262201235A
:1023B800A7E7404B984217D103F5F8331A6A42F45D
:1023C80080221A621A6A22F480221A620022029279
:1023D8001A6C42F480221A641B6C03F48023029363
:1023E800029B272202238CE7334B984217D103F52F
:1023F800F6331A6A42F400221A621A6A22F4002298
:102408001A62002203921A6C42F400221A641B6CAE
:1024180003F400230393039B3422032371E7274B20
:10242800984217D103F5F4331A6A42F480121A62FB
:102438001A6A22F480121A62002204921A6C42F478
:1024480080121A641B6C03F480130493049B3522D6
:10245800042356E71A4B98427FF4FAAE03F59233F9
:102468005A6A42F020025A625A6A22F020025A62DC
:10247800002205925A6C42F020025A645B6C03F009
:1024880020030593059B472205233AE7FEF7B7FC8F
:1024980070E700BFC037000824370008C4360008BA
:1024A800643600080010014000380240280200206D
:1024B8000044004000480040004C004000500040EC
:1024C8000014014008B5074B90F8652053F8220026
:1024D800FEF7F4FE00F02200A0F122035842584112
:1024E80008BD00BF2802002008B5074B90F86520FA
:1024F80053F82200FEF7E2FE00F02100A0F12103CC
:102508005842584108BD00BF2802002070B50E4649
:10251800054610B94FF0FF3070BDFFF7D3FF0446F2
:102528000028F7D12946012211F8663F337095F843
:102538006500034B53F82000FEF7DFFE2046EBE76B
:102548002802002038B50D460446B8B1FFF7BAFF97
:10255800A0B994F96400E564FDF750FF94F86500AC
:10256800074B04F1660153F820000122FEF7C5FE6F
:1025780094F96400BDE83840FDF732BF38BD00BFAC
:102588002802002038B515460446B8B1016590F90F
:102598006400FDF733FFE36EB4F8761094F8650035
:1025A80013FA81F1064BAAB253F82000FEF789FC12
:1025B80094F96400BDE83840FDF712BF38BD00BF8C
:1025C8002802002048B1836D013306D190F86520B8
:1025D800024B53F82200FEF741BE70472802002044
:1025E80048B1836D013306D190F86520024B53F84A
:1025F8002200FEF74BBE704728020020836C043887
:102608001847C36C0438184730B5044650F80439E5
:102618001D6815F0010585B012D0002200921A68D5
:1026280000925B680093009BFFF74CFF40BB0122C0
:1026380004F16201204605B0BDE83040FEF75DBEFA
:10264800196811F0020106D001951A6801925B68B9
:102658000193019BE8E71A6812F0040206D0029180
:102668001A6802925B680293029BDDE71968090702
:10267800DAD503921A6803925B680393039BD3E746
:1026880005B030BD08B52520FDF7DEFE024B186801
:10269800BDE80840FEF792BC2802002008B52620B5
:1026A800FDF7D2FE034B586818B1BDE80840FEF7A5
:1026B80085BC08BD2802002008B52720FDF7C4FE08
:1026C800034B986818B1BDE80840FEF777BC08BD11
:1026D8002802002008B53420FDF7B6FE024BD86862
:1026E800BDE80840FEF76ABC2802002008B535207E
:1026F800FDF7AAFE024B1869BDE80840FEF75EBC6C
:102708002802002008B54720FDF79EFE024B5869B5
:10271800BDE80840FEF752BC280200200A490346DB
:10272800086810B50344EFF30882934205D9074BB4
:102738000C221A604FF0FF3010BD054A054C121BE1
:102748009342F4D20B60F7E738000020BC04002065
:102758000000022000040000FEE70000024B1622E1
:102768001A604FF0FF307047BC040020012070470A
:1027780030B595B0102200210AA800F0B3FC14224D
:10278800002103A800F0AEFC244C00220092236C28
:1027980043F080532364236C03F080530093009B21
:1027A8001F4B01921A6842F480421A601B6803F4B6
:1027B80080430193019B01214FF480330225CDE929
:1027C80008134FF480030820CDE90E534FF4A87383
:1027D800CDE91003072308A812951393FDF7D4FE3B
:1027E80000B1FEE70F23CDE9033505904FF4A05261
:1027F8004FF48053052103A8CDE90623FEF7A0F87E
:1028080000B1FEE70290236B43F480132363236B2C
:1028180003F480130293029B15B030BD00380240C8
:1028280000700040B0F80831B0F80421981A00F0A0
:102838003F007047B0F80831B0F804219BB29342CA
:102848001ABFD0F8FC30985C4FF0FF30704790F812
:102858000631B0F80A01C0B2834227BFC3F13F0373
:10286800C018C01A00F1FF30704707B503688DF82B
:1028780007105B6801220DF10701984703B05DF866
:1028880004FB13B50DF107010446FFF73FFE88B9B5
:10289800B4F87430B4F87020013303F03F03934266
:1028A80008D0B4F87420A16E9DF8070092B288543D
:1028B800A4F8743002B010BDB0F87620816F11FA18
:1028C80082F202F03F0210B5A0F87620B0F8761038
:1028D800B0F8722089B28A421AD0B0F87640B0F8BF
:1028E8007610A4B24032121B544289B204F03F045D
:1028F80002F03F02C1F1400158BF62428A4228BF3C
:102908000A4682670349FFF73DFE4FF0FF3010BDCE
:102918000020FCE7C12800082DE9F84303680446B5
:102928009B6888461646984701232374D4F8EC30F0
:10293800B4F8067101338146C7F1400709D194F80C
:10294800113133B1002384F8113104F19400FFF7F9
:1029580039FE236820469B6898470028F9D03546F9
:10296800BD4225D84D4523D8B4F80631D4F8000126
:102978005A19402A184430D82A46414600F0F0FB3C
:102988002F46B4F806311D4405F03F05A4F806515A
:1029980004F194052846FFF7A7FD30B91649C4F895
:1029A8000C713A462846FFF7EDFD3046BDE8F8833E
:1029B8004F45236828BF4F463A4641465B68204644
:1029C8009847236820469B689847ED1BB844B4F89D
:1029D80006718146C7F14007C2E7C3F140073A468E
:1029E800414600F0BDFBD4F80001EA1B08EB0701E3
:1029F80000F0B6FBC5E700BFC1280008C0F8F030FA
:102A0800009BC0F8F430914208BF4FF0FF3100F14D
:102A18001403C0E93A21C0F8FC3000F15402002345
:102A2800A0F80831C0E94023A0F80A317047000037
:102A3800F7B54FF47A7317460022C0E901231C4BFF
:102A480003604FF0FF33C0F8EC301A4B1A4E0446BF
:102A58009C42306E0D4605D1736EC4F8EC30C4F854
:102A6800E8000AE01549FFF71BF9854215D1736E96
:102A7800C4F8EC30336EC4F8E830012F4FF0FF3360
:102A880008BFC4F8EC3000932046D4E93A214FF04F
:102A9800FF33FFF7B3FF03B0F0BD09492846FFF73E
:102AA80010F90649C4F8EC002846FFF70AF9D6E7FA
:102AB800003E000840020020383C0008C0370008EB
:102AC80024370008037C70B504460D46A3B1FDF712
:102AD8003DFC0646B4F80621B4F80A319BB29A4286
:102AE8000AD0002DF8D0FDF731FC801B8542F1D8C3
:102AF800B4F80A31A4F8063170BD0021FFF7E2BF2F
:102B0800D0F8EC30013310B504460ED10368DB6809
:102B1800984794F8113143B9012384F8113104F12D
:102B28009400BDE81040FFF75BBD10BD7FB502F013
:102B38000703023BDBB2042B144680F8122198BF2E
:102B4800204AC0F8141198BFD25C04F0300388BF43
:102B58000022302B054607D101324FF4C063082A02
:102B680009D0092A24D0FEE714F0200325D0013229
:102B78004FF48063F3E70022E87C0390A87C02907E
:102B8800C4F3C004687C019005F1940664030094C2
:102B98003046FFF755FB85F8100188B12846FFF746
:102BA800AFFF0949304604B0BDE87040FFF7CABC22
:102BB8004FF48052E0E71A46DEE7082AFBD0D2E756
:102BC80004B070BDF03D00088B28000810B504461D
:102BD800FFF796FFB4F80821B4F8043192B29A428C
:102BE8001FBFD4F8FC20D05C013303F03F0314BFAF
:102BF800A4F804314FF0FF3010BD0000024903482B
:102C08000022FFF715BF00BF00100140400200205E
:102C180070B505460C46084649B1FDF7B1FA2B6870
:102C28000246214628465B68BDE87040184770BDDB
:102C380008B5FFF7EDFF08BD03681B6818470000DB
:102C480008B50249FFF7E4FF08BD00BF07360008D2
:102C580038B50546FFF7DCFF04462846FFF7F0FFC6
:102C6800204438BDFFF7F4BF30B58BB00023012AEC
:102C78000C468DF8243098BF0A2209A92546B4FBD2
:102C8800F2F404FB125303F0FF03092B94BF303313
:102C98003733DBB2AA4201F8013DEFD9FFF7B8FF9D
:102CA8000BB030BD2DE9F04107460E4614462AB94F
:102CB8000368BDE8F0411B68C9B218470A2A05D164
:102CC800002905DBBDE8F041FFF7CEBFD2B2F9E736
:102CD8002D21FFF7B1FF2246054671423846FFF71E
:102CE800C3FF2844BDE8F081FFF7DCBF10B50446F8
:102CF80000F018F9E060236820465B6998470028CF
:102D080008DA00F00FF9E368C01AA3689842F2D312
:102D18004FF0FF3010BDF8B507460D468E180C462B
:102D2800B44201D1601BF8BD3846FFF7DFFF431CF2
:102D3800F8D004F8010BF3E72DE9F041074688467F
:102D480016461D4673B100243846FFF7CFFF431CD3
:102D580005D0404503D030550134A542F4D1204672
:102D6800BDE8F0811C46FAE708B50320FDF7F4FA40
:102D7800BDE8084000F0F4B808B5AFF30080FDF7EF
:102D880041FAFDF755FA00F0DDF8FAE7DFF834D03C
:102D9800FEF7B8FF0C480D490D4A002302E0D4584D
:102DA800C4500433C4188C42F9D30A4A0A4C00238D
:102DB80001E013600432A242FBD300F0ABF9FFF745
:102DC800DBFF704700000220000000208C0000207C
:102DD800443E00088C000020C4040020FEE70000E8
:102DE800C3B26D2B2DE9F0410D462AD82C4A52F872
:102DF800233000F4E0641C43621C4ED0294EC4F317
:102E0800031704F00F0856F8273023FA08F3DB07F6
:102E180010D525492046FEF78EFE18B32046FEF74A
:102E28000BFD56F82730012202FA08F223EA0203C2
:102E380046F82730052D1FD8DFE805F01F2B25277A
:102E4800292D00F0C002C02A27D1D22B25D8174B34
:102E580000F03F0200F4E06453F82220104B53F8CE
:102E68002230C8E712492046FEF765FE0028D8D070
:102E78002046FEF7F7FCD4E7FEE700212046BDE830
:102E8800F041FEF767BE1021F8E72021F6E703219D
:102E9800F4E70121F2E70921F0E7BDE8F08100BF7E
:102EA800383C000858030020C83B0008EC3B0008E9
:102EB8005C380008C3B26D2B19D8164A52F8233073
:102EC80000F4E0601843431C10D0C0F30313082B30
:102ED80098BF114A00F00F0098BF52F823200F4BFB
:102EE80088BF002253F8203091B19361704700F0F9
:102EF800C002C02AFAD1D22BF8D8094B00F03F0201
:102F080000F4E06053F82220024B53F82230D9E74E
:102F18001B04EAE7383C0008080000200C360008CB
:102F2800EC3B0008FEF7CABC38B5044648B1FEF7CA
:102F3800C5FC054600F016F8FEF7C0FC431BA3428B
:102F4800F8D338BD08B5044B2BB10448FFF76AFC29
:102F580008B1AFF3008008BD000000004002002067
:102F6800FEF7FCBC70470000024B0146186800F0F1
:102F78002DB800BF3C000020024B0146186800F045
:102F8800FDB800BF3C00002070B50F4E0C463168FC
:102F9800054611B900F0AEF830602146284600F029
:102FA800A9F8431C03D14FF0FF34204670BDC41C60
:102FB80024F00304A042F8D0211A284600F09AF819
:102FC8000130F2D1EFE700BF7C0300202DE9F84380
:102FD800CD1C25F0030508350C2D38BF0C25002D18
:102FE800064601DBA94204D90C2333600020BDE862
:102FF800F883DFF8D48000F069F8D8F800301C4670
:1030080044BB29463046FFF7BFFF431C044658D14E
:10301800D8F800402746002F43D1002C4BD0236816
:103028003946304604EB030900F064F8814542D183
:1030380021686D1A29463046FFF7A6FF01303AD0BD
:1030480023682B442360D8F800305A6862BBC8F85C
:1030580000700FE02268521B20D40B2A17D961197F
:10306800A342256018BF5960636808BFC8F80010FC
:1030780062514B60304600F02FF804F10B00231D1D
:1030880020F00700C21A1CBF1B1AA350AFE76268E2
:10309800A3420CBFC8F800205A60EBE723466468D7
:1030A800AEE73C467F68B6E71A465B68A342FBD1A9
:1030B80000235360DEE70C233360304600F00CF841
:1030C80094E70560D6E700BF80030020014800F0C0
:1030D80045B800BFC0040020014800F040B800BF58
:1030E800C004002002440346934200D1704703F80D
:1030F800011BF9E738B5064D0023044608462B6046
:10310800FFF70CFB431C02D12B6803B1236038BDC9
:10311800BC04002070B50D4B0D4D5B1B9C100026A8
:10312800A64209D100F040FA0A4D0B4B5B1B9C10DC
:103138000026A64205D170BD55F8043B98470136D4
:10314800EEE755F8043B98470136F2E72C3E0008B5
:103158002C3E00082C3E00083C3E00087047704793
:103168000A44914200F1FF3300D1704710B511F8BD
:10317800014B03F8014F9142F9D110BD38B505460E
:10318800002941D051F8043C0C1F002BB8BFE418AB
:10319800FFF79CFF1D4A136833B963601460284623
:1031A800BDE83840FFF798BFA34208D92068211826
:1031B8008B4201BF19685B6809182160EDE71A4660
:1031C8005B680BB1A342FAD911685018A0420BD121
:1031D80020680144501883421160E0D118685B6888
:1031E800536008441060DAE702D90C232B60D6E755
:1031F800206821188B4204BF19685B68636004BFAC
:10320800091821605460CAE738BD00BF8003002058
:1032180008B5062000F02CF80120FFF79DFA1F29B9
:1032280038B505460C4604D9162303604FF0FF3025
:1032380038BDC26B12B152F821304BB9284600F0A4
:1032480031F8224601462846BDE8384000F018B853
:10325800012B0AD0591C03D1162303600120E7E78C
:10326800002142F82410204698470020E0E700009B
:10327800024B01461868FFF7D2BF00BF3C00002090
:1032880038B5074D00230446084611462B60FFF762
:1032980065FA431C02D12B6803B1236038BD00BF17
:1032A800BC040020FFF762BA2DE9F047089D0F46DD
:1032B80004468C46002B48D18A42164661D9B2FA98
:1032C80082F34BB1C3F1200201FA03FC20FA02F2A7
:1032D8009E4042EA0C0C9C404FEA164EB7B2BCFB2B
:1032E800FEF1220C0EFB11CC42EA0C4201FB07F066
:1032F800904209D9B21801F1FF3C80F0EE8090426B
:1033080040F2EB8002393244121AA4B2B2FBFEF04A
:103318000EFB102244EA024400FB07F7A74209D932
:10332800341900F1FF3280F0DA80A74240F2D780EA
:103338003444023840EA0140E41B00211DB1DC405E
:103348000023C5E90043BDE8F0878B4206D90DB1DB
:10335800C5E9000100210846BDE8F087B3FA83F10A
:10336800002948D1BB4202D3824200F20781841A65
:1033780067EB030201209446002DE4D0C5E9004C18
:10338800E1E7002A00F09280B2FA82F3002B40F0C5
:10339800A8808A1A4FEA164E1FFA86FC0121200CD3
:1033A800B2FBFEF70EFB172240EA02420CFB07F0C5
:1033B800904207D9B21807F1FF3802D2904200F2C2
:1033C800E2804746121AA4B2B2FBFEF00EFB1022AE
:1033D80044EA02440CFB00FCA44507D9341900F167
:1033E800FF3202D2A44500F2CB801046A4EB0C04B5
:1033F80040EA0740A2E7C1F120068B4022FA06FC0A
:103408004CEA030C07FA01F420FA06F3F7404FEAF6
:103418001C49234300FA01F81FFA8CFEB7FBF9F0A8
:103428001C0C09FB107744EA074400FB0EF7A7427F
:1034380002FA01F20AD91CEB040400F1FF3A80F009
:103448009B80A74240F2988002386444E41B9FB2F4
:10345800B4FBF9F309FB134447EA044403FB0EFEEB
:10346800A64509D91CEB040403F1FF3780F08280DC
:10347800A6457FD9023B644443EA0040A4EB0E040E
:10348800A0FB02E7BC427346B94663D360D05DB186
:10349800B8EB030264EB090404FA06F622FA01F316
:1034A8001E43CC40C5E9006400214CE76208480887
:1034B80042EAC1710B0C43EA00438AB242EA034272
:1034C800B3FBF6F1E407B4463746B6461F23B0FB14
:1034D800F6F0D21B41EA004161E7614614E7104665
:1034E80028E7C3F1200120FA01F29E4027FA01F1F2
:1034F8009F403A434FEA164E1FFA86FCB1FBFEF78F
:103508000EFB1710110C41EA004107FB0CF8884527
:1035180004FA03F43AD9711807F1FF3001D288454B
:103528001FD8A1EB0801B1FBFEF808FB0CF70EFB56
:10353800181192B242EA0142BA422FD2B21808F1E7
:10354800FF31C6D2BA42C4D2A8F102013244C0E760
:10355800F0459CD2BEEB020367EB0C070138B94675
:1035680095E7A6EB08084144B81EB1FBFEF808FB36
:103578000CF7DCE73B467FE7504667E70846FBE683
:103588003444023832E7023F32441BE7A1EB08011A
:103598003846B1FBFEF808FB0CF7C8E7414698E748
:1035A80008B5FFF735FE0000F8B500BFF8BC08BC49
:1035B8009E467047F8B500BFF8BC08BC9E467047E9
:1035C8003D3D3D2041726475696E6F20426F6172A6
:1035D800642054657374203D3D3D007469636B201D
:1035E80000204C45443D4F4E00204C45443D4F463D
:1035F800460041726475696E6F20646F6E65000DD8
:103608000A000000010000000200000004000000A1
:10361800080000001000000020000000400000002A
:10362800800000000001000000020000000400000B
:10363800000800000010000000200000004000000A
:1036480000800000000000000102030400000000E8
:10365800000000000102030406070809000000003A
:1036680000440040120700000B0000000010014059
:10367800120700001D00000000480040120700006B
:103688003300000000440040120700003B00000027
:1036980000480040120700006D00000000140140BF
:1036A800120800006F00000000140140120800001A
:1036B800FFFFFFFF00000000000000000100000005
:1036C80000440040120700000C00000000100140F8
:1036D800120700001E00000000480040120700000A
:1036E8003400000000440040120700003C000000C5
:1036F8000048004012070000680000000014014064
:10370800120800006C0000000014014012080000BC
:10371800FFFFFFFF000000000000000001000000A4
:10372800004C004012080000030000000044004064
:10373800120700000A0000000010014012070000F4
:103748001700000000100140120700001B000000D5
:103758000048004012070000270000000014014044
:10376800120800002B000000004C00401208000066
:103778002B01000000480040120700003200000042
:1037880000500040120800003600000000440040CD
:10379800120700003900000000480040120700002E
:1037A800690000000014014012080000FFFFFFFF3D
:1037B800000000000000000000000000004C004075
:1037C8001208000002000000004400401207000038
:1037D8000900000000100140120700001600000058
:1037E80000100140120700001A00000000480040C5
:1037F8001207000026000000001401401208000013
:103808002A000000004C0040120800002A010000B5
:1038180000480040120700002C0000000050004043
:1038280012080000350000000044004012070000A4
:103838003800000000480040120700006E00000039
:103848000014014012080000FFFFFFFF0000000005
:10385800000000000000000000000040128100008D
:1038680000010000000C004012820000010000006E
:10387800000000401201010001010000000C00409E
:103888001202010002000000000000401281010045
:1038980002010000000C0040128201000202000038
:1038A80000400140128300000300000000000040B7
:1038B8001201020003010000000C00401202020085
:1038C800030200000040014012030100050000004F
:1038D80000000040128100000501000000040140C2
:1038E800128310000600000000040040128200004D
:1038F80006010000001C00401289000007000000BB
:10390800000001401281100007010000000400407F
:103918001202010007020000000401401283100097
:103928000703000000200040128900000800000082
:103938000000014012810000090000000000014061
:10394800120101000A00000000000140128101007C
:103958000B00000000000140120102000F000000EF
:10396800000000401281000010000000000001402B
:103978001201110010010000000400401282010031
:1039880010020000000401401203110011000000A1
:1039980000000140128111001101000000040040E4
:1039A80012020200110200000004014012831100FB
:1039B8001300000000000040120101001400000084
:1039C80000040040128200001500000000040040BE
:1039D80012020100160000000008004012820000D8
:1039E8001700000000080040120201001800000043
:1039F8000008004012820100180100000044014044
:103A080012830000190000000008004012020200A2
:103A18001901000000480140128300001A0000004C
:103A280000000040128101001B000000000000405F
:103A3800120102001D000000000001401281100068
:103A48001E00000000000140120111001E010000CC
:103A580000040140120311001E020000001800407B
:103A6800128900001F0000000000014012811100AF
:103A78001F01000000040140128311001F02000012
:103A88000018004012090100260000000004004050
:103A98001282000026010000000401401283000089
:103AA8002700000000040040120201002701000066
:103AB8000004014012030100280000000004004037
:103AC8001282010028010000000401401283010055
:103AD8002900000000040040120202002901000031
:103AE80000040140120302003C00000000080040EE
:103AF800128200003D000000000800401202010090
:103B08003E00000000080040128201003F00000053
:103B18000008004012020200450000000040014079
:103B2800128300004600000000400140120301001B
:103B38004800000000000140128110004900000008
:103B480000000140128100004A000000000001400E
:103B5800120111004B000000000001401201010099
:103B68004C00000000000140128111004D000000CF
:103B780000000140128101004E00000000000140D9
:103B880012010200560000000044014012830000A8
:103B98005700000000480140128300005800000050
:103BA800001C00401289000059000000002000405D
:103BB80012890000FFFFFFFF000000000000000066
:103BC80004000000007400400380000005000000AD
:103BD8000074004003000100FFFFFFFF0000000029
:103BE800000000004B0000004C0000004D000000E9
:103BF8004E0000004F00000050000000510000007F
:103C0800520000005300000054000000550000005E
:103C1800560000005700000058000000590000003E
:103C28005A0000005B0000005C0000005D0000001E
:103C38001C0000001D0000001E0000001F00000006
:103C480038000000390000003A0000003B00000086
:103C58003C0000003D0000003E0000003F00000066
:103C680062000000630000006400000065000000BE
:103C780066000000670000006800000026000000E1
:103C880027000000280000002900000008000000AC
:103C9800090000000A0000000B0000000C000000F2
:103CA8000D0000000E0000000F0000002A000000B8
:103CB8002B0000002C000000300000003100000044
:103CC800320000003300000034000000350000001E
:103CD8003600000037000000690000006A0000009C
:103CE8006B0000006C0000006D0000006E0000001A
:103CF8006F00000013000000140000001500000011
:103D0800160000001700000018000000190000004D
:103D18001A0000001B0000004E0000004F000000C9
:103D28004C0000004D0000004A0000004B0000005D
:103D38004800000049000000610000004700000042
:103D48005F000000600000005D0000005E000000F1
:103D58005B0000005C000000120000001100000081
:103D680025000000100000000700000024000000EB
:103D78000500000006000000030000000400000029
:103D88000100000002000000230000000000000005
:103D98002100000022000000200000005800000060
:103DA8005600000057000000590000005A000000AB
:103DB80054000000550000005200000053000000AD
:103DC8005000000051000000460000002D000000D7
:103DD80044000000450000004200000043000000CD
:103DE8004000000041000000060007000800000035
:103DF80000000000000000007328000821290008C6
:103E080057280008032B00082D280008D52B000888
:0C3E18003D2800081F2D0008412D000867
:083E240064C3FF7F01000000F0
:103E2C00712D0008F1010008211A0008052C00086A
:083E3C00CD010008F91A00088D
:103E440001000000100000000000024000040240D5
:103E540000080240000C024000100240001402401E
:103E640000180240001C02400020024000300240C2
:103E7400000000000024F400C804002040000020DA
:103E84000000000084030020EC0300205404002000
:103E9400000000000000000000000000000000001E
:103EA400000000000000000000000000000000000E
:103EB40000000000000000000000000000000000FE
:0C3EC400000000000000000000000000F2
:0400000508002D952D
:00000001FF
