:020000040800F2
:1000000000000220291A0008791A0008791A00084D
:10001000791A0008791A0008791A0008000000000F
:10002000000000000000000000000000791A000835
:10003000791A000800000000791A0008D715000896
:10004000791A0008791A0008791A0008791A000844
:10005000791A0008791A00082116000827160008E6
:100060002D1600083316000839160008791A000802
:10007000791A0008791A0008791A0008791A000814
:10008000791A0008791A0008791A0008791A000804
:10009000791A0008791A0008791A00083F16000832
:1000A0000D15000825140008211500084914000842
:1000B0005D1400087114000885140008791A0008FE
:1000C000791A0008791A0008791A0008791A0008C4
:1000D000791A0008551900086D19000889190008D7
:1000E00067160008791A0008791A00083515000803
:1000F000D514000849150008F9140008791A0008F9
:10010000791A0008791A000899140008791A000869
:10011000A5190008BD190008AD140008C114000895
:1001200039030008791A0008791A0008791A0008BA
:10013000791A0008791A0008791A0008791A000853
:10014000791A0008791A0008791A0008791A000843
:10015000791A0008791A0008791A0008D5190008D8
:10016000791A0008791A0008791A0008791A000823
:10017000791A0008791A0008791A000800000000AE
:08018000791A0008791A000841
:1001880010B5054C237833B9044B13B10448AFF3C9
:1001980000800123237010BD5400002000000000DF
:1001A800DC1F000808B5034B1BB103490348AFF334
:1001B800008008BD0000000058000020DC1F000877
:1001C800024B1A681206FCD55860704700100140AF
:1001D80008B5411E11F8010F00B908BDFFF7F0FF7F
:1001E800F8E730B585B000238DF80F3001A90B234F
:1001F8000A25B0FBF5F4013B05FB140230325A54D2
:100208000246092A2046F4D8C818FFF7E1FF05B0CE
:1002180030BD0000024AD2F81434DB07FBD5704722
:1002280000500040024AD2F814349B07FBD57047AF
:1002380000500040024AD2F814345B06FBD57047E0
:100248000050004007B51549D1F8003443F48073D5
:10025800C1F80034FFF7DEFFA023C1F81034FFF720
:10026800E1FFD1F818340193019BFFF7E3FF102356
:10027800C1F81034FFF7DEFFC1F81004FFF7DAFF0A
:10028800D1F8003443F40073C1F80034D1F81404F1
:1002980040F3402003B05DF804FB00BF005000406D
:1002A80013B5214CD4F8003443F48073C4F80034F7
:1002B800FFF7B0FFA023C4F81034FFF7B3FFD4F85A
:1002C80018340193019BFFF7B5FFC4F81004FFF73A
:1002D800B1FFD4F8003443F48073C4F80034FFF756
:1002E80099FFA123C4F81034FFF79CFFD4F8003419
:1002F80023F48063C4F80034D4F818340093009BC6
:10030800D4F814349B06FBD5D4F810340B70D4F809
:10031800003443F40073C4F80034D4F8140440F3F0
:10032800402002B010BD00BF0050004070470000E0
:10033800034B01221A60034B1022C3F808247047AC
:10034800700000200060024070B5BF4CBF48D4F870
:10035800303843F001038CB0C4F83038D4F844384E
:1003680043F01003C4F84438B94B1A6822F47012E9
:100378001A601A6842F420121A605A6A42F4EE624D
:100388005A62A3F570434FF4B6729A6042F20C02B7
:10039800DA60D4F8303843F00303C4F83038D4F8BE
:1003A800403843F4001343F00103C4F84038D4F84C
:1003B800443843F48053C4F84438D4F8303843F40C
:1003C8008003C4F83038FFF703FFD4F800380DF184
:1003D8001705013325F00F0540F0BF829D48FFF750
:1003E800F7FE9D48FFF7F4FE0A20FFF7E9FE9B4A57
:1003F800136801331360944BD3F80838082B40F086
:10040800B7829448FFF7E4FE9548FFF7E1FE0A201B
:10041800FFF7D6FE914A1368013313604FF0E023CB
:100428004FF47A725A6101221A619A690023019382
:10043800019B632B40F3A7824FF0E0239B699A420C
:1004480000F0E2828348FFF7C3FE8648FFF7C0FE4C
:100458000A20FFF7B5FE814A1368013313607C4B0D
:100468001A6822F47C421A601A6842F428421A6018
:100478001A6A42F0AA4242F4A0021A62A3F5504353
:1004880040F247321A60A522DA609B68DC0740F127
:10049800C6827048FFF79CFE7348FFF799FE0A2052
:1004A800FFF78EFE6D4A1368013313606F4B5A22B3
:1004B800DA609A689B68D80740F1BC826548FFF704
:1004C80087FE6B48FFF784FE0A20FFF779FE634A30
:1004D8001368013313605E4BD3F8002422F4704292
:1004E800C3F80024D3F8002442F42042C3F80024BF
:1004F800D3F8202442F08842C3F82024A3F5D83347
:1005080048F20102C3F800244222C3F81024D3F8A9
:100518001434002B40F099824E48FFF759FE554895
:10052800FFF756FE0A20FFF74BFE4C4A13680133CB
:100538001360514BD3F81834002B40F09182454892
:10054800FFF746FE4D48FFF743FE0A20FFF738FE47
:10055800424A136801331360474B48F20102C3F85B
:100568000024AB20FFF76EFE002840F08482394853
:10057800FFF72EFE4248FFF72BFE0A20FFF720FE6A
:10058800364A1368013313600DF103011020FFF799
:1005980087FE002840F07A822E48FFF719FE394876
:1005A800FFF716FE0A20FFF70BFE2C4A13680133EB
:1005B80013609DF80330AB2B40F073822548FFF79A
:1005C80007FE3148FFF704FE0A20FFF7F9FD234A2A
:1005D800136801331360CD20FFF734FE002840F084
:1005E8006B821C48FFF7F4FD2848FFF7F1FD0A204D
:1005F800FFF7E6FD194A1368013313600DF1030193
:100608001020FFF74DFE002840F061821148FFF7E7
:10061800DFFD1F48FFF7DCFD0A20FFF7D1FD0F4A79
:100628001368013313609DF80330CD2B40F05A82D4
:100638000848FFF7CDFD1748FFF7CAFD0A20FFF766
:10064800BFFD064A28E000BF003002400420000831
:10065800000002401D200008252000087800002026
:100668003F2000085020000870200008003001409A
:100678007D2000089020000800500040A9200008B4
:10068800C2200008D7200008EB2000080421000839
:100698001D210008352100081368013313600DF18E
:1006A80003010020FFF7FCFD002840F02682B74830
:1006B800FFF78EFDB648FFF78BFD0A20FFF780FD98
:1006C800B44A1368013313609DF80330FF2B40F0E0
:1006D8001F82AE48FFF77CFDAF48FFF779FD0A207F
:1006E800FFF76EFDAB4A136801331360AB4B0FCBBA
:1006F80005F1100484E80F0010220021284601F0BB
:10070800DFFBA74B0422C3F81844C3F81C54C3F8F2
:10071800142444F68162C3F8102400220192019A3D
:10072800632A40F30082D3F81434002B40F0FE8192
:100738009648FFF74DFD9B48FFF74AFD0A20FFF753
:100748003FFD944A1368013313602A68964B9A4216
:1007580040F0F7818D48FFF73BFD9448FFF738FDDF
:100768000A20FFF72DFD8B4A1368013313606A686E
:100778008F4B9A4240F0F0818448FFF729FD8D485D
:10078800FFF726FD0A20FFF71BFD824A13688A4EF1
:1007980001331360AB68B34240F0E9817B48FFF74F
:1007A80017FD8648FFF714FD0A20FFF709FD794A6F
:1007B800136801331360EA68814B9A4240F0E28182
:1007C8007248FFF705FD7F48FFF702FD0A20FFF793
:1007D800F7FC704A136801331360714BD3F8003487
:1007E800002B00F0DA816948FFF7F2FC7648FFF742
:1007F800EFFC0A20FFF7E4FC664A13680133136034
:10080800674BD3F80034D90640F1D2815F48FFF72F
:10081800DFFC6E48FFF7DCFC0A20FFF7D1FC5D4ADD
:100828001368013313605E4BD3F800341A0740F1A4
:10083800CA815648FFF7CCFC6548FFF7C9FC0A2077
:10084800FFF7BEFC534A136801331360544B102260
:10085800C3F80824D3F80034DB0600F1BF814B4805
:10086800FFF7B6FC5B48FFF7B3FC0A20FFF7A8FCCC
:10087800484A136801331360574A4FF0E0200021BB
:100888001160D0F8043143F08073C0F80431444B50
:100898000420C3F81844C3F81C54C3F8140444F6DD
:1008A800B160C3F810040191019BB3F57A7FC0F2DF
:1008B800A0811368374D494C002B00F09E813348C6
:1008C800FFF786FC4648FFF783FC0A20FFF778FC11
:1008D8002B6801332B604FF020431B68002B40F03E
:1008E80099812A48FFF774FC3E48FFF771FC0A20FB
:1008F800FFF766FC2B6801332B604FF0C0431E6086
:100908001A68002A00F093811B68B34200F08F81B7
:1009180026683548FFF75CFC3448FFF759FC013678
:100928000A20FFF74DFC26603148FFF751FC31489B
:10093800FFF74EFC2868FFF754FC0A20FFF740FC3D
:100948002D48FFF745FC2068FFF74BFC0A20FFF70E
:1009580037FC2A48FFF73CFCFEE72348FFF738FC42
:100968002748FFF735FC0A20FFF72AFC1B4A3FE51A
:100978001D48FFF72DFC2348FFF72AFC0A20FFF744
:100988001FFC164A47E5019B013350E51D2000086E
:1009980058210008780000206F210008F41F000883
:1009A8000060024095210008EFBEADDEA0210008DE
:1009B800BEBAFECAAE21000878563412BC2100081F
:1009C80021436587CA210008D8210008F5210008BD
:1009D8000722000819220008700000207400002077
:1009E800392200084A220008372000085622000849
:1009F80064220008772200087E2200088522000869
:100A0800252000083F2000088F48FFF7E1FB8F48AA
:100A1800FFF7DEFB0A20FFF7D3FB8D4A1CE58A4867
:100A2800FFF7D6FB8B48FFF7D3FB0A20FFF7C8FB7D
:100A3800874A38E58448FFF7CBFB8748FFF7C8FBB0
:100A48000A20FFF7BDFB824A42E57F48FFF7C0FB5B
:100A58008248FFF7BDFB0A20FFF7B2FB7C4A65E539
:100A68007948FFF7B5FB7E48FFF7B2FB0A20FFF78E
:100A7800A7FB774A6DE57448FFF7AAFB7948FFF7AB
:100A8800A7FB0A20FFF79CFB714A7AE56E48FFF73F
:100A98009FFB7548FFF79CFB0A20FFF791FB6C4A08
:100AA80084E56948FFF794FB7048FFF791FB0A203B
:100AB800FFF786FB664A8BE56348FFF789FB6C48BE
:100AC800FFF786FB0A20FFF77BFB614A93E55E4848
:100AD800FFF77EFB6748FFF77BFB0A20FFF770FBF9
:100AE8005B4A9DE55848FFF773FB6348FFF770FBC7
:100AF8000A20FFF765FB564ACEE55348FFF768FB27
:100B08005E48FFF765FB0A20FFF75AFB504AD8E515
:100B18004D48FFF75DFB5A48FFF75AFB0A20FFF7DD
:100B28004FFB4B4ADFE5019A0132F7E54648FFF7EC
:100B38004FFB5448FFF74CFB0A20FFF741FB444AA0
:100B480000E64148FFF744FB4F48FFF741FB0A2006
:100B5800FFF736FB3E4A07E63B48FFF739FB4B48B1
:100B6800FFF736FB0A20FFF72BFB394A0EE636481B
:100B7800FFF72EFB4648FFF72BFB0A20FFF720FB69
:100B8800334A15E63048FFF723FB4248FFF720FBBE
:100B98000A20FFF715FB2E4A1CE62B48FFF718FB27
:100BA8003D48FFF715FB0A20FFF70AFB284A24E611
:100BB8002548FFF70DFB3948FFF70AFB0A20FFF726
:100BC800FFFA234A2CE62048FFF702FB3448FFF7D8
:100BD800FFFA0A20FFF7F4FA1D4A34E61A48FFF72D
:100BE800F7FA3048FFF7F4FA0A20FFF7E9FA184A4B
:100BF8003FE6019B0133019356E61348FFF7E8FAF5
:100C08002948FFF7E5FA0A20FFF7DAFA23680133E3
:100C1800236060E60C48FFF7DBFA2448FFF7D8FAB0
:100C28000A20FFF7CDFA23680133236065E62048E0
:100C3800FFF7CEFA1F48FFF7CBFA0A20FFF7C0FAF2
:100C48002B6801332B606FE637200008502000081E
:100C580074000020702000087D2000089020000803
:100C6800A9200008C2200008D7200008EB200008AF
:100C7800042100081D21000835210008582100081A
:100C88006F21000895210008A0210008AE21000866
:100C9800BC210008CA210008D8210008F521000855
:100CA8000722000819220008392200084A220008F1
:100CB8001D2000085622000870470000034A044B14
:100CC80011681B780B441360704700BF7C0000203C
:100CD80000000020014B1868704700BF7C0000200E
:100CE8000749CA6822F4E0620302120403F4E063CD
:100CF800120C134343F0BF6343F40033CB607047D7
:100D080000ED00E0002807DB044A4109012300F058
:100D18001F00834042F82130704700BF00E100E027
:100D280000280CDB4309064900F01F00203301228C
:100D3800824041F82320BFF34F8FBFF36F8F704776
:100D480000E100E0002808DB4309044900F01F0027
:100D580001226033824041F82320704700E100E01F
:100D6800704708B5FFF7FCFF08BD70B50446866DEF
:100D7800FFF7B0FF94F83530022B054606D08023E4
:100D880063650120002384F8343070BD23681A6835
:100D980022F016021A605A6922F080025A61226C07
:100DA8000AB9A26C1AB11A6822F008021A601A6805
:100DB80022F001021A602368186810F0010007D1B8
:100DC800E26D3F239340B360012384F83530D9E7BF
:100DD800FFF780FF401B0528EDD92023032063651A
:100DE80084F83500CEE790F83530022B03D0802305
:100DF8004365012070470268052380F83530136881
:100E080023F001031360002070470000044A516971
:100E1800014208B502D0506100F0E8FB08BD00BFF0
:100E2800003C014070477047036870B5DD681E6973
:100E3800B10704460DD5AA070BD56FF002021A6157
:100E4800012202779B699B0769D000F0BBFB002356
:100E58002377710710D56A070ED523686FF004024F
:100E68001A61022222779B6913F4407F20465CD0E6
:100E780000F0A8FB0023237733070FD528070DD5EB
:100E880023686FF008021A6104222277DB69990748
:100E9800204650D000F096FB00232377F20610D5A9
:100EA800EB060ED523686FF010021A61082222772C
:100EB800DB6913F4407F204643D000F083FB002316
:100EC8002377F00708D5E90706D523686FF00102F4
:100ED8001A61204600F053FB320608D52B0606D5CA
:100EE80023686FF080021A61204600F032F870061D
:100EF80008D5690606D523686FF040021A612046B6
:100F0800FFF791FFB20622D5AB0620D523686FF014
:100F1800200220461A61BDE8704000F019B800F0C0
:100F28004FFB2046FFF77EFF91E700F049FB204684
:100F3800FFF778FF9EE700F043FB2046FFF772FFBC
:100F4800AAE700F03DFB2046FFF76CFFB7E770BD4E
:100F580070477047026802F10C0353E8003F23F41E
:100F680090730C3242E8003102680029F2D102F194
:100F7800140353E8003F23F0010302F1140C4CE87A
:100F880000310029F3D1036B012B0BD102F10C03C3
:100F980053E8003F23F0100302F10C0C4CE8003139
:100FA8000029F3D1202380F84230002303637047DF
:100FB80090F84130202B10D189B182B1C2840162EE
:100FC8008284016800232122436480F84120CA6892
:100FD80042F08002CA60184670470220704701201C
:100FE800704708B5806B0023C38500F071FC08BD0D
:100FF800704790F84230222B07B542D181680268C9
:10100800836AB1F5805F3FD1016900293FD15268F9
:10101800C2F3080223F8022B8362C38D013B9BB203
:10102800C385002B2DD10268D16821F02001D16041
:10103800D16821F48071D160516921F001015161B9
:10104800202280F842204363026B012A026828D1DB
:10105800036302F10C0353E8003F23F0100302F18D
:101068000C0C4CE800310029F3D11368DB0605D5D8
:1010780001911368019353680193019B818DFFF7D8
:10108800B7FF03B05DF804FB39B9016929B95268A3
:10109800D2B21A70836A0133BEE7526802F07F0247
:1010A800F7E700F00FFCECE703681A6873B516075A
:1010B800D9685D69044608D1960668D58D0666D557
:1010C80002B0BDE87040FFF794BF05F0010001F4DD
:1010D800907505435BD0D60705D5CD0542BF636C37
:1010E80043F001036364530704D518B1636C43F0FC
:1010F80002036364960704D518B1636C43F00403D4
:101108006364150707D501F0200303431EBF636C12
:1011180043F008036364636C002B32D0920604D555
:101128008B0602D52046FFF764FF26687369626C58
:1011380003F0400302F0080253EA0205204622D0D9
:10114800FFF708FF73695E0618D5226802F11403D9
:1011580053E8003F23F04003143242E800310029ED
:10116800F3D1E06B50B1774B0365FFF73CFE40B11C
:10117800E06B036D02B0BDE870401847204600F0F0
:10118800A7FB02B070BD00F0A3FB6564F9E7206B14
:10119800012840F09B80D50640F19880C80640F1B0
:1011A8009580002201921A6801925A680192019A68
:1011B8005A69A18D520656D5E06B0268526892B200
:1011C800002A47D0914245D9E285C269B2F5807FAD
:1011D80036D003F10C0252E8002F22F4807203F19A
:1011E8000C0040E800210029F3D103F1140252E871
:1011F800002F22F0010203F1140040E80021002929
:10120800F3D103F1140252E8002F22F0400203F157
:10121800140040E800210029F3D1202284F842205C
:10122800216303F10C0252E8002F22F0100203F1AF
:101238000C0040E800210029F3D1E06BFFF795FD91
:1012480002236363E38DA18DC91A89B22046FFF793
:10125800CFFE96E7914294D1C369B3F5807F90D1D0
:1012680002236363F2E7E28DE08D80B292B2002838
:1012780087D0891A89B2002983D003F10C0252E879
:10128800002F22F4907203F10C0545E80020002895
:10129800F3D103F1140252E8002F22F0010203F106
:1012A800140545E800200028F3D1202284F84220C4
:1012B800206303F10C0252E8002F22F0100203F120
:1012C8000C0545E800200028F3D1C9E7160628D503
:1012D8000D0626D594F84120212A7FF452AFA16843
:1012E800226AB1F5805F17D12169A9B932F8021BCA
:1012F800C1F3080159602262E28C013A92B2E28499
:10130800002A7FF43EAFDA6822F08002DA60DA68F9
:1013180042F04002DA6034E7511C216212785A60C8
:10132800EAE750067FF52DAF4A067FF52AAFDA685F
:1013380022F04002DA60202384F84130204600F091
:10134800C4FA1EE7EB0F000890F84030012B11D0CB
:101358000268242380F84130D36823F00C0343F05B
:101368000803D360202380F84130002380F8403000
:10137800184670470220704790F84030012B11D072
:101388000268242380F84130D36823F00C0343F02B
:101398000403D360202380F84130002380F84030D4
:1013A800184670470220704790F8412090F8420094
:1013B80010437047C2850023828502694364222353
:1013C80080F84230816203681AB1DA6842F48072A8
:1013D800DA605A6942F001025A61DA6842F0200282
:1013E800DA600020704770B590F84260202E07D16F
:1013F80041B13AB100240463FFF7DCFF204670BD19
:101408000220FCE70120FAE7836810B5044613B10F
:10141800032201469847204610BD000010B5074C2E
:10142800206810B10430FFF7FFFC606A20B1BDE806
:1014380010400430FFF7F8BC10BD00BF800000204A
:10144800034B186810B10430FFF7EEBC704700BFBB
:1014580080000020034B586810B10430FFF7E4BC4B
:10146800704700BF80000020034B986810B104301B
:10147800FFF7DABC704700BF80000020034BD86834
:1014880010B10430FFF7D0BC704700BF80000020C7
:10149800034B186910B10430FFF7C6BC704700BF92
:1014A80080000020034B586910B10430FFF7BCBC22
:1014B800704700BF80000020034B986910B10430CA
:1014C800FFF7B2BC704700BF8000002010B5074C82
:1014D800E06910B10430FFF7A7FC206B20B1BDE82C
:1014E80010400430FFF7A0BC10BD00BF80000020F2
:1014F800034BD86910B10430FFF796BC704700BFA2
:1015080080000020034B186A10B10430FFF78CBC30
:10151800704700BF80000020034B986A10B1043068
:10152800FFF782BC704700BF80000020034BD86AD9
:1015380010B10430FFF778BC704700BF800000206E
:10154800034B586B10B10430FFF76EBC704700BFF7
:1015580080000020826810B50AB900F037FDBDE8A8
:101568001040C368184708B500B9FEE700F048F90D
:101578000068836E13B16030FFF7ECFF08BDFFF71A
:10158800F2BF10B500B9FEE7037F013B072B10D867
:10159800DFE803F004140F100F0F0F12012400F0FE
:1015A8002FF90068063400EB041083680BB1FFF7CD
:1015B800D1FF10BD0324F2E70424F0E70224EEE78C
:1015C800FFF7DFBFFFF7DDBFFFF784BB704708B544
:1015D800FFF774FBFFF7C5FBFFF7F8FF08BD002313
:1015E800C0E90033C0E90233704700000023012836
:1015F80003F101020AD11422DBB25343054A181D34
:101608001044816829B11A441369184740081346E1
:10161800EDE77047B80000200120FFF7F7BB022074
:10162800FFF7F4BB0420FFF7F1BB0820FFF7EEBB80
:101638001020FFF7EBBB08B52020FFF7E7FB4020A1
:10164800FFF7E4FB8020FFF7E1FB4FF48070FFF722
:10165800DDFBBDE808404FF40070FFF7D7BB38B595
:1016680006244FF48065A8B2FFF7D0FB013C4FEA8F
:101678004505F8D138BD0000344A104608B50623A0
:1016880000F8043BFFF7ABFF072302F118001375BE
:10169800FFF7A5FF082302F12C0082F82830FFF796
:1016A8009EFF092302F1400082F83C30FFF797FFC4
:1016B8000A2302F1540082F850301721FFF78FFFF8
:1016C80002F1680082F86410FFF789FF02F17C00DC
:1016D80082F87810FFF783FF02F1900082F88C10EF
:1016E800FFF77DFF02F1A40082F8A010FFF777FF53
:1016F80002F1B80082F8B4102821FFF770FF02F158
:10170800CC0082F8C810FFF76AFF02F1E00082F807
:10171800DC10FFF764FF02F1F40082F8F010FFF725
:101728005EFF02F5847082F80411FFF758FF02F596
:101738008E7082F81811FFF752FFBDE8084002F5D5
:10174800987082F82C11FFF74ABF00BFB80000203C
:1017580038B5054CA4F5A075143C201DFFF754FEC0
:10176800AC42F9D138BD00BFF80100200B685A1C03
:1017780001D100207047834201D1486870470C317D
:10178800F4E7431C01D0FFF7F1BF002070474B6816
:1017980013B94FF0FF307047834201D10868704792
:1017A8000C31F4E708B1FFF7F2BF4FF0FF30704794
:1017B8001049D1F8883043F47003C1F888300E4BD3
:1017C8001A6842F001021A6000229A601A6822F030
:1017D800847222F480321A60084A5A601A6822F425
:1017E80080221A604FF43F02DA604FF000638B608A
:1017F800704700BF00ED00E00038024010300024C0
:101808000438704708B5074B90F8652053F8220054
:10181800FFF7CAFD00F02200A0F122035842584108
:1018280008BD00BFF801002008B5074B90F86520F7
:1018380053F82200FFF7B8FD00F02100A0F12103C2
:101848005842584108BD00BFF801002038B5154678
:101858000446B8B1016590F96400FFF761FAE36ED8
:10186800B4F8761094F8650013FA81F1064BAAB221
:1018780053F82000FFF79CFB94F96400BDE838405A
:10188800FFF740BA38BD00BFF801002048B1836DAA
:10189800013306D190F86520024B53F82200FFF778
:1018A80053BD7047F801002048B1836D013306D15C
:1018B80090F86520024B53F82200FFF75DBD704792
:1018C800F8010020836C04381847C36C04381847A3
:1018D80030B5044650F804391D6815F0010585B087
:1018E80012D0002200921A6800925B680093009B55
:1018F800FFF788FF40BB012204F16201204605B0D2
:10190800BDE83040FFF76FBD196811F0020106D03D
:1019180001951A6801925B680193019BE8E71A68D0
:1019280012F0040206D002911A6802925B680293D0
:10193800029BDDE719680907DAD503921A68039252
:101948005B680393039BD3E705B030BD08B525203A
:10195800FFF7F8F9024B1868BDE80840FFF7A4BB89
:10196800F801002008B52620FFF7ECF9034B58686A
:1019780018B1BDE80840FFF797BB08BDF801002083
:1019880008B52720FFF7DEF9034B986818B1BDE8C2
:101998000840FFF789BB08BDF801002008B53420CE
:1019A800FFF7D0F9024BD868BDE80840FFF77CBBC9
:1019B800F801002008B53520FFF7C4F9024B186973
:1019C800BDE80840FFF770BBF801002008B54720C4
:1019D800FFF7B8F9024B5869BDE80840FFF764BB48
:1019E800F8010020FEE70000024B16221A604FF0B3
:1019F800FF307047600400200120704708B50320BD
:101A0800FFF76EF9BDE80840FEF790BC08B5AFF3E4
:101A18000080FEF799FCFFF74FF900F02BF8FAE782
:101A2800DFF834D0FFF7C4FE0C480D490D4A0023F7
:101A380002E0D458C4500433C4188C42F9D30A4A7B
:101A48000A4C002301E013600432A242FBD300F0E9
:101A58003FFAFFF7DBFF704700000220000000207C
:101A68005400002080250008540000206404002051
:101A7800FEE7000008B5044B2BB1044800F008F855
:101A880008B1AFF3008008BD00000000100200207C
:101A9800B0F80831B0F80421981A00F03F007047F8
:101AA800B0F80831B0F804219BB293421ABFD0F8BD
:101AB800FC30985C4FF0FF30704790F80631B0F872
:101AC8000A01C0B2834227BFC3F13F03C018C01A3E
:101AD80000F1FF30704707B503688DF807105B68A1
:101AE80001220DF10701984703B05DF804FB0000DF
:101AF800B0F87620816F11FA82F202F03F0210B539
:101B0800A0F87620B0F87610B0F8722089B28A4230
:101B18001AD0B0F87640B0F87610A4B24032121B52
:101B2800544289B204F03F0402F03F02C1F140017F
:101B380058BF62428A4228BF0A4682670349FFF7B4
:101B480085FE4FF0FF3010BD0020FCE7F91A0008B1
:101B58002DE9F843036804469B688846164698476B
:101B680001232374D4F8EC30B4F8067101338146AC
:101B7800C7F1400709D194F8113133B1002384F833
:101B8800113104F19400FFF781FE236820469B6819
:101B980098470028F9D03546BD4225D84D4523D869
:101BA800B4F80631D4F800015A19402A184430D83C
:101BB8002A46414600F0B0F92F46B4F806311D44D4
:101BC80005F03F05A4F8065104F194052846FFF7EF
:101BD8002BFE30B91649C4F80C713A462846FFF76F
:101BE80035FE3046BDE8F8834F45236828BF4F4689
:101BF8003A4641465B6820469847236820469B68DA
:101C08009847ED1BB844B4F806718146C7F1400700
:101C1800C2E7C3F140073A46414600F07DF9D4F8DF
:101C28000001EA1B08EB070100F076F9C5E700BFE1
:101C3800F91A0008C0F8F030009BC0F8F43091425F
:101C480008BF4FF0FF3100F11403C0E93A21C0F892
:101C5800FC3000F154020023A0F80831C0E9402309
:101C6800A0F80A317047037C70B504460D46A3B14D
:101C7800FFF730F80646B4F80621B4F80A319BB2EB
:101C88009A420AD0002DF8D0FFF724F8801B85422D
:101C9800F1D8B4F80A31A4F8063170BD0021FFF775
:101CA800E2BF0000CBB2512B08D80E4A52F82330BD
:101CB80001F4E0611943C0F8EC10704701F0C0026C
:101CC800C02A0CD1CF2B0AD8074B01F03F0201F4F0
:101CD800E06153F82220034B53F82230EAE74FF033
:101CE800FF31E8E7F4230008B4230008CBB2512BF6
:101CF80008D80E4A52F8233001F4E0611943C0F8BD
:101D0800E810704701F0C002C02A0CD1CF2B0AD8C6
:101D1800074B01F03F0201F4E06153F82220034B26
:101D280053F82230EAE74FF0FF31E8E7F4230008E0
:101D3800B423000873B54FF47A7316460022C0E93D
:101D480001231D4B03604FF0FF33C0F8EC301B4BF1
:101D5800984204460D4615D1C121FFF7A3FFC021C3
:101D6800FFF7C4FF012E4FF0FF3308BFC4F8EC3073
:101D780000932046D4E93A214FF0FF33FFF75AFF8A
:101D880002B070BD0E4B0F491A680F4B53F8220072
:101D9800FFF7F7FC854202D1C1212046DDE70B4958
:101DA8002846FFF7FFFC0749C4F8EC002846FFF770
:101DB800F9FCC4F8E800D5E7442500081002002023
:101DC800B423000824230008F42300089422000800
:101DD800D0F8EC30013310B504460ED10368DB6847
:101DE800984794F8113143B9012384F8113104F16B
:101DF8009400BDE81040FFF757BD10BD10B504466C
:101E0800FFF7E6FFB4F80821B4F8043192B29A4219
:101E18001FBFD4F8FC20D05C013303F03F0314BF8C
:101E2800A4F804314FF0FF3010BD00000249034808
:101E38000022FFF77FBF00BF004C004010020020C7
:101E480010B5044600F03AF8E060236820465B6964
:101E58009847002808DA00F031F8E368C01AA36848
:101E68009842F2D34FF0FF3010BDF8B507460D4643
:101E78008E180C46B44201D1601BF8BD3846FFF7F6
:101E8800DFFF431CF8D004F8010BF3E72DE9F0411C
:101E98000746884616461D4673B100243846FFF7A4
:101EA800CFFF431C05D0404503D030550134A5422F
:101EB800F4D12046BDE8F0811C46FAE7FFF784BB61
:101EC80002440346934200D1704703F8011BF9E727
:101ED80070B50D4B0D4D5B1B9C100026A64209D119
:101EE80000F078F80A4D0B4B5B1B9C100026A642AD
:101EF80005D170BD55F8043B98470136EEE755F813
:101F0800043B98470136F2E7682500086825000871
:101F180068250008782500080A44914200F1FF333B
:101F280000D1704710B511F8014B03F8014F9142E9
:101F3800F9D110BD08B5062000F02CF80120FFF7F4
:101F480051FD1F2938B505460C4604D916230360F0
:101F58004FF0FF3038BDC26B12B152F821304BB987
:101F6800284600F031F8224601462846BDE83840A8
:101F780000F018B8012B0AD0591C03D116230360AE
:101F88000120E7E7002142F8241020469847002066
:101F9800E0E70000024B01461868FFF7D2BF00BF18
:101FA8000400002038B5074D0023044608461146B2
:101FB8002B60FFF719FD431C02D12B6803B1236086
:101FC80038BD00BF60040020FFF716BD08B5FFF755
:101FD800B1FF0000F8B500BFF8BC08BC9E467047CA
:0C1FE800F8B500BFF8BC08BC9E4670476E
:101FF400EFBEADDEBEBAFECA785634122143658701
:102004003D3D3D205045524950484552414C205495
:10201400455354203D3D3D0A002020504153532058
:10202400005243435F43523D307846464646464657
:1020340046460020204641494C20005243435F431A
:10204400464752205357533D4853490053797354DC
:1020540069636B2056414C206368616E6765642038
:1020640061667465722064656C617900535049310E
:1020740020545845207365740053504931205458F6
:1020840045207365742028326E6429004932433137
:102094005F535231203D2030206166746572207296
:1020A4006573657400493243315F535232203D20D9
:1020B40030206166746572207265736574004932FC
:1020C4004320454550524F4D207772697465204135
:1020D400434B0049324320454550524F4D207265D1
:1020E40061642041434B0049324320454550524FDF
:1020F4004D20726561646261636B3D3078414200DA
:1021040049324320454550524F4D206F76657277D2
:10211400726974652041434B004932432045455060
:10212400524F4D20726561646261636B2041434B81
:102134000049324320454550524F4D206F76657219
:10214400777269746520726561646261636B3D30A6
:102154007843440049324320454550524F4D206155
:102164006464722030302041434B0049324320459F
:102174004550524F4D2061646472203030203D2020
:10218400307846462028756E7772697474656E29B6
:1021940000444D41204E4454523D30006473743029
:1021A4003D444541444245454600647374313D43D2
:1021B4004146454241424500647374323D313233F5
:1021C400343536373800647374333D383736353434
:1021D40033323100444D41204C495352206E6F6ECE
:1021E4002D7A65726F2061667465722078666572F7
:1021F40000444D41204C49535220544349462073D6
:10220400657400444D41204C49535220485449467A
:102214002073657400444D41204C4953522054436B
:10222400494620636C656172656420766961204C5F
:102234004946435200444D412054432049525120C1
:1022440066697265640046534D435F424352313DB3
:10225400300046534D432062616E6B313D4F4B005D
:102264002D2D2D2D2053554D4D415259202D2D2DC1
:102274002D0A00504153533A20004641494C3A201C
:10228400003D3D3D20444F4E45203D3D3D0A00006C
:1022940001000000004C0040120800000300000090
:1022A40000440040120700000A0000000010014032
:1022B4001207000017000000001001401207000080
:1022C4001B00000000480040120700002700000027
:1022D40000140140120800002B000000004C0040D4
:1022E400120800002B010000004800401207000003
:1022F40032000000005000401208000036000000C8
:10230400004400401207000039000000004800406B
:1023140012070000FFFFFFFF0000000000000000A4
:1023240000000000004C0040120800000200000001
:1023340000440040120700000900000000100140A2
:1023440012070000160000000010014012070000F0
:102354001A00000000480040120700002600000098
:1023640000140140120800002A000000004C004044
:10237400120800002A010000004800401207000073
:102384002C0000000050004012080000350000003E
:1023940000440040120700003800000000480040DC
:1023A40012070000FFFFFFFF000000000000000014
:1023B4000000000001000000020000000300000013
:1023C40004000000050000000600000007000000F3
:1023D4001000000011000000200000002100000097
:1023E400220000002300000024000000250000005B
:1023F40000000000010000000200000003000000D3
:1024040004000000050000000600000007000000B2
:1024140008000000090000000A0000000B00000092
:102424000C0000000D0000000E0000000F00000072
:102434001000000011000000120000001300000052
:102444001400000015000000160000001700000032
:1024540018000000190000001A0000001B00000012
:102464001C0000001D0000001E0000001F000000F2
:1024740020000000210000002200000023000000D2
:1024840024000000250000002600000027000000B2
:1024940028000000290000002A0000002B00000092
:1024A4002C0000002D0000002E0000002F00000072
:1024B4003000000031000000320000003300000052
:1024C4003400000035000000360000003700000032
:1024D40038000000390000003A0000003B00000012
:1024E4003C0000003D0000003E0000003F000000F2
:1024F40040000000410000004200000043000000D2
:1025040044000000450000004600000047000000B1
:1025140048000000490000004A0000004B00000091
:102524004C0000004D0000004E0000004F00000071
:1025340070000000710000000000000000000000B6
:10254400DF1A0008591B0008C31A0008A51C00085C
:10255400991A0008051E0008A91A0008731E00082D
:04256400951E0008B8
:10256800051A0008AD01000881160008351E00088C
:08257800890100085917000851
:1025800001000000080000200000000028030020D7
:1025900090030020F803002000000000000000006D
:1025A000000000000000000000000000000000002B
:1025B000000000000000000000000000000000001B
:1025C000000000000000000000000000000000000B
:0425D0000000000007
:0400000508001A29AC
:00000001FF
