:020000040800F2
:1000000000000220091E0008591E0008591E0008A1
:10001000591E0008591E0008591E00080000000063
:10002000000000000000000000000000591E000851
:10003000591E000800000000591E00080B19000896
:10004000591E0008591E0008591E0008591E0008B4
:10005000591E0008591E0008011A0008071A000856
:100060000D1A0008131A0008191A0008591E000872
:10007000591E0008591E0008591E0008591E000884
:10008000591E0008591E0008591E0008591E000874
:10009000591E0008591E0008591E00081F1A0008A2
:1000A0004118000859170008551800087D17000866
:1000B00091170008A5170008B9170008591E000875
:1000C000591E0008591E0008591E0008591E000834
:1000D000591E0008351D00084D1D0008691D000847
:1000E000471A0008591E0008591E00086918000820
:1000F000091800087D1800082D180008591E00086E
:10010000591E0008591E0008CD170008591E000886
:10011000851D00089D1D0008E1170008F51700085F
:10012000591E0008591E0008591E0008591E0008D3
:10013000591E0008591E0008591E0008591E0008C3
:10014000591E0008591E0008591E0008591E0008B3
:10015000591E0008591E0008591E0008B51D000848
:10016000591E0008591E0008591E0008591E000893
:10017000591E0008591E0008591E00080000000002
:08018000591E0008591E000879
:1001880010B5054C237833B9044B13B10448AFF3C9
:1001980000800123237010BD6800002000000000CB
:1001A800C023000808B5034B1BB103490348AFF34C
:1001B800008008BD000000006C000020C02300087B
:1001C800024B1A681206FCD55860704700100140AF
:1001D80008B5411E11F8010F00B908BDFFF7F0FF7F
:1001E800F8E7000010B50146054C030901F00F01BE
:1001F800E05CFFF7E5FF605CBDE81040FFF7E0BF9B
:100208001B240008F0B5184A184E194D0023012781
:10021800146814F0020F17D0136823F00203136058
:10022800144A154B14684FF4C06505FB043303608A
:10023800124B1B680B601268114B124943F83210BD
:100248000B4B01209860F0BDE40742BF146824F00E
:1002580001041460C3F3090401330CB9AF60D7E794
:10026800B342D5D10020EEE7A4000020404B4C005B
:10027800009002409C000020D8060020A00000202A
:10028800B80000200006008070B50023461C5D1CE5
:10029800A942C45CCCBFF55C0025240202332C4380
:1002A80099422244F3DC130C01D190B270BD13FAC9
:1002B80082F2F8E7504B2DE9F041504C0646186899
:1002C8009B88A3804E4B206088461968C4F80610A6
:1002D8005968C4F80A101989E18100216182618393
:1002E800A1F58031E161474921624FF48641A1843B
:1002F8004549A1620621A185110E4FF08C5084F862
:100308002E10110C52BA84F82F102286606103F166
:100318000A0204F13201223352F8040B41F8040BAB
:100328009A42F9D1394D13880B800027402239466B
:1003380005F10A00C5E900772F8101F0B3FF05F147
:100348004A008022394601F0ADFF48F26323A4F841
:1003580016312F4BC4F818310C2384F81D3147F29D
:100368000433A4F81E31742384F820316D2384F8F3
:1003780021314FF63373A4F8223184F81C8101230C
:10038800D8350133022B05F8017BFAD040F201433E
:10039800204AE384002141F6010323824FF48C773D
:1003A800A2F593750B468F420ADC190C1CD1DB436E
:1003B8005BBA2383141B3B2C346018D9BDE8F08149
:1003C80001F1010C95F90E006745C8BF95F80FC0FB
:1003D8004FEA0020D8BF4FF0000C40EA0C0013FA97
:1003E80080F302310235DEE711FA83F3DDE702F824
:1003F800011B34680134DEE72C240008D8000020F3
:10040800D8230008FFFF0044000001012401002058
:1004180053633501FE0100200C4B0D4AC0F30D005B
:1004280040F0184018605A600A4A0B4813610123CB
:1004380053600A4B1A68D20705D51A6822F00102E0
:100448001A60012070470138F4D17047A8000020D5
:10045800D800002000900240404B4C00A40000202F
:1004680029292DE9F04103466CD9027B082A69D174
:10047800427B062A66D1827B002A63D1C17B01298F
:1004880060D1017C08295DD1407C00285AD19A7C32
:10049800062A52D1DA7C042A4FD11A7D002A51D17A
:1004A8005A7D012A4ED1284A93F826101778B94266
:1004B80048D1567893F82710B14243D1957893F8EC
:1004C8002810A9423ED1D47893F82920A24239D1E4
:1004D8001E4AD3F806001060598991801C4903F11F
:1004E800060C901D01F1140E51F8048B40F8048B92
:1004F8007145F9D109880180D477957756771777B0
:10050800D3F8060010621349BCF804008880187FED
:1005180082F82600587F82F82700987F82F8280002
:10052800DB7F82F82930002001F10A03991A3B2960
:1005380005DD3C20FFF770FF0120BDE8F08103F8DE
:10054800010BF3E70020F8E798000020D80000200E
:10055800FC230008F8000020F8B5394E64253478EB
:10056800B4FBF5F101F13000C0B2FFF729FE05FB3D
:100578001140C0B20A21B0FBF1F03030C0B2FFF731
:100588001FFEB4FBF1F301FB13403030C0B2FFF79C
:1005980017FE2E20FFF714FE7778B7FBF5F404F169
:1005A8003000C0B2FFF70CFE05FB1470C0B2B0FB00
:1005B800F1F03030C0B2FFF703FEB7FBF1F301FBF7
:1005C80013703030C0B2FFF7FBFD2E20FFF7F8FDA7
:1005D800B778B7FBF5F404F13000C0B2FFF7F0FDCF
:1005E80005FB1470C0B2B0FBF1F03030C0B2FFF7B9
:1005F800E7FDB7FBF1F301FB13703030C0B2FFF732
:10060800DFFD2E20FFF7DCFDF678B6FBF5F404F1EC
:100618003000C0B2FFF7D4FD05FB1460C0B2B0FBD8
:10062800F1F03030C0B2FFF7CBFDB6FBF1F301FBC0
:1006380013603030BDE8F840C0B2FFF7C1BD00BF5D
:10064800980000202DE9F04F9B464A4B4A4C8246C1
:1006580018689B8885B0A380484B20608946D3F8EA
:100668003A10C4F8061002F12807D3F83E1093F8A0
:100678004230A37315467BBA0022C4F80F202382A8
:100688004FF4D063C4F81720C4F81320E3823C4B1E
:10069800C4F80A101B68C4F81A303A4BDDE90E8614
:1006A8001B68C4F81E30142104F10E00FFF7ECFD9E
:1006B8004FF4A04363844FEA186384F826304FEA66
:1006C800184384F82730330E84F82A30330CC0439B
:1006D80084F82B30502376BA40BA00229BFA9BFB51
:1006E80098FA98F884F82E304FF6FF73A685208381
:1006F800C4F83220A4F824B0A4F8288084F82FA0E5
:10070800238604F13606B9F1000F06D02DB1304624
:100718002A46494601F0F2FD2E44DFF86C80D8F8ED
:100728000000D8F8041001AB03C314354FF4C063BC
:10073800ADF80C3000226BBA0C2101A8ADF80E30D0
:10074800FFF7A2FD2946024608F10800FFF79CFDC5
:10075800C04340BA608600223946A8F10C002283C3
:10076800FFF792FDC04340BA2083301B05B0BDE8B7
:10077800F08F00BF8A000020D8000020D82300088E
:100788009800002090000020F20000200C4B1B680D
:1007980073B50C468BB10B4D0B4B2E681B68CDE91E
:1007A80000630A4B0A461B8801461820FFF74AFFD8
:1007B800FFF732FE08B134442C6002B070BD00BFB0
:1007C8008400002000000020940000208800002001
:1007D8007047000010B5464C464AD4F830384648B1
:1007E80043F00103C4F83038D4F8443843F0100318
:1007F800C4F84438136823F00F0343F00A03136066
:10080800536A23F0F00343F0700353623B4B8A2290
:100818009A6042F20C02DA60FFF7DAFCD4F830385A
:10082800374843F00073C4F83038FFF7D1FC354A35
:10083800136843F0010313604FF4FA5300BF013B00
:10084800FCD1314C3148FFF7C3FC40F60C0330486B
:100858002360FFF7BDFC2F4B2364012363642E48FC
:10086800FFF7B6FC64234121216142F2107220692E
:10087800C00701D5013AFAD1626952072FD5274836
:10088800FFF7A6FC1F4C264842F20203A361FFF7BC
:100898009FFC244A244B2549196002F5C0605A6020
:1008A8009960D86002F5406002F59052196158616C
:1008B8009961DA61E3600123A3601D48FFF788FCB2
:1008C8004FF0E0221B48D2F8043143F00053C2F83D
:1008D8000431194BE361BDE81040FFF779BC49F6D4
:1008E800404200BF013AFCD1013BBDD1CAE700BF7D
:1008F800003002400000024033240008001001408C
:100908004A24000800900240008002405924000850
:100918006524000800020080712400088024000873
:100928008A240008D8060020B800002000060080AD
:1009380096240008AD240008410001002DE9F04F7D
:10094800284893B0FFF744FC09A8274A0121FFF77C
:10095800B1FC0998FFF760FD28B9244813B0BDE839
:10096800F04FFFF735BC2248FFF732FC1E2409A9D7
:1009780008A8FFF747FC80B3099829282DD90899BA
:100988000B7B082B29D14B7B3BBBCA7D112A24D179
:100998008A7B0E2502F00F0205EB82054A194D5B92
:1009A800B5F5864F19D15588B5F5884F15D1D66854
:1009B800104DAE4211D1104D167E2E70567E6E70BF
:1009C800967EAE70F83212F8DD6CEE70511A401A4D
:1009D800D15CFF2901D0834212D3013CC7D107481B
:1009E800BCE700BFB524000821436587C52400087B
:1009F800D724000887654321980000202E25000889
:100A0800352903F1020540F04681535D022B00F0C1
:100A18004681052BE1D1B948B94FFFF7D9FBFFF75C
:100A28009BFDB848FFF7D4FBB748FFF7D1FBB748A1
:100A3800FFF7CEFB4FF496780BA90AA8FFF7E2FB65
:100A4800002800F04B81DDE90A4529462046FFF7DA
:100A580007FD002840F04281352D40F23F81237B7D
:100A6800082B40F03B8194F80DA0BAF1000F40F03C
:100A78003581E37D062B40F03181A37B0E2503F001
:100A88000F0305EB830504EB0509B9F80230B3F54C
:100A9800A04F40F0238199F80D609D48FFF798FB1F
:100AA8003046FFF79FFB9B48FFF792FB5046FFF746
:100AB80099FB5020FFF796FB06F012069648FFF7C1
:100AC80087FB022E40F00A8134F805A09AFA9AF3BF
:100AD8009AB20292914A1380914BA27E1A70E27EDA
:100AE8005A70227F9A70627FDA708E4A631D0B34C7
:100AF80013F8011F02F8011BA342F9D1D9F80430F9
:100B0800DFF834921BBA44F6206201333A60C9F820
:100B18000030CDE900230022029B11461220FFF786
:100B280091FD04468048FFF753FB2046FFF774FC0D
:100B3800002800F0CF8044F621637C4C3B60002302
:100B4800236064264FF004080DA90CA8FFF75AFB90
:100B5800002800F0B980DDE90CB158460391FFF791
:100B68007FFC0546002840F0AF800399352940F204
:100B7800AB809BF80C30082B40F0A6809BF80D301A
:100B8800002B40F0A1809BF81730062B40F09C808A
:100B98009BF80E300E2203F00F0313FB08230BEB18
:100BA80003023BF80330534540F08E805388B3F579
:100BB800A04F40F08980537B102B40F085800123A3
:100BC8005B482360FFF704FB5A48DFF860B1FFF782
:100BD800FFFAC82303930DA90CA8FFF713FB0028FD
:100BE80051D0DDE90C38414618460493FFF738FC2C
:100BF8000646002847D1B8F1350F44D9049B1A7B23
:100C0800082A40D15A7B002A3DD1DA7D062A3AD1FA
:100C18009A7B0E2002F00F02910000EB82029C18D2
:100C28009B5A53452FD16388B3F5A04F2BD1237B13
:100C3800A8F10E081B09A8EB01089A00A8EB83038A
:100C480023EAE37804920593627B636812F0010259
:100C58001BBA4344069246D1374A136000220193D7
:100C680044F6216300931146029B1020FFF7EAFC2B
:100C7800FFF7D2FB002800F01081059B002B6BDCEE
:100C8800069B002B71D1039B013B0393A3D12B48F7
:100C9800FFF79EFA71E013445B782B4498E62848E6
:100CA800FFF796FAFFF758FC1B48FFF791FA09A8D7
:100CB800244A0321FFF7FEFA0998FFF7ADFB002845
:100CC8007FF48BAE204849E6013E7FF43DAF1F48D4
:100CD800FFF77EFA1E48FFF77BFAA8E6B8F101088D
:100CE8007FF4AAAEF6E701331A48C9F80030079333
:100CF800CBF80060FFF76CFA079BAFE70425000804
:100D08000000002011250008172500083C250008D0
:100D1800542500085C250008CC2500088800002020
:100D2800900000208A00002063250008840000202D
:100D38006D2500087A25000894000020AD250008DC
:100D4800E924000821436587F32400088125000869
:100D58008F250008A0250008049BE11843441C4483
:100D6800A14240F0958045444646DBF8003023B167
:100D78001EB1B5F5FA7F7FF72CAF4948FFF728FA7F
:100D88004848047845786421B4FBF1F303F1300254
:100D98008DF8342001FB1342D2B20A23B2FBF3F2DE
:100DA80030328DF83520B4FBF3F203FB1244B5FB67
:100DB800F1F202F1300601FB1252D2B2B2FBF3F2A9
:100DC80030328DF83920B5FBF3F203FB125530357C
:100DD8008DF83A5085788DF83860C078B5FBF1F217
:100DE800303402F1300601FB12528DF83640D2B28F
:100DF8002E24B2FBF3F230328DF837408DF83B40A9
:100E08008DF83D208DF83F40B5FBF3F203FB1255FA
:100E1800B0FBF1F202F1300401FB1202D2B2B2FBD4
:100E2800F3F230328DF84120B0FBF3F203FB1200ED
:100E380030308DF8420030351B488DF840408DF831
:100E48003C608DF83E50FFF7C3F91848F421FFF7CE
:100E58009DFC0F210DA8FFF799FC14211448FFF7FA
:100E680095FC1448FFF7B4F93C68D9F80030002223
:100E7800CDE900431146029B1120FFF7E3FBFFF782
:100E8800CBFA0D4B0D48013400223C601A6022E772
:100E980011F8010BFFF794F962E70948F8E600BF7B
:100EA800CC25000898000020B9250008CF250008A7
:100EB800C4260008D926000884000020A7250008B9
:100EC800E02600087047000038B50E4B1A784FF43A
:100ED8007A73B3FBF2F30C4A05461068B0FBF3F0E3
:100EE80000F0A6F8044658B90F2D09D8024629463D
:100EF8004FF0FF3000F04AF8044B20461D6038BD23
:100F08000120FCE704000020140000200800002055
:100F180008B50B4B1A6842F400721A601A6842F45A
:100F280080621A601A6842F480721A60032000F026
:100F38001BF80020FFF7C8FFFFF7C4FF002008BD1B
:100F4800003C0240034A044B11681B780B441360B1
:100F5800704700BFD81E002004000020014B18680D
:100F6800704700BFD81E00200749CA6822F4E06213
:100F78000302120403F4E063120C134343F0BF634B
:100F880043F40033CB60704700ED00E0164B30B5FA
:100F9800DC68C4F30224C4F10703251D042B28BF11
:100FA8000423062D4FF0FF358CBF033C002405FABF
:100FB80003F321EA0303A54022EA0502A34000281F
:100FC80043EA0203ACBF00F16040084A4FEA03134A
:100FD800B8BF00F00F00DBB2AABF00F561401354A0
:100FE80080F8003330BD00BF00ED00E014ED00E0F4
:100FF800002807DB044A4109012300F01F00834051
:1010080042F82130704700BF00E100E000280CDB07
:101018004309064900F01F0020330122824041F8AD
:101028002320BFF34F8FBFF36F8F704700E100E0BD
:101038000138B0F1807F0BD24FF0E023054A5861A8
:10104800F02182F823100020072298611A61704766
:101058000120704700ED00E0002808DB430904493F
:1010680000F01F0001226033824041F823207047BE
:1010780000E100E0704708B5FFF7FCFF08BD7047C6
:1010880010B5044650B1437903F0FF0213B9027159
:10109800FFF7F5FF01236371002010BD0120FCE775
:1010A80070B50446866DFFF759FF94F83530022B6A
:1010B800054606D0802363650120002384F8343078
:1010C80070BD23681A6822F016021A605A6922F065
:1010D80080025A61226C0AB9A26C1AB11A6822F00D
:1010E80008021A601A6822F001021A602368186858
:1010F80010F0010007D1E26D3F239340B360012354
:1011080084F83530D9E7FFF729FF401B0528EDD9CA
:1011180020230320636584F83500CEE790F8353046
:10112800022B03D080234365012070470268052302
:1011380080F83530136823F00103136000207047EE
:10114800044A5169014208B502D0506100F03EFCE2
:1011580008BD00BF003C014070477047036870B588
:10116800DD681E69B10704460DD5AA070BD56FF0D7
:1011780002021A61012202779B699B0769D000F07D
:10118800BBFB00232377710710D56A070ED52368A8
:101198006FF004021A61022222779B6913F4407FE0
:1011A80020465CD000F0A8FB0023237733070FD537
:1011B80028070DD523686FF008021A6104222277E8
:1011C800DB699907204650D000F096FB002323776F
:1011D800F20610D5EB060ED523686FF010021A61DF
:1011E80008222277DB6913F4407F204643D000F0C1
:1011F80083FB00232377F00708D5E90706D5236882
:101208006FF001021A61204600F053FB320608D540
:101218002B0606D523686FF080021A61204600F07D
:1012280032F8700608D5690606D523686FF04002C3
:101238001A612046FFF791FFB20622D5AB0620D5EA
:1012480023686FF0200220461A61BDE8704000F064
:1012580019B800F04FFB2046FFF77EFF91E700F03A
:1012680049FB2046FFF778FF9EE700F043FB204646
:10127800FFF772FFAAE700F03DFB2046FFF76CFF7F
:10128800B7E770BD70477047026802F10C0353E876
:10129800003F23F490730C3242E8003102680029C1
:1012A800F2D102F1140353E8003F23F0010302F1E5
:1012B800140C4CE800310029F3D1036B012B0BD13E
:1012C80002F10C0353E8003F23F0100302F10C0C69
:1012D8004CE800310029F3D1202380F84230002364
:1012E8000363704790F84130202B10D189B182B147
:1012F800C28401628284016800232122436480F849
:101308004120CA6842F08002CA601846704702202D
:1013180070470120704708B5806B0023C38500F033
:10132800C7FC08BD704790F84230222B07B542D160
:1013380081680268836AB1F5805F3FD1016900293D
:101348003FD15268C2F3080223F8022B8362C38D8F
:10135800013B9BB2C385002B2DD10268D16821F0D7
:101368002001D160D16821F48071D160516921F0E8
:1013780001015161202280F842204363026B012A57
:10138800026828D1036302F10C0353E8003F23F0FD
:10139800100302F10C0C4CE800310029F3D113685A
:1013A800DB0605D501911368019353680193019BEE
:1013B800818DFFF7B7FF03B05DF804FB39B9016908
:1013C80029B95268D2B21A70836A0133BEE75268EB
:1013D80002F07F02F7E700F065FCECE703681A68A3
:1013E80073B51607D9685D69044608D1960668D5AD
:1013F8008D0666D502B0BDE87040FFF794BF05F0D2
:10140800010001F4907505435BD0D60705D5CD05DD
:1014180042BF636C43F001036364530704D518B1FA
:10142800636C43F002036364960704D518B1636CD8
:1014380043F004036364150707D501F02003034351
:101448001EBF636C43F008036364636C002B32D0E7
:10145800920604D58B0602D52046FFF764FF26685E
:101468007369626C03F0400302F0080253EA020554
:10147800204622D0FFF708FF73695E0618D5226858
:1014880002F1140353E8003F23F04003143242E80A
:1014980000310029F3D1E06B50B1774B0365FFF7BA
:1014A8003DFE40B1E06B036D02B0BDE870401847E7
:1014B800204600F0FDFB02B070BD00F0F9FB65644A
:1014C800F9E7206B012840F09B80D50640F1988011
:1014D800C80640F19580002201921A6801925A6864
:1014E8000192019A5A69A18D520656D5E06B02689D
:1014F800526892B2002A47D0914245D9E285C26922
:10150800B2F5807F36D003F10C0252E8002F22F4A6
:10151800807203F10C0040E800210029F3D103F1A7
:10152800140252E8002F22F0010203F1140040E8EF
:1015380000210029F3D103F1140252E8002F22F010
:10154800400203F1140040E800210029F3D12022D1
:1015580084F84220216303F10C0252E8002F22F0A4
:10156800100203F10C0040E800210029F3D1E06BE0
:10157800FFF796FD02236363E38DA18DC91A89B233
:101588002046FFF7CFFE96E7914294D1C369B3F5A1
:10159800807F90D102236363F2E7E28DE08D80B211
:1015A80092B2002887D0891A89B2002983D003F122
:1015B8000C0252E8002F22F4907203F10C0545E862
:1015C80000200028F3D103F1140252E8002F22F082
:1015D800010203F1140545E800200028F3D1202278
:1015E80084F84220206303F10C0252E8002F22F015
:1015F800100203F10C0545E800200028F3D1C9E7E3
:10160800160628D50D0626D594F84120212A7FF400
:1016180052AFA168226AB1F5805F17D12169A9B9D3
:1016280032F8021BC1F3080159602262E28C013AC8
:1016380092B2E284002A7FF43EAFDA6822F0800298
:10164800DA60DA6842F04002DA6034E7511C21625D
:1016580012785A60EAE750067FF52DAF4A067FF503
:101668002AAFDA6822F04002DA60202384F8413099
:10167800204600F01AFB1EE71F13000890F84030C0
:10168800012B11D00268242380F84130D36823F05D
:101698000C0343F00803D360202380F84130002373
:1016A80080F84030184670470220704790F8403064
:1016B800012B11D00268242380F84130D36823F02D
:1016C8000C0343F00403D360202380F84130002347
:1016D80080F84030184670470220704790F8412043
:1016E80090F8420010437047C28500238285026942
:1016F8004364222380F84230816203681AB1DA68B1
:1017080042F48072DA605A6942F001025A61DA687A
:1017180042F02002DA600020704770B590F842600D
:10172800202E07D141B13AB100240463FFF7DCFF52
:10173800204670BD0220FCE70120FAE7836810B557
:10174800044613B1032201469847204610BD000005
:1017580010B5074C206810B10430FFF7FFFC606A31
:1017680020B1BDE810400430FFF7F8BC10BD00BF41
:10177800DC1E0020034B186810B10430FFF7EEBCE4
:10178800704700BFDC1E0020034B586810B10430BE
:10179800FFF7E4BC704700BFDC1E0020034B9868CD
:1017A80010B10430FFF7DABC704700BFDC1E002020
:1017B800034BD86810B10430FFF7D0BC704700BFA6
:1017C800DC1E0020034B186910B10430FFF7C6BCBB
:1017D800704700BFDC1E0020034B586910B104306D
:1017E800FFF7BCBC704700BFDC1E0020034B9869A4
:1017F80010B10430FFF7B2BC704700BFDC1E0020F8
:1018080010B5074CE06910B10430FFF7A7FC206B56
:1018180020B1BDE810400430FFF7A0BC10BD00BFE8
:10182800DC1E0020034BD86910B10430FFF796BCCA
:10183800704700BFDC1E0020034B186A10B104304B
:10184800FFF78CBC704700BFDC1E0020034B986A72
:1018580010B10430FFF782BC704700BFDC1E0020C7
:10186800034BD86A10B10430FFF778BC704700BF4B
:10187800DC1E0020034B586B10B10430FFF76EBC20
:10188800704700BFDC1E0020826810B50AB900F05E
:101898008FFDBDE81040C368184708B500B9FEE7DA
:1018A80000F09EF90068836E13B16030FFF7ECFF1B
:1018B80008BDFFF7F2BF10B500B9FEE7037F013B93
:1018C800072B10D8DFE803F004140F100F0F0F12C6
:1018D800012400F085F90068063400EB04108368E1
:1018E8000BB1FFF7D1FF10BD0324F2E70424F0E7A2
:1018F8000224EEE7FFF7DFBFFFF7DDBFFFF72EBBE0
:10190800704708B5FFF71EFBFFF7B5FBFFF7F8FFB9
:1019180008BD704784B0114B00220192196C41F048
:1019280080511964196C01F080510191019902925A
:10193800596C41F480415964596C01F48041029119
:10194800029903921A6B42F480521A631B6B03F4D8
:1019580080530393039B04B0704700BF00380240D4
:101968000C4BD3F8FC20D2015EBFD3F8FC2042F028
:101978008072C3F8FC20084B00225A601A6842F0B3
:1019880001021A6000BF00BF00BF5868B0FA80F0BB
:101998004009704700ED00E0001000E008B5FFF7CF
:1019A800B9FFFFF7DDFFFFF7B3FAFFF7B2FFFEF766
:1019B8000FFFBDE808400148FFF762BB0C0000209C
:1019C8000023C0E90033C0E902337047002301282F
:1019D80003F101020AD11422DBB25343054A181D50
:1019E8001044816829B11A441369184740081346FE
:1019F800EDE77047141F00200120FFF7A1BB02206C
:101A0800FFF79EBB0420FFF79BBB0820FFF798BB9E
:101A18001020FFF795BB08B52020FFF791FB402069
:101A2800FFF78EFB8020FFF78BFB4FF48070FFF7EA
:101A380087FBBDE808404FF40070FFF781BB38B55D
:101A480006244FF48065A8B2FFF77AFB013C4FEA01
:101A58004505F8D138BD0000344A104608B50623BC
:101A680000F8043BFFF7ACFF072302F118001375D9
:101A7800FFF7A6FF082302F12C0082F82830FFF7B1
:101A88009FFF092302F1400082F83C30FFF798FFDE
:101A98000A2302F1540082F850301721FFF790FF13
:101AA80002F1680082F86410FFF78AFF02F17C00F7
:101AB80082F87810FFF784FF02F1900082F88C100A
:101AC800FFF77EFF02F1A40082F8A010FFF778FF6D
:101AD80002F1B80082F8B4102821FFF771FF02F173
:101AE800CC0082F8C810FFF76BFF02F1E00082F823
:101AF800DC10FFF765FF02F1F40082F8F010FFF741
:101B08005FFF02F5847082F80411FFF759FF02F5B0
:101B18008E7082F81811FFF753FFBDE8084002F5F0
:101B2800987082F82C11FFF74BBF00BF141F0020DC
:101B380038B5054CA4F5A075143C201DFFF7FEFD33
:101B4800AC42F9D138BD00BF542000200B685A1CA4
:101B580001D100207047834201D1486870470C3199
:101B6800F4E7431C01D0FFF7F1BF002070474B6832
:101B780013B94FF0FF307047834201D108687047AE
:101B88000C31F4E708B1FFF7F2BF4FF0FF307047B0
:101B98001049D1F8883043F47003C1F888300E4BEF
:101BA8001A6842F001021A6000229A601A6822F04C
:101BB800847222F480321A60084A5A601A6822F441
:101BC80080221A604FF43F02DA604FF000638B60A6
:101BD800704700BF00ED00E00038024010300024DC
:101BE8000438704708B5074B90F8652053F8220071
:101BF800FFF774FD00F02200A0F12203584258417B
:101C080008BD00BF5420002008B5074B90F8652098
:101C180053F82200FFF762FD00F02100A0F1210334
:101C28005842584108BD00BF5420002038B5154619
:101C38000446B8B1016590F96400FFF7E7F9E36E6F
:101C4800B4F8761094F8650013FA81F1064BAAB23D
:101C580053F82000FFF746FB94F96400BDE83840CC
:101C6800FFF7C6B938BD00BF5420002048B1836DC6
:101C7800013306D190F86520024B53F82200FFF794
:101C8800FDBC70475420002048B1836D013306D154
:101C980090F86520024B53F82200FFF707BD704704
:101CA80054200020836C04381847C36C0438184744
:101CB80030B5044650F804391D6815F0010585B0A3
:101CC80012D0002200921A6800925B680093009B71
:101CD800FFF788FF40BB012204F16201204605B0EE
:101CE800BDE83040FFF719BD196811F0020106D0B0
:101CF80001951A6801925B680193019BE8E71A68ED
:101D080012F0040206D002911A6802925B680293EC
:101D1800029BDDE719680907DAD503921A6803926E
:101D28005B680393039BD3E705B030BD08B5252056
:101D3800FFF792F9024B1868BDE80840FFF74EBB61
:101D48005420002008B52620FFF786F9034B586871
:101D580018B1BDE80840FFF741BB08BD542000207A
:101D680008B52720FFF778F9034B986818B1BDE844
:101D78000840FFF733BB08BD5420002008B53420C5
:101D8800FFF76AF9024BD868BDE80840FFF726BBA1
:101D98005420002008B53520FFF75EF9024B18697A
:101DA800BDE80840FFF71ABB5420002008B54720BB
:101DB800FFF752F9024B5869BDE80840FFF70EBB20
:101DC80054200020FEE70000024B16221A604FF054
:101DD800FF307047BC2200200120704708B503205F
:101DE800FFF7C2F8BDE8084000F042B808B5AFF305
:101DF8000080FEF7EFFCFEF7A1FD00F02BF8FAE7F4
:101E0800DFF834D0FFF7C4FE0C480D490D4A002313
:101E180002E0D458C4500433C4188C42F9D30A4A97
:101E28000A4C002301E013600432A242FBD300F005
:101E380041FAFFF7DBFF7047000002200000002096
:101E480068000020D429000868000020C022002073
:101E5800FEE7000008B5044B2BB1044800F00AF86F
:101E680008B1AFF3008008BD000000006C2000201E
:101E7800FFF794BDB0F80831B0F80421981A00F0C3
:101E88003F007047B0F80831B0F804219BB2934284
:101E98001ABFD0F8FC30985C4FF0FF30704790F8CC
:101EA8000631B0F80A01C0B2834227BFC3F13F032D
:101EB800C018C01A00F1FF30704707B503688DF8E5
:101EC80007105B6801220DF10701984703B05DF820
:101ED80004FB0000B0F87620816F11FA82F202F05C
:101EE8003F0210B5A0F87620B0F87610B0F872204E
:101EF80089B28A421AD0B0F87640B0F87610A4B207
:101F08004032121B544289B204F03F0402F03F02EF
:101F1800C1F1400158BF62428A4228BF0A4682671F
:101F28000349FFF783FE4FF0FF3010BD0020FCE7A8
:101F3800DD1E00082DE9F843036804469B688846BF
:101F48001646984701232374D4F8EC30B4F8067188
:101F580001338146C7F1400709D194F8113133B1F3
:101F6800002384F8113104F19400FFF77FFE236801
:101F780020469B6898470028F9D03546BD4225D8A9
:101F88004D4523D8B4F80631D4F800015A19402A2F
:101F9800184430D82A46414600F0B0F92F46B4F824
:101FA80006311D4405F03F05A4F8065104F19405D7
:101FB8002846FFF729FE30B91649C4F80C713A468D
:101FC8002846FFF733FE3046BDE8F8834F452368BF
:101FD80028BF4F463A4641465B68204698472368E3
:101FE80020469B689847ED1BB844B4F806718146B3
:101FF800C7F14007C2E7C3F140073A46414600F03F
:102008007DF9D4F80001EA1B08EB070100F076F926
:10201800C5E700BFDD1E0008C0F8F030009BC0F81F
:10202800F430914208BF4FF0FF3100F11403C0E9CA
:102038003A21C0F8FC3000F154020023A0F808311E
:10204800C0E94023A0F80A317047037C70B5044604
:102058000D46A3B1FEF782FF0646B4F80621B4F890
:102068000A319BB29A420AD0002DF8D0FEF776FFCB
:10207800801B8542F1D8B4F80A31A4F8063170BD46
:102088000021FFF7E2BF0000CBB2512B08D80E4A5F
:1020980052F8233001F4E0611943C0F8EC1070479E
:1020A80001F0C002C02A0CD1CF2B0AD8074B01F08F
:1020B8003F0201F4E06153F82220034B53F8223029
:1020C800EAE74FF0FF31E8E7482800080828000849
:1020D800CBB2512B08D80E4A52F8233001F4E061F4
:1020E8001943C0F8E810704701F0C002C02A0CD1AB
:1020F800CF2B0AD8074B01F03F0201F4E06153F8F7
:102108002220034B53F82230EAE74FF0FF31E8E78B
:10211800482800080828000873B54FF47A73164653
:102128000022C0E901231D4B03604FF0FF33C0F8C4
:10213800EC301B4B984204460D4615D1C121FFF7E0
:10214800A3FFC021FFF7C4FF012E4FF0FF3308BFE4
:10215800C4F8EC3000932046D4E93A214FF0FF331D
:10216800FFF75AFF02B070BD0E4B0F491A680F4BAC
:1021780053F82200FFF7F5FC854202D1C121204621
:10218800DDE70B492846FFF7FDFC0749C4F8EC00DA
:102198002846FFF7F7FCC4F8E800D5E798290008B7
:1021A8006C20002008280008782700084828000824
:1021B800E8260008D0F8EC30013310B504460ED1FB
:1021C8000368DB68984794F8113143B9012384F810
:1021D800113104F19400BDE81040FFF755BD10BD62
:1021E80010B50446FFF7E6FFB4F80821B4F8043147
:1021F80092B29A421FBFD4F8FC20D05C013303F09E
:102208003F0314BFA4F804314FF0FF3010BD0000A5
:10221800024903480022FFF77FBF00BF004C00407F
:102228006C20002010B5044600F03AF8E0602368FE
:1022380020465B699847002808DA00F031F8E3681F
:10224800C01AA3689842F2D34FF0FF3010BDF8B51A
:1022580007460D468E180C46B44201D1601BF8BDE6
:102268003846FFF7DFFF431CF8D004F8010BF3E70B
:102278002DE9F0410746884616461D4673B10024ED
:102288003846FFF7CFFF431C05D0404503D03055F3
:102298000134A542F4D12046BDE8F0811C46FAE796
:1022A800FFF72CBB02440346934200D1704703F862
:1022B800011BF9E770B50D4B0D4D5B1B9C100026FB
:1022C800A64209D100F078F80A4D0B4B5B1B9C1015
:1022D8000026A64205D170BD55F8043B9847013643
:1022E800EEE755F8043B98470136F2E7BC290008A9
:1022F800BC290008BC290008CC2900080A449142DE
:1023080000F1FF3300D1704710B511F8014B03F805
:10231800014F9142F9D110BD08B5062000F02CF804
:102328000120FFF74FFD1F2938B505460C4604D993
:10233800162303604FF0FF3038BDC26B12B152F85C
:1023480021304BB9284600F031F82246014628468C
:10235800BDE8384000F018B8012B0AD0591C03D149
:10236800162303600120E7E7002142F824102046E5
:1023780098470020E0E70000024B01461868FFF785
:10238800D2BF00BF1800002038B5074D002304460F
:10239800084611462B60FFF717FD431C02D12B6836
:1023A80003B1236038BD00BFBC220020FFF714BD75
:1023B80008B5FFF7B1FF0000F8B500BFF8BC08BCCE
:1023C8009E467047F8B500BFF8BC08BC9E467047EB
:1023D80002000000000108004500000000000000A5
:1023E80000000000000000000000000000000200E3
:1023F80000000001020000000001080600010800BA
:1024080006040002020000000001020000000001B2
:102418000800453031323334353637383941424394
:1024280044454600FFFFFFFFFFFF000D0A3D3D3D0D
:102438002057656220536572766572203D3D3D0DDB
:102448000A0045544820636C6F636B204F4E0D0A99
:1024580000444D412072657365740D0A004D414377
:102468002052452B54450D0A004D414320616464B8
:1024780072207365740D0A006C696E6B2075700D9F
:102488000A00444D412053542B53520D0A00525810
:102498002064657363726970746F7273207265610A
:1024A80064790D0A0052656164790D0A0044484355
:1024B8005020446973636F7665720D0A004448437F
:1024C800502054582074696D656F75740D0A005753
:1024D8006169742044484350204F666665720D0A4E
:1024E800004F666665722049503D00526571205460
:1024F800582074696D656F75740D0A00444843501F
:102508002041636B2049503D00204F4B0D0A004C81
:10251800697374656E696E67206F6E20706F727470
:102528002038300D0A0044484350206661696C65C4
:10253800640D0A0057616974696E6720666F7220BE
:10254800636C69656E742E2E2E0D0A00544350205C
:10255800666C3D0020706F72743D0053594E2D41DA
:10256800434B0D0A00436C69656E742041434B0D63
:102578000A005245513A0D0A0041434B2074696DD7
:10258800656F75740D0A0041636365707420746922
:102598006D656F75740D0A00434C49454E542046CD
:1025A800494E0D0A005B54494D454F55545D0D0A7F
:1025B8000053656E64696E6720726573706F6E7321
:1025C800652E2E2E0D0A00485454502F312E3020DF
:1025D800323030204F4B0D0A436F6E74656E742D88
:1025E800547970653A20746578742F68746D6C0D31
:1025F8000A436F6E6E656374696F6E3A20636C6F21
:1026080073650D0A0D0A3C21444F43545950452027
:1026180068746D6C3E0D0A3C68746D6C3E3C686570
:1026280061643E3C7469746C653E53544D3332208A
:10263800576562205365727665723C2F7469746CB5
:10264800653E3C2F686561643E0D0A3C626F6479A3
:102658003E0D0A3C68313E48656C6C6F2066726FAF
:102668006D2053544D333246343037213C2F683176
:102678003E0D0A3C703E5468697320697320727578
:102688006E6E696E67206F6E20616E20656D756C69
:10269800617465642053544D33324634303756479D
:1026A80054362076696120556E69636F726E3C2FCF
:1026B800703E0D0A3C703E49503A20003C2F703E57
:1026C8003C2F626F64793E3C2F68746D6C3E0D0A36
:1026D80000446F6E650D0A00523D2D310D0A000051
:1026E80001000000004C0040120800000300000038
:1026F80000440040120700000A00000000100140DA
:102708001207000017000000001001401207000027
:102718001B000000004800401207000027000000CE
:1027280000140140120800002B000000004C00407B
:10273800120800002B0100000048004012070000AA
:10274800320000000050004012080000360000006F
:102758000044004012070000390000000048004013
:1027680012070000FFFFFFFF00000000000000004C
:1027780000000000004C00401208000002000000A9
:10278800004400401207000009000000001001404A
:102798001207000016000000001001401207000098
:1027A8001A00000000480040120700002600000040
:1027B80000140140120800002A000000004C0040EC
:1027C800120800002A01000000480040120700001B
:1027D8002C000000005000401208000035000000E6
:1027E8000044004012070000380000000048004084
:1027F80012070000FFFFFFFF0000000000000000BC
:1028080000000000010000000200000003000000BA
:10281800040000000500000006000000070000009A
:10282800100000001100000020000000210000003E
:102838002200000023000000240000002500000002
:10284800000000000100000002000000030000007A
:10285800040000000500000006000000070000005A
:1028680008000000090000000A0000000B0000003A
:102878000C0000000D0000000E0000000F0000001A
:1028880010000000110000001200000013000000FA
:1028980014000000150000001600000017000000DA
:1028A80018000000190000001A0000001B000000BA
:1028B8001C0000001D0000001E0000001F0000009A
:1028C800200000002100000022000000230000007A
:1028D800240000002500000026000000270000005A
:1028E80028000000290000002A0000002B0000003A
:1028F8002C0000002D0000002E0000002F0000001A
:1029080030000000310000003200000033000000F9
:1029180034000000350000003600000037000000D9
:1029280038000000390000003A0000003B000000B9
:102938003C0000003D0000003E0000003F00000099
:102948004000000041000000420000004300000079
:102958004400000045000000460000004700000059
:1029680048000000490000004A0000004B00000039
:102978004C0000004D0000004E0000004F00000019
:10298800700000007100000000000000000000005E
:10299800C31E00083D1F0008A71E00088920000864
:1029A8007D1E0008E92100088D1E00085722000836
:0429B8007922000878
:1029BC00E51D0008AD010008611A00081922000885
:0829CC0089010008391B000815
:1029D400204E000001000000100000000030024002
:1029E400000000000024F4001C000020000000008F
:1029F40084210020EC21002054220020000000004B
:102A040000000000000000000000000000000000C2
:102A140000000000000000000000000000000000B2
:102A240000000000000000000000000000000000A2
:082A340000000000000000009A
:0400000508001E09C8
:00000001FF
