:020000040800F2
:100000000000022029230008792300087923000832
:1000100079230008792300087923000800000000F4
:10002000000000000000000000000000792300082C
:10003000792300080000000079230008771D0008DC
:100040007923000879230008792300087923000820
:1000500079230008792300086D1E0008731E00082C
:10006000791E00087F1E0008851E000879230008FD
:1000700079230008792300087923000879230008F0
:1000800079230008792300087923000879230008E0
:100090007923000879230008792300088B1E0008C3
:1000A000AD1C0008C51B0008C11C0008E91B0008A6
:1000B000FD1B0008111C0008251C000879230008FE
:1000C00079230008792300087923000879230008A0
:1000D00079230008A1210008B9210008D5210008D2
:1000E000B31E00087923000879230008D51C0008F6
:1000F000751C0008E91C0008991C000879230008F9
:100100007923000879230008391C000879230008A6
:10011000F1210008092200084D1C0008611C00089C
:10012000792300087923000879230008792300083F
:10013000792300087923000879230008792300082F
:10014000792300087923000879230008792300081F
:100150007923000879230008792300082122000868
:1001600079230008792300087923000879230008FF
:100170007923000879230008792300080000000093
:0801800079230008792300082F
:1001880053B94AB9002908BF00281CBF4FF0FF31F6
:100198004FF0FF3000F00CB8ADF1080C6DE904CE5B
:1001A80002F04AFBDDF804E0DDE9022304B0704701
:1001B800704700BF10B5054C237833B9044B13B111
:1001C8000448AFF300800123237010BD64000020B1
:1001D80000000000402B000808B5034B1BB1034981
:1001E8000348AFF3008008BD00000000680000204D
:1001F800402B0008054A013810F8013F03B9704741
:1002080011680906FCD55360F6E700BF00100140ED
:1002180010B509491C2220FA02F303F00F030C68F9
:100228002406FCD5092B94BF30333733043A4B608E
:10023800131DF0D110BD00BF0010014082B0019025
:10024800019B5A1E0192002BFAD102B070470000A0
:10025800034B4FF4B6729A6042F20C02DA607047B0
:1002680000100140F8B5B848B84EB94DFFF7F0FF97
:10027800FFF7C0FFB74A41F6FF73136012689A424E
:1002880040F09B833468B448FFF7B4FFB348FFF7E6
:10029800B1FF0134B248FFF7ADFF3460AD4B5B6886
:1002A800002B40F097833468AB48FFF7A3FFAD48B5
:1002B800FFF7A0FF0134AA48FFF79CFF3460A54B65
:1002C80000221A601B68002B40F091833468A24812
:1002D800FFF790FFA448FFF78DFF0134A048FFF710
:1002E80089FF34609B4B4FF480721A601B689342FD
:1002F80040F08A8334689848FFF77CFF9B48FFF7F3
:1003080079FF01349648FFF775FF3460984BD3F8AE
:10031800003C7F2B40F0858334688F48FFF76AFFE5
:100328009448FFF767FF01348D48FFF763FF346097
:100338008F4B2A22C3F8002CD3F8003C934240F09C
:100348007D8334688448FFF755FF8B48FFF752FFD9
:1003580001348348FFF74EFF3460854A47F6FF7340
:10036800C2F8043CD2F8042C9A4240F074833468F2
:100378007948FFF73FFF8148FFF73CFF0134784891
:10038800FFF738FF34607A4B7F22C3F8002CD3F88C
:10039800083C002B40F06C8334686F48FFF72AFF55
:1003A8007748FFF727FF01346D48FFF723FF3460D4
:1003B8006F494123C1F8003C4FF4C073C1F8043CB5
:1003C8004FF4FA60FFF73AFFD1F8083CD90740F13B
:1003D8005C8334686048FFF70DFF6A48FFF70AFF3F
:1003E80001345F48FFF706FF3460614B7F22C3F892
:1003F800002C03F58053DB68002B40F053833468EE
:100408005548FFF7F7FE6048FFF7F4FE01345448FB
:10041800FFF7F0FE34605D4B45F255521A60052235
:100428005A605B68934240F04A8334684A48FFF751
:10043800E1FE5748FFF7DEFE01344948FFF7DAFED0
:100448003460524A40F6BC23936092689A4240F066
:10045800438334684048FFF7CDFE4E48FFF7CAFE95
:1004680001343F48FFF7C6FE346048494CF6CC4398
:100478004AF6AA2445F255520C600B600A6007221E
:100488004A6040F6FF728A6064200B60FFF7D6FE70
:100498000C603148FFF7AEFE3F48FFF7ABFE30482F
:1004A800FFF7A8FE324B3768D3F80C387C1CDA0704
:1004B800346040F11E832848FFF79CFE3748FFF759
:1004C80099FEBC1C2648FFF795FE3460284A344B39
:1004D800C2F80038D2F800289A4240F017831E4824
:1004E800FFF788FE2F48FFF785FE01341C48FFF709
:1004F80081FE34601E4A2C4BC2F80438D2F8042816
:100508009A4240F010831448FFF774FE2748FFF71B
:1005180071FE01341248FFF76DFE3460144B4FF042
:10052800A532C3F85028D3F85038934240F00883D6
:100538000948FFF75FFE1E48FFF75CFE01340848D4
:10054800FFF758FE36E000BF582B00088400002053
:100558008000002000700040712B0008772B0008F5
:10056800172E00088F2B0008A12B0008B02B0008BD
:1005780000200040BC2B0008CC2B0008DA2B000818
:10058800E92B0008FB2B0008092C0008003000406C
:10059800192C0008342C0008432C0008532C0008A0
:1005A80059235900652C000831062100722C0008D7
:1005B8007F2C00083460B94BD3F81028B84B9A4206
:1005C80040F0CB82B748FFF715FEB748FFF712FE99
:1005D8000134B648FFF70EFE3460B54B01229A602D
:1005E800B44A1A601B68934200F0C482013300F0D9
:1005F800C182AC48FFF7FEFDAF48FFF7FBFD0134B1
:10060800AA48FFF7F7FD3460A94BAB225A605B6834
:10061800934240F0BC82A348FFF7ECFDA748FFF7E0
:10062800E9FD0134A148FFF7E5FD3460A04B012244
:100638009A601B68013340F0B7829A48FFF7DAFDE9
:100648009F48FFF7D7FD01349848FFF7D3FD346082
:100658009C4B0422C3F80028D3F80438DB0740F188
:10066800B0829048FFF7C6FD9748FFF7C3FD0134F5
:100678008E48FFF7BFFD3460924BD3F80828D3F8B3
:100688000438DF0700F1EA828648FFF7B3FD8F4898
:10069800FFF7B0FD01348548FFF7ACFD34608C4AA4
:1006A8008C4BC2F80034D2F800249A4240F0E3821E
:1006B8007C48FFF79FFD8848FFF79CFD01347B4885
:1006C800FFF798FD3460824A40F2FF73C2F808349D
:1006D800D2F82C249A4240F0DB827248FFF78AFD58
:1006E8007E48FFF787FD01347048FFF783FD3460CB
:1006F800774B0022C3F80824D3F82C34002B40F0A1
:10070800D4826848FFF776FD7548FFF773FD01341A
:100718006648FFF76FFD3460724BD3F800349807D2
:1007280040F1D0825F48FFF765FD6F48FFF762FD33
:1007380001345E48FFF75EFD34606A4B1022C3F84F
:100748000024D3F8003423F0C0035B045B0C93420D
:1007580040F0C5825348FFF74DFD6448FFF74AFD56
:1007680001345248FFF746FD34605E4A6FF040435B
:10077800C2F81C34D2F81C249A4240F0BD82494881
:10078800FFF738FD5A48FFF735FD01344748FFF7B2
:1007980031FD3460534A40F2FF73C2F81434D2F882
:1007A80014249A4240F0B5823E48FFF723FD514891
:1007B800FFF720FD01343D48FFF71CFD3460494B2D
:1007C800D3F81834002B40F0B1823648FFF712FDF9
:1007D8004948FFF70FFD01343448FFF70BFD34603B
:1007E800464E474D43F6FF73C6F8043CD6F8042C32
:1007F8009A4240F0A8822B48FFF7FCFC4148FFF7DB
:10080800F9FC2A48FFF7F6FC3F4B01341C604523EE
:10081800C6F80C3CD6F8343C590640F1A182214870
:10082800FFF7E8FC3948FFF7E5FC2048FFF7E2FC52
:10083800354B01341C604023C6F8383CD6F8343CAC
:100848005A0600F19A821748FFF7D4FC3048FFF7A0
:10085800D1FC1648FFF7CEFC2B4B01341C602D4B06
:100868005B68002B40F096820E48FFF7C3FC2A48CD
:10087800FFF7C0FC0D48FFF7BDFC234B01341C609B
:10088800244A264B136012689A4240F09082054829
:10089800FFF7B0FC2248FFF7ADFC43E00020004022
:1008A800FF007F00712B0008932C0008172E00080A
:1008B8000030024078563412A42C0008B12C0008ED
:1008C800BF2C000800000650D02C0008E92C0008B6
:1008D80000700040FFFF3F3FFC2C0008092D000876
:1008E8001D2D000800600040362D0008482D000826
:1008F800562D0008642D0008722D000800200140C4
:1009080080000020842D000884000020952D000818
:10091800AC2D000800000550C42D0008FF3FFF7FE4
:10092800D62D0008AD48FFF765FCAD4B01341C60BF
:10093800AC4901230B604FF4FA70FFF77FFC8E6A15
:10094800FFF77CFC8B6A9E4200F03E82A648FFF7C8
:1009580051FCA648FFF74EFCA048FFF74BFCA04B04
:1009680001341C609F4B5B685B0740F13A829E48EC
:10097800FFF740FC9E48FFF73DFC9848FFF73AFC1C
:10098800974B01341C609B48FFF734FC9A48FFF7EB
:1009980031FC2046FFF73CFC9048FFF72BFC9748BA
:1009A800FFF728FC2868FFF733FC8C48FFF722FC88
:1009B800BDE8F8409248FFF71DBC2C689148FFF746
:1009C80019FC9148FFF716FC01348448FFF712FC24
:1009D8002C6063E42C688B48FFF70CFC8B48FFF70E
:1009E80009FC01347D48FFF705FC2C6067E42C689E
:1009F8008448FFF7FFFB8648FFF7FCFB0134774884
:100A0800FFF7F8FB2C606DE42C687E48FFF7F2FBDB
:100A18008048FFF7EFFB01347048FFF7EBFB2C60D1
:100A280074E42C687748FFF7E5FB7B48FFF7E2FBA7
:100A380001346A48FFF7DEFB2C6079E42C687148C2
:100A4800FFF7D8FB7548FFF7D5FB01346348FFF77C
:100A5800D1FB2C6081E42C686A48FFF7CBFB704817
:100A6800FFF7C8FB01345D48FFF7C4FB2C608AE43C
:100A78002C686448FFF7BEFB6A48FFF7BBFB0134EC
:100A88005648FFF7B7FB2C6092E42C685D48FFF7E7
:100A9800B1FB6548FFF7AEFB01345048FFF7AAFBEE
:100AA8002C60A2E42C685748FFF7A4FB5F48FFF7C7
:100AB800A1FB01344948FFF79DFB2C60ABE42C688F
:100AC8005048FFF797FB5A48FFF794FB0134434817
:100AD800FFF790FB2C60B4E42C684A48FFF78AFBC8
:100AE8005448FFF787FB01343C48FFF783FB2C6031
:100AF800BBE42F684348FFF77DFB4F48FFF77AFBBD
:100B080001373648FFF776FB2F60DFE42F683D4852
:100B1800FFF770FB4948FFF76DFB01372F48FFF7D8
:100B280069FB2F60E6E42F683648FFF763FB44480B
:100B3800FFF760FB01372948FFF75CFB2F60EDE406
:100B48002F683048FFF756FB3E48FFF753FB013745
:100B58002248FFF74FFB2F602DE52F682948FFF744
:100B680049FB3948FFF746FB01371C48FFF742FBB2
:100B78002F6032E52348FFF73DFB3448FFF73AFB87
:100B88001648FFF737FB2B6801332B603CE52F68CD
:100B98001C48FFF72FFB2E48FFF72CFB01370F48A7
:100BA800FFF728FB2F6041E52F681648FFF722FB67
:100BB8002848FFF71FFB01370848FFF71BFB2F608A
:100BC80046E52F680F48FFF715FB2348FFF712FB90
:100BD80001370248FFF70EFB2F604DE5172E00087E
:100BE8008400002000000550712B0008E42D000847
:100BF800F92D0008062E0008192E0008202E0008DE
:100C0800272E0008892B0008772B00088F2B000857
:100C1800A12B0008B02B0008BC2B0008CC2B000827
:100C2800DA2B0008E92B0008FB2B0008092C000828
:100C3800192C0008342C0008532C0008652C0008D7
:100C4800722C00087F2C0008932C0008A42C0008A4
:100C5800B12C0008BF2C0008D02C00082F6867486A
:100C6800FFF7C8FA6648FFF7C5FA01376548FFF786
:100C7800C1FA2F6013E52F686048FFF7BBFA624896
:100C8800FFF7B8FA01375F48FFF7B4FA2F601AE5A3
:100C98002F685A48FFF7AEFA5C48FFF7ABFA0137FE
:100CA8005848FFF7A7FA2F6022E52F685348FFF747
:100CB800A1FA5748FFF79EFA01375248FFF79AFA08
:100CC8002F6029E52F684D48FFF794FA5148FFF740
:100CD80091FA01374B48FFF78DFA2F602DE52F6801
:100CE8004648FFF787FA4C48FFF784FA013745482A
:100CF800FFF780FA2F6038E52F684048FFF77AFA47
:100D08004648FFF777FA01373E48FFF773FA2F6036
:100D180040E52F683948FFF76DFA4148FFF76AFA4E
:100D280001373848FFF766FA2F6048E52E683348E0
:100D3800FFF760FA3B48FFF75DFA01363148FFF7E5
:100D480059FA2E604CE52F682C48FFF753FA3648BD
:100D5800FFF750FA01372B48FFF74CFA2F6056E59A
:100D68002F682648FFF746FA3048FFF743FA01375D
:100D78002448FFF73FFA2F605DE52E681F48FFF70C
:100D880039FA2B48FFF736FA01361E48FFF732FAD0
:100D98002E6064E52E681948FFF72CFA2548FFF7FE
:100DA80029FA01361748FFF725FA2E6068E52E68FC
:100DB8001248FFF71FFA2048FFF71CFA01361148BE
:100DC800FFF718FA2E60B3E52E680C48FFF712FA01
:100DD8001A48FFF70FFA01360A48FFF70BFA2E6098
:100DE800C0E52E680548FFF705FA1548FFF702FA2F
:100DF80001360448FFF7FEF92E60C4E5892B000888
:100E0800E92C0008172E0008FC2C0008092D000802
:100E18001D2D0008362D0008482D0008562D000805
:100E2800642D0008722D0008842D0008952D0008F7
:100E3800AC2D0008C42D0008D62D0008E42D0008AC
:100E4800F92D00087047704738B50E4B1A784FF4E3
:100E58007A73B3FBF2F30C4A05461068B0FBF3F063
:100E680000F0A6F8044658B90F2D09D802462946BD
:100E78004FF0FF3000F04AF8044B20461D6038BDA3
:100E88000120FCE7000000201000002004000020E2
:100E980008B50B4B1A6842F400721A601A6842F4DB
:100EA80080621A601A6842F480721A60032000F0A7
:100EB8001BF80020FFF7C8FFFFF7C5FF002008BD9B
:100EC800003C0240034A044B11681B780B44136032
:100ED800704700BF8800002000000020014B186800
:100EE800704700BF880000200749CA6822F4E06202
:100EF8000302120403F4E063120C134343F0BF63CC
:100F080043F40033CB60704700ED00E0164B30B57A
:100F1800DC68C4F30224C4F10703251D042B28BF91
:100F28000423062D4FF0FF358CBF033C002405FA3F
:100F380003F321EA0303A54022EA0502A34000289F
:100F480043EA0203ACBF00F16040084A4FEA0313CA
:100F5800B8BF00F00F00DBB2AABF00F56140135420
:100F680080F8003330BD00BF00ED00E014ED00E074
:100F7800002807DB044A4109012300F01F008340D1
:100F880042F82130704700BF00E100E000280CDB88
:100F98004309064900F01F0020330122824041F82E
:100FA8002320BFF34F8FBFF36F8F704700E100E03E
:100FB8000138B0F1807F0BD24FF0E023054A586129
:100FC800F02182F823100020072298611A617047E7
:100FD8000120704700ED00E0002808DB43090449C0
:100FE80000F01F0001226033824041F8232070473F
:100FF80000E100E0704708B5FFF7FCFF08BD704747
:1010080010B5044650B1437903F0FF0213B90271D9
:10101800FFF7F5FF01236371002010BD0120FCE7F5
:1010280070B50446866DFFF759FF94F83530022BEA
:10103800054606D0802363650120002384F83430F8
:1010480070BD23681A6822F016021A605A6922F0E5
:1010580080025A61226C0AB9A26C1AB11A6822F08D
:1010680008021A601A6822F001021A6023681868D8
:1010780010F0010007D1E26D3F239340B3600123D4
:1010880084F83530D9E7FFF729FF401B0528EDD94B
:1010980020230320636584F83500CEE790F83530C7
:1010A800022B03D080234365012070470268052383
:1010B80080F83530136823F001031360002070476F
:1010C800044A5169014208B502D0506100F0B4FEEB
:1010D80008BD00BF003C01402DE9F341044640B380
:1010E8000368DE0710D423689D075BD423681907BB
:1010F80000F19D8023685A0700F1BD80A369002B89
:1011080040F0248100202CE08D4B9A6802F00C02FC
:10111800042A07D09A6802F00C02082A0BD15B68EF
:10112800590208D5864B1B689A03DCD56368002BE7
:10113800D9D1012015E06368814DB3F5803F13D103
:101148002B6843F480332B60FFF7C8FE7C4E0546BE
:1011580033689B03C7D4FFF7C1FE401B6428F7D947
:10116800032002B0BDE8F081B3F5A02F04D12B68AD
:1011780043F480232B60E3E72A6822F480322A6054
:101188002A6822F480222A60002BDDD1FFF7A6FE10
:1011980006462B689F03A6D5FFF7A0FE801B642890
:1011A800F7D9DDE7664B9A6812F00C0F07D09A68FA
:1011B80002F00C02082A11D15B685D020ED4604A65
:1011C8001368990702D5E368012BB2D11368216926
:1011D80023F0F80343EAC103136087E7E268594B39
:1011E800B2B101221A60FFF779FE554D06462B6809
:1011F8009B0707D52B68226923F0F80343EAC2034B
:101208002B6073E7FFF76AFE801B0228EFD9A7E778
:101218001A60FFF763FE4A4E054633689F077FF55D
:1012280065AFFFF75BFE401B0228F6D998E76269B5
:10123800444B82B10122C3F8802EFFF74FFE404E87
:101248000546736F9B073FF555AFFFF747FE401BF9
:101258000228F6D984E7C3F8802EFFF73FFE384E00
:101268000546736F9F077FF545AFFFF737FE401BB5
:101278000228F6D974E7324B1A6C12F0805228D142
:1012880001921A6C42F080521A641B6C03F080536E
:101298000193019B01272C4D2B68D8051BD5A3680A
:1012A800274D012B27D12B6F43F001032B67FFF745
:1012B80015FE234E054641F28838336F9A0739D513
:1012C800002F3FF41BAF1E4A136C23F080531364A6
:1012D80014E70027DFE72B6843F480732B60FFF7E0
:1012E800FDFD06462B68D905D9D4FFF7F7FD801B0D
:1012F8000228F7D934E7052B04D12B6F43F00403F8
:101308002B67D0E72A6F22F001022A672A6F22F0A2
:1013180004022A67002BCAD1FFF7E0FD41F28838A2
:1013280006462B6F9B07CBD5FFF7D8FD801B4045A2
:10133800F7D915E7FFF7D2FD401B4045BDD90FE7A8
:10134800003802400000474200700040374DAA684C
:1013580002F00C02082A3ED0022B354B4FF0000257
:101368001A662BD1FFF7BAFD06462B6899011FD4E0
:10137800D4E907321343626A43EA8213E26A43EA12
:101388000263A26A5208013A43EA02436B60284B9F
:10139800264D01221A66FFF7A1FD04462B689A0123
:1013A8003FF5B0AEFFF79AFD001B0228F6D9D7E645
:1013B800FFF794FD801B0228D7D9D1E6FFF78EFDF1
:1013C80004462B689B017FF59DAEFFF787FD001B48
:1013D8000228F6D9C4E6012B3FF4ABAE6B68E2698C
:1013E80003F4800191427FF4A4AE216A03F03F0226
:1013F8008A427FF49EAE616A47F6C0721A40B2EB29
:10140800811F7FF496AEA26A520803F44031013A74
:10141800B1EB024F7FF48DAEE26A03F07063B3EB79
:10142800026F14BF012000209BE600BF0038024075
:1014380000004742134908B58B6803F00C03042BDE
:101448001CD0082B1CD14A684B68496813F48003E8
:1014580014BF0D480D48C1F3881118BF002302F0CE
:101468003F02A1FB0001FEF78BFE064B5B68C3F34E
:10147800014301335B00B0FBF3F008BD0248FCE711
:101488000248FAE70038024000127A000024F4000B
:101498002DE9F0410D46044610B90120BDE8F08160
:1014A800434B1A6802F007028A4228D321688F0743
:1014B8002DD4C80740D43E4B1A6802F00702AA424E
:1014C80065D8226851076BD4130707D5394A2169B3
:1014D800936823F4604343EAC1039360FFF7AAFFCC
:1014E800344B354A9B68C3F30313D35CD840334B62
:1014F8001860334B1868FFF7A7FC0020CEE7CAB284
:101508001A701B6803F007038B42C6D1CEE7294B3C
:1015180011F0040F1EBF9A6842F4E0529A600E0759
:1015280042BF9A6842F460429A609A68A06822F0C2
:10153800F00202439A60BCE762681E4B012A1CD184
:101548001B6813F4003FA8D01A4EB36823F00303B6
:101558001343B360FFF7C2FC41F288380746B3680B
:10156800626803F00C03B3EB820FA4D0FFF7B6FC5C
:10157800C01B4045F3D9032090E7911E01291B6841
:1015880002D813F0007FDEE713F0020FDBE7EAB2C0
:101598001A701B6803F00703AB427FF47EAF90E735
:1015A8000449E0688B6823F4E05303438B608BE7BE
:1015B800003C024000380240352E00081000002090
:1015C8000400002070477047036870B5DD681E6925
:1015D800B10704460DD5AA070BD56FF002021A61B0
:1015E800012202779B699B0769D000F0BBFB0023AF
:1015F8002377710710D56A070ED523686FF00402A8
:101608001A61022222779B6913F4407F20465CD03E
:1016180000F0A8FB0023237733070FD528070DD543
:1016280023686FF008021A6104222277DB699907A0
:10163800204650D000F096FB00232377F20610D501
:10164800EB060ED523686FF010021A610822227784
:10165800DB6913F4407F204643D000F083FB00236E
:101668002377F00708D5E90706D523686FF001024C
:101678001A61204600F053FB320608D52B0606D522
:1016880023686FF080021A61204600F032F8700675
:1016980008D5690606D523686FF040021A6120460E
:1016A800FFF791FFB20622D5AB0620D523686FF06D
:1016B800200220461A61BDE8704000F019B800F019
:1016C8004FFB2046FFF77EFF91E700F049FB2046DD
:1016D800FFF778FF9EE700F043FB2046FFF772FF15
:1016E800AAE700F03DFB2046FFF76CFFB7E770BDA7
:1016F80070477047026802F10C0353E8003F23F477
:1017080090730C3242E8003102680029F2D102F1EC
:10171800140353E8003F23F0010302F1140C4CE8D2
:1017280000310029F3D1036B012B0BD102F10C031B
:1017380053E8003F23F0100302F10C0C4CE8003191
:101748000029F3D1202380F8423000230363704737
:1017580090F84130202B10D189B182B1C284016246
:101768008284016800232122436480F84120CA68EA
:1017780042F08002CA601846704702207047012074
:10178800704708B5806B0023C38500F0C7FC08BD0F
:10179800704790F84230222B07B542D18168026821
:1017A800836AB1F5805F3FD1016900293FD1526852
:1017B800C2F3080223F8022B8362C38D013B9BB25C
:1017C800C385002B2DD10268D16821F02001D1609A
:1017D800D16821F48071D160516921F00101516112
:1017E800202280F842204363026B012A026828D134
:1017F800036302F10C0353E8003F23F0100302F1E6
:101808000C0C4CE800310029F3D11368DB0605D530
:1018180001911368019353680193019B818DFFF730
:10182800B7FF03B05DF804FB39B9016929B95268FB
:10183800D2B21A70836A0133BEE7526802F07F029F
:10184800F7E700F065FCECE703681A6873B516075C
:10185800D9685D69044608D1960668D58D0666D5AF
:1018680002B0BDE87040FFF794BF05F0010001F435
:10187800907505435BD0D60705D5CD0542BF636C8F
:1018880043F001036364530704D518B1636C43F054
:1018980002036364960704D518B1636C43F004032C
:1018A8006364150707D501F0200303431EBF636C6B
:1018B80043F008036364636C002B32D0920604D5AE
:1018C8008B0602D52046FFF764FF26687369626CB1
:1018D80003F0400302F0080253EA0205204622D032
:1018E800FFF708FF73695E0618D5226802F1140332
:1018F80053E8003F23F04003143242E80031002946
:10190800F3D1E06B50B1774B0365FFF7C7FB40B1EC
:10191800E06B036D02B0BDE870401847204600F048
:10192800FDFB02B070BD00F0F9FB6564F9E7206BC0
:10193800012840F09B80D50640F19880C80640F108
:101948009580002201921A6801925A680192019AC0
:101958005A69A18D520656D5E06B0268526892B258
:10196800002A47D0914245D9E285C269B2F5807F05
:1019780036D003F10C0252E8002F22F4807203F1F2
:101988000C0040E800210029F3D103F1140252E8C9
:10199800002F22F0010203F1140040E80021002981
:1019A800F3D103F1140252E8002F22F0400203F1B0
:1019B800140040E800210029F3D1202284F84220B5
:1019C800216303F10C0252E8002F22F0100203F108
:1019D8000C0040E800210029F3D1E06BFFF720FB61
:1019E80002236363E38DA18DC91A89B22046FFF7EC
:1019F800CFFE96E7914294D1C369B3F5807F90D129
:101A080002236363F2E7E28DE08D80B292B2002890
:101A180087D0891A89B2002983D003F10C0252E8D1
:101A2800002F22F4907203F10C0545E800200028ED
:101A3800F3D103F1140252E8002F22F0010203F15E
:101A4800140545E800200028F3D1202284F842201C
:101A5800206303F10C0252E8002F22F0100203F178
:101A68000C0545E800200028F3D1C9E7160628D55B
:101A78000D0626D594F84120212A7FF452AFA1689B
:101A8800226AB1F5805F17D12169A9B932F8021B22
:101A9800C1F3080159602262E28C013A92B2E284F1
:101AA800002A7FF43EAFDA6822F08002DA60DA6852
:101AB80042F04002DA6034E7511C216212785A6021
:101AC800EAE750067FF52DAF4A067FF52AAFDA68B8
:101AD80022F04002DA60202384F84130204600F0EA
:101AE8001AFB1EE78B17000890F84030012B11D025
:101AF8000268242380F84130D36823F00C0343F0B4
:101B08000803D360202380F84130002380F8403058
:101B1800184670470220704790F84030012B11D0CA
:101B28000268242380F84130D36823F00C0343F083
:101B38000403D360202380F84130002380F840302C
:101B4800184670470220704790F8412090F84200EC
:101B580010437047C28500238285026943642223AB
:101B680080F84230816203681AB1DA6842F4807200
:101B7800DA605A6942F001025A61DA6842F02002DA
:101B8800DA600020704770B590F84260202E07D1C7
:101B980041B13AB100240463FFF7DCFF204670BD71
:101BA8000220FCE70120FAE7836810B5044613B168
:101BB800032201469847204610BD000010B5074C87
:101BC800206810B10430FFF7FFFC606A20B1BDE85F
:101BD80010400430FFF7F8BC10BD00BF8C00002097
:101BE800034B186810B10430FFF7EEBC704700BF14
:101BF8008C000020034B586810B10430FFF7E4BC98
:101C0800704700BF8C000020034B986810B1043067
:101C1800FFF7DABC704700BF8C000020034BD86880
:101C280010B10430FFF7D0BC704700BF8C00002013
:101C3800034B186910B10430FFF7C6BC704700BFEA
:101C48008C000020034B586910B10430FFF7BCBC6E
:101C5800704700BF8C000020034B986910B1043016
:101C6800FFF7B2BC704700BF8C00002010B5074CCE
:101C7800E06910B10430FFF7A7FC206B20B1BDE884
:101C880010400430FFF7A0BC10BD00BF8C0000203E
:101C9800034BD86910B10430FFF796BC704700BFFA
:101CA8008C000020034B186A10B10430FFF78CBC7D
:101CB800704700BF8C000020034B986A10B10430B5
:101CC800FFF782BC704700BF8C000020034BD86A26
:101CD80010B10430FFF778BC704700BF8C000020BB
:101CE800034B586B10B10430FFF76EBC704700BF50
:101CF8008C000020826810B50AB900F019FFBDE811
:101D08001040C368184708B500B9FEE700F09EF90F
:101D18000068836E13B16030FFF7ECFF08BDFFF772
:101D2800F2BF10B500B9FEE7037F013B072B10D8BF
:101D3800DFE803F004140F100F0F0F12012400F056
:101D480085F90068063400EB041083680BB1FFF7CF
:101D5800D1FF10BD0324F2E70424F0E70224EEE7E4
:101D6800FFF7DFBFFFF7DDBFFFF7B8B8704708B56B
:101D7800FFF7A8F8FFF73FF9FFF7F8FF08BD70472E
:101D880084B0114B00220192196C41F08051196402
:101D9800196C01F08051019101990292596C41F43A
:101DA80080415964596C01F480410291029903926F
:101DB8001A6B42F480521A631B6B03F4805303932B
:101DC800039B04B0704700BF003802400C4BD3F8A7
:101DD800FC20D2015EBFD3F8FC2042F08072C3F829
:101DE800FC20084B00225A601A6842F001021A606F
:101DF80000BF00BF00BF5868B0FA80F040097047C4
:101E080000ED00E0001000E008B5FFF7B9FFFFF7AC
:101E1800DDFFFFF73DF8FFF7B2FF00F015FABDE868
:101E280008400148FFF7ECB8080000200023C0E98B
:101E38000033C0E9023370470023012803F101028F
:101E48000AD11422DBB25343054A181D1044816895
:101E580029B11A441369184740081346EDE770473B
:101E6800C40000200120FFF72BB90220FFF728B992
:101E78000420FFF725B90820FFF722B91020FFF743
:101E88001FB908B52020FFF71BF94020FFF718F904
:101E98008020FFF715F94FF48070FFF711F9BDE8BE
:101EA80008404FF40070FFF70BB938B506244FF41B
:101EB8008065A8B2FFF704F9013C4FEA4505F8D15F
:101EC80038BD0000344A104608B5062300F8043B24
:101ED800FFF7ACFF072302F118001375FFF7A6FF01
:101EE800082302F12C0082F82830FFF79FFF09230E
:101EF80002F1400082F83C30FFF798FF0A2302F114
:101F0800540082F850301721FFF790FF02F1680063
:101F180082F86410FFF78AFF02F17C0082F87810DB
:101F2800FFF784FF02F1900082F88C10FFF77EFF24
:101F380002F1A40082F8A010FFF778FF02F1B800C0
:101F480082F8B4102821FFF771FF02F1CC0082F863
:101F5800C810FFF76BFF02F1E00082F8DC10FFF712
:101F680065FF02F1F40082F8F010FFF75FFF02F559
:101F7800847082F80411FFF759FF02F58E7082F819
:101F88001811FFF753FFBDE8084002F5987082F872
:101F98002C11FFF74BBF00BFC400002038B5054C1B
:101FA800A4F5A075143C201DFFF7FEFDAC42F9D145
:101FB80038BD00BF040200200B685A1C01D1002064
:101FC8007047834201D1486870470C31F4E7431CDD
:101FD80001D0FFF7F1BF002070474B6813B94FF0ED
:101FE800FF307047834201D1086870470C31F4E72D
:101FF80008B1FFF7F2BF4FF0FF3070471049D1F832
:10200800883043F47003C1F888300E4B1A6842F0E8
:1020180001021A6000229A601A6822F0847222F47F
:1020280080321A60084A5A601A6822F480221A60BC
:102038004FF43F02DA604FF000638B60704700BFD7
:1020480000ED00E0003802401030002404387047EA
:1020580008B5074B90F8652053F82200FFF774FD88
:1020680000F02200A0F122035842584108BD00BFE9
:102078000402002008B5074B90F8652053F82200A9
:10208800FFF762FD00F02100A0F1210358425841FA
:1020980008BD00BF0402002038B515460446B8B193
:1020A800016590F96400FEF771FFE36EB4F87610ED
:1020B80094F8650013FA81F1064BAAB253F8200090
:1020C800FFF746FB94F96400BDE83840FEF750BFBF
:1020D80038BD00BF0402002048B1836D013306D12A
:1020E80090F86520024B53F82200FFF7FDBC7047BB
:1020F8000402002048B1836D013306D190F86520B1
:10210800024B53F82200FFF707BD70470402002076
:10211800836C04381847C36C0438184730B5044634
:1021280050F804391D6815F0010585B012D0002259
:1021380000921A6800925B680093009BFFF788FF83
:1021480040BB012204F16201204605B0BDE83040E1
:10215800FFF719BD196811F0020106D001951A6838
:1021680001925B680193019BE8E71A6812F0040288
:1021780006D002911A6802925B680293029BDDE71F
:1021880019680907DAD503921A6803925B68039302
:10219800039BD3E705B030BD08B52520FEF71CFF2B
:1021A800024B1868BDE80840FFF74EBB0402002048
:1021B80008B52620FEF710FF034B586818B1BDE894
:1021C8000840FFF741BB08BD0402002008B52720DE
:1021D800FEF702FF034B986818B1BDE80840FFF707
:1021E80033BB08BD0402002008B53420FEF7F4FE16
:1021F800024BD868BDE80840FFF726BB0402002060
:1022080008B53520FEF7E8FE024B1869BDE808401E
:10221800FFF71ABB0402002008B54720FEF7DCFED2
:10222800024B5869BDE80840FFF70EBB04020020C6
:10223800FEE70000024B16221A604FF0FF3070478D
:102248006C0400200120704730B595B010220021A1
:102258000AA800F06BFA1422002103A800F066FA1D
:10226800244C00220092236C43F080532364236C97
:1022780003F080530093009B1F4B01921A6842F4AD
:1022880080421A601B6803F480430193019B01217B
:102298004FF480330225CDE908134FF4800308205A
:1022A800CDE90E534FF4A873CDE91003072308A80E
:1022B80012951393FEF710FF00B1FEE70F23CDE947
:1022C800033505904FF4A0524FF48053052103A81D
:1022D800CDE90623FFF7DCF800B1FEE70290236B97
:1022E80043F480132363236B03F480130293029B4C
:1022F80015B030BD003802400070004008B503201A
:10230800FEF7F2FDBDE8084000F042B808B5AFF3AB
:102318000080FDF7A7FFFEF795FD00F02BF8FAE720
:10232800DFF834D0FFF76AFE0C480D490D4A002348
:1023380002E0D458C4500433C4188C42F9D30A4A72
:102348000A4C002301E013600432A242FBD300F0E0
:10235800F5F9FFF7DBFF70470000022000000020BE
:1023680064000020E03000086400002070040020B1
:10237800FEE7000008B5044B2BB1044800F00AF84A
:1023880008B1AFF3008008BD000000001C02002067
:10239800FFF73ABDB0F80831B0F80421981A00F0F8
:1023A8003F007047B0F80831B0F804219BB293425F
:1023B8001ABFD0F8FC30985C4FF0FF30704790F8A7
:1023C8000631B0F80A01C0B2834227BFC3F13F0308
:1023D800C018C01A00F1FF30704707B503688DF8C0
:1023E80007105B6801220DF10701984703B05DF8FB
:1023F80004FB0000B0F87620816F11FA82F202F037
:102408003F0210B5A0F87620B0F87610B0F8722028
:1024180089B28A421AD0B0F87640B0F87610A4B2E1
:102428004032121B544289B204F03F0402F03F02CA
:10243800C1F1400158BF62428A4228BF0A468267FA
:102448000349FFF729FE4FF0FF3010BD0020FCE7DD
:10245800FD2300082DE9F843036804469B68884675
:102468001646984701232374D4F8EC30B4F8067163
:1024780001338146C7F1400709D194F8113133B1CE
:10248800002384F8113104F19400FFF725FE236836
:1024980020469B6898470028F9D03546BD4225D884
:1024A8004D4523D8B4F80631D4F800015A19402A0A
:1024B800184430D82A46414600F064F92F46B4F84B
:1024C80006311D4405F03F05A4F8065104F19405B2
:1024D8002846FFF7CFFD30B91649C4F80C713A46C3
:1024E8002846FFF7D9FD3046BDE8F8834F452368F5
:1024F80028BF4F463A4641465B68204698472368BE
:1025080020469B689847ED1BB844B4F8067181468D
:10251800C7F14007C2E7C3F140073A46414600F019
:1025280031F9D4F80001EA1B08EB070100F02AF999
:10253800C5E700BFFD230008C0F8F030009BC0F8D5
:10254800F430914208BF4FF0FF3100F11403C0E9A5
:102558003A21C0F8FC3000F154020023A0F80831F9
:10256800C0E94023A0F80A3170470000F7B54FF4DE
:102578007A7317460022C0E901231C4B03604FF011
:10258800FF33C0F8EC301A4B1A4E04469C42F06DEB
:102598000D4605D1B36DC4F8EC30C4F8E8000AE084
:1025A8001549FFF714FD854215D1B36DC4F8EC3019
:1025B800F36DC4F8E830012F4FF0FF3308BFC4F8BB
:1025C800EC3000932046D4E93A214FF0FF33FFF76F
:1025D800B3FF03B0F0BD09492846FFF709FD0649D6
:1025E800C4F8EC002846FFF703FDD6E79C30000846
:1025F8001C020020682F0008D82E0008482E00086A
:10260800037C70B504460D46A3B1FEF767FC064689
:10261800B4F80621B4F80A319BB29A420AD0002DC8
:10262800F8D0FEF75BFC801B8542F1D8B4F80A317C
:10263800A4F8063170BD0021FFF7E2BFD0F8EC30F6
:10264800013310B504460ED10368DB68984794F847
:10265800113143B9012384F8113104F19400BDE824
:102668001040FFF747BD10BD10B50446FFF7E6FF61
:10267800B4F80821B4F8043192B29A421FBFD4F8D2
:10268800FC20D05C013303F03F0314BFA4F80431ED
:102698004FF0FF3010BD0000024903480022FFF749
:1026A80065BF00BF001001401C02002010B50446A1
:1026B80000F03AF8E060236820465B6998470028F4
:1026C80008DA00F031F8E368C01AA3689842F2D338
:1026D8004FF0FF3010BDF8B507460D468E180C4672
:1026E800B44201D1601BF8BD3846FFF7DFFF431C39
:1026F800F8D004F8010BF3E72DE9F04107468846C6
:1027080016461D4673B100243846FFF7CFFF431C19
:1027180005D0404503D030550134A542F4D12046B8
:10272800BDE8F0811C46FAE7FFF71EBB02440346EA
:10273800934200D1704703F8011BF9E770B50D4BC0
:102748000D4D5B1B9C100026A64209D100F0F4F940
:102758000A4D0B4B5B1B9C100026A64205D170BD91
:1027680055F8043B98470136EEE755F8043B98477F
:102778000136F2E7C8300008C8300008C830000841
:10278800D83000080A44914200F1FF3300D1704765
:1027980010B511F8014B03F8014F9142F9D110BD62
:1027A80008B5062000F02CF80120FFF741FD1F298D
:1027B80038B505460C4604D9162303604FF0FF30A0
:1027C80038BDC26B12B152F821304BB9284600F01F
:1027D80031F8224601462846BDE8384000F018B8CE
:1027E800012B0AD0591C03D1162303600120E7E707
:1027F800002142F82410204698470020E0E7000016
:10280800024B01461868FFF7D2BF00BF1400002032
:1028180038B5074D00230446084611462B60FFF7DC
:1028280009FD431C02D12B6803B1236038BD00BFEA
:102838006C040020FFF706BD2DE9F047089D0F4600
:1028480004468C46002B48D18A42164661D9B2FA12
:1028580082F34BB1C3F1200201FA03FC20FA02F221
:102868009E4042EA0C0C9C404FEA164EB7B2BCFBA5
:10287800FEF1220C0EFB11CC42EA0C4201FB07F0E0
:10288800904209D9B21801F1FF3C80F0EE809042E5
:1028980040F2EB8002393244121AA4B2B2FBFEF0C5
:1028A8000EFB102244EA024400FB07F7A74209D9AD
:1028B800341900F1FF3280F0DA80A74240F2D78065
:1028C8003444023840EA0140E41B00211DB1DC40D9
:1028D8000023C5E90043BDE8F0878B4206D90DB156
:1028E800C5E9000100210846BDE8F087B3FA83F185
:1028F800002948D1BB4202D3824200F20781841AE0
:1029080067EB030201209446002DE4D0C5E9004C92
:10291800E1E7002A00F09280B2FA82F3002B40F03F
:10292800A8808A1A4FEA164E1FFA86FC0121200C4D
:10293800B2FBFEF70EFB172240EA02420CFB07F03F
:10294800904207D9B21807F1FF3802D2904200F23C
:10295800E2804746121AA4B2B2FBFEF00EFB102228
:1029680044EA02440CFB00FCA44507D9341900F1E1
:10297800FF3202D2A44500F2CB801046A4EB0C042F
:1029880040EA0740A2E7C1F120068B4022FA06FC84
:102998004CEA030C07FA01F420FA06F3F7404FEA71
:1029A8001C49234300FA01F81FFA8CFEB7FBF9F023
:1029B8001C0C09FB107744EA074400FB0EF7A742FA
:1029C80002FA01F20AD91CEB040400F1FF3A80F084
:1029D8009B80A74240F2988002386444E41B9FB26F
:1029E800B4FBF9F309FB134447EA044403FB0EFE66
:1029F800A64509D91CEB040403F1FF3780F0828057
:102A0800A6457FD9023B644443EA0040A4EB0E0488
:102A1800A0FB02E7BC427346B94663D360D05DB100
:102A2800B8EB030264EB090404FA06F622FA01F390
:102A38001E43CC40C5E9006400214CE76208480801
:102A480042EAC1710B0C43EA00438AB242EA0342EC
:102A5800B3FBF6F1E407B4463746B6461F23B0FB8E
:102A6800F6F0D21B41EA004161E7614614E71046DF
:102A780028E7C3F1200120FA01F29E4027FA01F16C
:102A88009F403A434FEA164E1FFA86FCB1FBFEF709
:102A98000EFB1710110C41EA004107FB0CF88845A2
:102AA80004FA03F43AD9711807F1FF3001D28845C6
:102AB8001FD8A1EB0801B1FBFEF808FB0CF70EFBD1
:102AC800181192B242EA0142BA422FD2B21808F162
:102AD800FF31C6D2BA42C4D2A8F102013244C0E7DB
:102AE800F0459CD2BEEB020367EB0C070138B946F0
:102AF80095E7A6EB08084144B81EB1FBFEF808FBB1
:102B08000CF7DCE73B467FE7504667E70846FBE6FD
:102B18003444023832E7023F32441BE7A1EB080194
:102B28003846B1FBFEF808FB0CF7C8E7414698E7C2
:102B380008B5FFF735FE0000F8B500BFF8BC08BCC3
:102B48009E467047F8B500BFF8BC08BC9E46704763
:102B58003D3D3D204E455720504552495048205450
:102B6800455354203D3D3D0A0050415353200050E9
:102B780057522043522077726974652F72656164D9
:102B8800004641494C20005057522043535220647C
:102B9800656661756C74203000505752204352208E
:102BA800636C65617265640050575220444250203E
:102BB8007365740057574447204352206465666123
:102BC800756C7400575744472043522077726974D4
:102BD8006500575744472043465220777269746509
:102BE80000575744472053522064656661756C74DA
:102BF800203000575744472045574946207365748D
:102C080000495744472053522064656661756C74C7
:102C180000495744472050522077726974652077DD
:102C2800697468204B523D3535353500495744475E
:102C380020524C52207772697465004957444720E6
:102C480072656672657368204F4B00525443204981
:102C5800535220696E6974206D6F64650052544345
:102C680020545220777269746500525443204452AC
:102C78002077726974650052544320424B503020CB
:102C880077726974652F72656164005254432050ED
:102C98005245522064656661756C74004352432046
:102CA800636F6D70757465730043524320494452D5
:102CB80020777269746500435243207265736574A6
:102CC8002076696120435200524E472053522044D7
:102CD80052445920616674657220656E61626C6544
:102CE80000524E4720445220636C65617273204441
:102CF8005244590044414320435220777269746515
:102D0800004441432044485231325231202D3E2064
:102D1800444F52310044414320444F523120666FA2
:102D28006C6C6F7773204448523132523100434102
:102D38004E204D435220534C454550206269740043
:102D480043414E204D4352207772697465004341D8
:102D58004E204254522077726974650043414E20D8
:102D68004945522077726974650043414E204553A6
:102D7800522064656661756C742030005344494F75
:102D880020434C4B43522077726974650053444981
:102D98004F20434D4453454E54206166746572205C
:102DA800434D44005344494F2049435220636C65C6
:102DB80061727320434D4453454E540044434D497A
:102DC8002053522064656661756C7420300044435A
:102DD8004D492043522077726974650044434D4938
:102DE800206461746120696E6372656D656E7473C9
:102DF8000044434D4920464E4520736574002D2DEF
:102E08002D2D2053554D4D415259202D2D2D2D0A34
:102E180000504153533A20004641494C3A20003D66
:102E28003D3D20444F4E45203D3D3D0A00000000F9
:102E38000000000000010203040607080900000062
:102E480001000000004C00401208000003000000D0
:102E580000440040120700000A0000000010014072
:102E680012070000170000000010014012070000C0
:102E78001B00000000480040120700002700000067
:102E880000140140120800002B000000004C004014
:102E9800120800002B010000004800401207000043
:102EA8003200000000500040120800003600000008
:102EB80000440040120700003900000000480040AC
:102EC80012070000FFFFFFFF0000000000000000E5
:102ED80000000000004C0040120800000200000042
:102EE80000440040120700000900000000100140E3
:102EF8001207000016000000001001401207000031
:102F08001A000000004800401207000026000000D8
:102F180000140140120800002A000000004C004084
:102F2800120800002A0100000048004012070000B3
:102F38002C0000000050004012080000350000007E
:102F4800004400401207000038000000004800401C
:102F580012070000FFFFFFFF000000000000000054
:102F680041000000400000001900000018000000A7
:102F780017000000160000001500000013000000F4
:102F88003700000036000000350000003400000063
:102F98003300000032000000310000003000000063
:102FA8002C0000002B0000002A0000000F00000089
:102FB8000C0000000B0000000A00000009000000DF
:102FC8000800000029000000280000002700000079
:102FD800260000003F0000003E0000003D00000009
:102FE8003C0000003B0000003A00000039000000EF
:102FF800380000001F0000004200000043000000ED
:103008004400000045000000460000002D000000BC
:103018002000000021000000220000002300000022
:103028000000000001000000020000000300000092
:103038000400000005000000240000002500000036
:10304800100000001100000006000000070000004A
:103058004700000048000000490000004A00000046
:103068004B0000004C0000004D0000004E00000026
:103078004F0000001A0000001B0000001C000000A8
:103088001D0000001E0000001400000000000000E9
:1030980000000000E32300085D240008C72300089F
:1030A8003F2600089D23000871260008AD2300086C
:0830B800DF26000801270008D3
:0830C00080F7FF7F0100000012
:1030C80005230008E1010008CD1E0008A12600081C
:0830D800BD010008A51F00085E
:1030E000010000001000000000300240000000005D
:1030F0000024F40018000020000000003403002029
:103100009C030020040400200000000000000000D8
:1031100000000000000000000000000000000000AF
:10312000000000000000000000000000000000009F
:10313000000000000000000000000000000000008F
:04314000000000008B
:0400000508002329A3
:00000001FF
