:020000040800F2
:100000000000032015320008653200086532000840
:100010006532000865320008653200080000000003
:100020000000000000000000000000006532000831
:10003000653200080000000065320008472C000807
:100040006532000865320008653200086532000834
:1000500065320008653200083D2D0008432D000878
:10006000492D00084F2D0008552D00086532000865
:100070006532000865320008653200086532000804
:1000800065320008653200086532000865320008F4
:100090006532000865320008653200085B2D0008F3
:1000A0007D2B0008952A0008912B0008B92A00082A
:1000B000CD2A0008E12A0008F52A00086532000868
:1000C00065320008653200086532000865320008B4
:1000D000653200087130000889300008A53000083A
:1000E000832D00086532000865320008A52B000842
:1000F000452B0008B92B0008692B00086532000861
:100100006532000865320008092B000865320008D6
:10011000C1300008D93000081D2B0008312B000821
:100120006532000865320008653200086532000853
:100130006532000865320008653200086532000843
:100140006532000865320008653200086532000833
:10015000653200086532000865320008F130000899
:100160006532000865320008653200086532000813
:1001700065320008653200086532000800000000A2
:100180006532000865320008093100082131000895
:1001900065320008653200086532000865320008E3
:0C01A00065320008653200086532000876
:1001AC0053B94AB9002908BF00281CBF4FF0FF31D2
:1001BC004FF0FF3000F00CB8ADF1080C6DE904CE37
:1001CC0003F0B0FADDF804E0DDE9022304B0704777
:1001DC00704700BF10B5054C237833B9044B13B1ED
:1001EC000448AFF300800123237010BD640000208D
:1001FC0000000000303A000808B5034B1BB103495E
:10020C000348AFF3008008BD000000006800002028
:10021C00303A0008054A013810F8013F03B970471D
:10022C0011680906FCD55360F6E700BF00100140C9
:10023C0010B509491C2220FA02F303F00F030C68D5
:10024C002406FCD5092B94BF30333733043A4B606A
:10025C00131DF0D110BD00BF0010014064231A46DD
:10026C00013B002AFBD1704710B5054CC4F8081CA3
:10027C00C4F80C0CFFF7F2FFD4F8340C10BD00BF1F
:10028C0000200140034B4FF4B6729A6042F20C020C
:10029C00DA607047001001402DE9F74FC148C24E9B
:1002AC00C24DFFF7EFFFFFF7B5FF4FF0204243F2CF
:1002BC00DB03136012689A4240F0D1873468BC4863
:1002CC00FFF7A8FFBB48FFF7A5FF0134BA48FFF7BB
:1002DC00A1FF34604FF020426FF0404353605268EE
:1002EC009A4240F0CA873468B148FFF793FFB3488D
:1002FC00FFF790FF0134B048FFF78CFF34604FF0EC
:10030C00204240F60F73936092689A4240F0C38784
:10031C003468A748FFF77EFFA948FFF77BFF01343D
:10032C00A548FFF777FF34604FF02043A54CDC6005
:10033C00DB68A34240F0BD8737689D48FFF76AFF32
:10034C00A148FFF767FF01379B48FFF763FF376052
:10035C009E490123C1F80034FFF780FFD1F8043423
:10036C00DB0740F1B48737689148FFF753FF984893
:10037C00FFF750FF01379048FFF74CFF3760934968
:10038C000023C1F80034FFF769FFD1F80434DF070C
:10039C0000F1AB8737688648FFF73CFF8D48FFF7C5
:1003AC0039FF01378448FFF735FF3760874B01224F
:1003BC00C3F88025D3F80834D80740F1A4873768F0
:1003CC007B48FFF727FF8448FFF724FF01377A4863
:1003DC00FFF720FF37607D490123C1F80034FFF798
:1003EC003DFF0823C1F88045C1F884357B4BC1F82B
:1003FC008835A3F19933C1F88C35D1F88035A342F7
:10040C0040F08F8734686A48FFF704FF7448FFF7A1
:10041C0001FF01346848FFF7FDFE3460714F012382
:10042C00C7F8003C2F23C7F8043C00214020FFF7FD
:10043C0015FFFFF719FF410640F1818734685C48CE
:10044C00FFF7E8FE6848FFF7E5FE01345A48FFF76E
:10045C00E1FE34604023C7F8383C4FF4D571482096
:10046C00FFF702FF420640F1C18734685048FFF79E
:10047C00D1FE5E48FFF7CEFE01344F48FFF7CAFEAF
:10048C0034604B48D7F8143CFFF7C4FE5848FFF7CC
:10049C00C1FE4948FFF7BEFED6F800904FF0400869
:1004AC0009F10104002134607720C7F8388CFFF77C
:1004BC00DBFEC7F8388C7720FFF7D6FE4D49C7F81E
:1004CC00388C6920FFF7D0FE430640F19D873848F1
:1004DC00FFF7A0FE4848FFF79DFE09F102043648DD
:1004EC00FFF798FE34604023C7F8383C00214220C7
:1004FC00FFF7BAFE400640F197872D48FFF78AFEBA
:10050C003E48FFF787FE01342B48FFF783FE34602B
:10051C0040230021C7F8383C4320FFF7A5FE4106D5
:10052C0040F192872248FFF775FE3548FFF772FEBF
:10053C0001342148FFF76EFE3460D7F8143C4FEAC3
:10054C0013484FEA08484023C7F8383C4146472037
:10055C00FFF78AFE420640F187871548FFF75AFEDF
:10056C002848FFF757FE01341348FFF753FE346059
:10057C004023C7F8383C41464D20FFF775FED7F8AD
:10058C00143CB3F5807F40F07F870948FFF742FEAB
:10059C001D48FFF73FFE01340748FFF73BFE346070
:1005AC0034E000BF483A000884000020800000209E
:1005BC00623A0008683A000819410008833A0008BA
:1005CC00933A000878563412A83A000800600040AC
:1005DC00B83A0008D03A0008F43A0008DDCCBBAABF
:1005EC000E3B0008002001401D3B00082F3B00087B
:1005FC00413B00080080FF405A3B00086E3B00085E
:10060C00803B0008923B0008A43B00084FF04008D8
:10061C004FF40071C7F8388C5020FFF725FE0123EA
:10062C00C7F8388C5120C7F8281CC7F82C3C00217F
:10063C00FFF71AFED7F8303CB3F5007F40F0348753
:10064C00B548FFF7E7FDB548FFF7E4FD0134B448C2
:10065C00FFF7E0FD3460D7F8343C9B0740F134875A
:10066C00AD48FFF7D7FDAF48FFF7D4FD0134AC48D8
:10067C00FFF7D0FD3460FF23C7F8383CAA4B5B680A
:10068C00002B40F03187A448FFF7C4FDA748FFF7C3
:10069C00C1FD0134A248FFF7BDFD3460A24AA44B52
:1006AC00136012689A4240F02D879B48FFF7B2FD09
:1006BC00A048FFF7AFFD01349948FFF7ABFD34605C
:1006CC00994B1F221A601B68934240F0298792486D
:1006DC00FFF7A0FD9848FFF79DFD01349048FFF708
:1006EC0099FD3460904901230B60FFF7B7FD886AD0
:1006FC00FFF7B4FD8B6A984200F020878648FFF71D
:10070C0089FD8E48FFF786FD01348548FFF782FD91
:10071C003460854B5B68580740F11E877E48FFF7B5
:10072C0079FD8748FFF776FD01347D48FFF772FDB0
:10073C0034607D4B1F22DA60DB68934240F01A87ED
:10074C007548FFF767FD7F48FFF764FD0134744877
:10075C00FFF760FD3460744B00221A605B68590728
:10076C0000F116876C48FFF755FD7748FFF752FDEF
:10077C0001346B48FFF74EFD34606B4A41F2342371
:10078C00D361D2699A4240F011876348FFF742FD6A
:10079C006E48FFF73FFD01346148FFF73BFD3460C5
:1007AC006B4A40F6FF73D361D2699A4240F00C87D2
:1007BC005948FFF72FFD6748FFF72CFD01345848C7
:1007CC00FFF728FD3460624A40F2FF331362126A6D
:1007DC009A4240F007875048FFF71CFD5E48FFF730
:1007EC0019FD01344E48FFF715FD3460584B0022BB
:1007FC00DA61DB69002B40F003874748FFF70AFDFD
:10080C005648FFF707FD01344548FFF703FD3460F8
:10081C00534A41F23423C2F80034D2F800249A42ED
:10082C0040F0FC863C48FFF7F5FC4E48FFF7F2FC25
:10083C0001343B48FFF7EEFC3460494A40F6BC23D8
:10084C00C2F81C34D2F81C249A4240F0F586324887
:10085C00FFF7E0FC4448FFF7DDFC01343048FFF7BC
:10086C00D9FC34603E4A414D40F2AB13C2F82034FF
:10087C00D2F820249A4240F0ED862748FFF7CAFCB4
:10088C003B48FFF7C7FC2648FFF7C4FC394B013443
:10089C001C604FF0402245F27863136012689A4254
:1008AC0040F0E6861C48FFF7B5FC3348FFF7B2FC76
:1008BC001B48FFF7AFFC2F4B01341C604FF040225C
:1008CC0040F6EF53D361D2699A4240F0DF8612486A
:1008DC00FFF7A0FC2948FFF79DFC1148FFF79AFC95
:1008EC00244B01341C60264BD3F80438402B40F0C9
:1008FC00DB860948FFF78EFC2248FFF78BFC084883
:10090C00FFF788FC1B4B01341C601D4A1E4BC2F8C0
:10091C000438D2F8042839E0623A0008C63B0008D3
:10092C0019410008DC3B000800000550F23B0008B0
:10093C00FF3FFF7F043C0008163C0008293C0008E0
:10094C003E3C0008593C0008683C0008873C000805
:10095C0000300140993C0008AB3C0008BB3C00084F
:10096C0000300040CF3C0008E13C00088000002033
:10097C00F73C0008840000200B3D00081D3D0008DA
:10098C0000500140333D0008FFFF3F3F9A4240F0CA
:10099C009986BB48FFF73EFCBA48FFF73BFCBA48C8
:1009AC00FFF738FCB94B01341C60B94A47F6FF73AA
:1009BC00C2F80838D2F808289A4240F0C986B048E4
:1009CC00FFF728FCB348FFF725FCAF48FFF722FCE4
:1009DC00AE4B01341C60AE4BD3F80C38072B40F0F7
:1009EC00C586A748FFF716FCAB48FFF713FCA648D3
:1009FC00FFF710FCA54B01341C60A54AA74BC2F8AD
:100A0C000C38D2F80C289A4240F0BE869C48FFF76E
:100A1C0001FCA348FFF7FEFB9B48FFF7FBFB9B4B3E
:100A2C0001341C609A4A9F4BC2F81038D2F8102837
:100A3C009A4240F0B7869248FFF7ECFB9A48FFF7D2
:100A4C00E9FB9148FFF7E6FB904B01341C60904B9F
:100A5C00D3F81838082B40F0B3868948FFF7DAFB37
:100A6C009248FFF7D7FB8848FFF7D4FB874B01343C
:100A7C001C60874B7722C3F81C28D3F81C38934290
:100A8C0040F0AC867E48FFF7C5FB8948FFF7C2FBF8
:100A9C007D48FFF7BFFB7D4B01341C607C4A854BC6
:100AAC00C2F82038D2F820289A4240F0A586744823
:100ABC00FFF7B0FB8048FFF7ADFB7348FFF7AAFBCD
:100ACC00724B01341C60724BD3F82438402B40F02D
:100ADC00A1866B48FFF79EFB7848FFF79BFB6A48A3
:100AEC00FFF798FB694B01341C60694A744BC2F8E0
:100AFC002438D2F824289A4240F09A866048FFF7AE
:100B0C0089FB7048FFF786FB5F48FFF783FB5F4B61
:100B1C0001341C606C4A6FF0F023C2F80838D2F82C
:100B2C0008289A4240F092865548FFF773FB6748B5
:100B3C00FFF770FB5448FFF76DFB544B01341C60FE
:100B4C00614BD3F8182842F220239A4240F08C864D
:100B5C004B48FFF75FFB5E48FFF75CFB4A48FFF72B
:100B6C0059FB4A4B01341C60574A5A4BC2F82C387B
:100B7C00D2F82C289A4240F085864148FFF74AFB70
:100B8C005548FFF747FB4048FFF744FB3F4B013408
:100B9C001C604D4B0F22C3F83428D3F834389342E1
:100BAC0040F07E863648FFF735FB4C48FFF732FBAA
:100BBC003548FFF72FFB354B01341C60424B0F229D
:100BCC00C3F83C28D3F83838002B40F077862C48F3
:100BDC00FFF720FB4248FFF71DFB2B48FFF71AFBE2
:100BEC002A4B01341C60384B1322C3F88428D3F8E9
:100BFC008438934240F070862148FFF70BFB39484C
:100C0C00FFF708FB2048FFF705FB204B01341C6065
:100C1C002D4A354BC2F8AC38D2F8AC289A4240F089
:100C2C0069861748FFF7F6FA3048FFF7F3FA1648CB
:100C3C00FFF7F0FA154B01341C60234A6FF0E023E8
:100C4C00C2F8B038D2F8B0289A4240F061860C480D
:100C5C00FFF7E0FA2648FFF7DDFA0B48FFF7DAFA60
:100C6C000A4B01341C60234B7F22C3F8002CD3F8B1
:100C7C00003C934240F05A860148FFF7CBFA3BE028
:100C8C00623A0008453D0008194100088400002024
:100C9C0000500140553D0008653D0008FFFF07006E
:100CAC00783D0008FFFF1F00893D00089B3D0008B0
:100CBC00AC3D000878563412BE3D0008D23D000809
:100CCC0000003F3FE43D000800600140F43D000897
:100CDC00093E0008563412001A3E00082F3E000848
:100CEC003E3E0008533E0008EFBEADDE683E0008F5
:100CFC00803E000800300140B248FFF78BFAB24842
:100D0C00FFF788FAB14B01341C60B14B5522C3F884
:100D1C00082CD3F8083C934240F01686AD48FFF7F8
:100D2C0079FAAD48FFF776FAA748FFF773FAA74BA5
:100D3C0001341C60A64BAA22C3F80C2CD3F80C3C33
:100D4C00934240F00F86A348FFF764FAA348FFF7DD
:100D5C0061FA9D48FFF75EFA9C4B01341C609C4B7A
:100D6C000322C3F8102CD3F8143C9A0700F0088621
:100D7C009848FFF74FFA9A48FFF74CFA9248FFF75A
:100D8C0049FA924B01341C60914B0322C3F8142C8A
:100D9C00D3F8143C002B40F001868E48FFF73AFA4A
:100DAC009048FFF737FA8848FFF734FA874B01343D
:100DBC001C60874B0122C3F80028D3F800389342FB
:100DCC0040F0FA858348FFF725FA8748FFF722FAA7
:100DDC007D48FFF71FFA7D4B01341C607C4A834B26
:100DEC00C2F80838D2F808289A4240F0F3857948BE
:100DFC00FFF710FA7E48FFF70DFA7348FFF70AFA6F
:100E0C00724B01341C60724A7A4BC2F81438D2F817
:100E1C0014289A4240F0EC856E48FFF7FBF97648AF
:100E2C00FFF7F8F96848FFF7F5F9684B01341C60D7
:100E3C00724B734D1A68734B9A4240F0E7856548C4
:100E4C00FFF7E8F97048FFF7E5F95F48FFF7E2F9BB
:100E5C005E4B01341C60694A6C4B536052689A4279
:100E6C0040F01A865B48FFF7D5F96948FFF7D2F9CD
:100E7C005548FFF7CFF9554B01341C605F4B4FF0D1
:100E8C00AA329A609B68934240F014865148FFF74F
:100E9C00C1F96048FFF7BEF94B48FFF7BBF94B4B64
:100EAC0001341C605C4B4FF480421A605B4A1A623E
:100EBC00A2F13372A2F55032A2F51C725A62584A52
:100ECC009A62584ADA624FF400421A601B689342E5
:100EDC0040F0FE853F48FFF79DF95348FFF79AF91C
:100EEC003948FFF797F9394B01341C604A4B5B6862
:100EFC0013F0130F00F0FA853648FFF78BF94B48C7
:100F0C00FFF788F93048FFF785F9304B01341C6046
:100F1C00414B474A474F484E9F609E609A60474AF4
:100F2C009A60DB68DFF828B15B4540F0ED85294815
:100F3C00FFF770F94248FFF76DF92348FFF76AF99C
:100F4C00224B01341C60344BDFF808A1DB6853459D
:100F5C0040F0EA851F48FFF75DF93A48FFF75AF968
:100F6C001948FFF757F9194B01341C602A4BDFF86D
:100F7C00E890DB684B4540F0E7851648FFF74AF9E7
:100F8C003148FFF747F91048FFF744F90F4B01348C
:100F9C001C60214BDFF8C480DB68434540F0E485DE
:100FAC000C48FFF737F92948FFF734F90648FFF7E3
:100FBC0031F9064B01341C60174B4FF480421A6018
:100FCC004EE000BF983E0008194100088400002044
:100FDC0000300140623A0008AC3E0008C13E0008F7
:100FEC00D63E0008E83E0008F83E00081032547661
:100FFC00103F000898BADCFE2A3F0008002004E0ED
:10100C008000002011640010443F000877001F008E
:10101C005A3F00086F3F00080000065016157E2B43
:10102C008815F7AB3C4FCF09893F0008A03F00085B
:10103C00117E3DE9E2BEC16B969F402E2A17937339
:10104C00B23F0008CC3F0008E63F00080040000813
:10105C00B47BD73A60367A0DF3CA9EA897EF662414
:10106C0048F204021A60C3F808B0C3F808A0C3F829
:10107C000890C3F80880DB68BB4240F08585B74810
:10108C00FFF7C8F8B648FFF7C5F8B648FFF7C2F83F
:10109C00B54B01341C60B54BDB68B34240F0828524
:1010AC00AE48FFF7B7F8B248FFF7B4F8AD48FFF712
:1010BC00B1F8AD4B01341C60AC4BAE4ADB689342CB
:1010CC0040F07E85A548FFF7A5F8AB48FFF7A2F8DE
:1010DC00A448FFF79FF8A44B01341C60A34BA74A0C
:1010EC00DB68934240F07A859C48FFF793F8A4485C
:1010FC00FFF790F89B48FFF78DF89B4B01341C6071
:10110C009A4B03225A615B69934240F07585934870
:10111C00FFF780F89B48FFF77DF89248FFF77AF8C5
:10112C00914B01341C60914B4FF48042C3F8002466
:10113C00954AC3F804244FF48072C3F80824D3F8FA
:10114C0024341B0740F166858448FFF763F88F4809
:10115C00FFF760F88348FFF75DF8834B01341C60A0
:10116C00824BD3F80C248A4B9A4240F061857B4821
:10117C00FFF750F88748FFF74DF87A48FFF74AF821
:10118C00794B01341C60794BD3F8102403F15D5377
:10119C0003F58B1303F63E439A4240F057856F4894
:1011AC00FFF738F87C48FFF735F86E48FFF732F850
:1011BC006D4B01341C606D4BD3F81424774B9A4261
:1011CC0040F052856548FFF725F87548FFF722F87F
:1011DC006448FFF71FF8644B01341C60634BD3F871
:1011EC001824704B9A4240F04D855C48FFF712F87A
:1011FC006D48FFF70FF85B48FFF70CF85A4B0134BA
:10120C001C605A4BD3F81C24684B9A4240F048851A
:10121C005248FEF7FFFF6648FEF7FCFF5148FEF709
:10122C00F9FF514B01341C606248FEF7F3FF624832
:10123C00FEF7F0FF2046FEF7FBFF4A48FEF7EAFFF9
:10124C005E48FEF7E7FF2868FEF7F2FF4548FEF719
:10125C00E1FF5B4803B0BDE8F04FFEF7DBBF2C6845
:10126C005848FEF7D7FF5848FEF7D4FF01343D48E5
:10127C00FEF7D0FF2C60FFF72DB82C685148FEF715
:10128C00C9FF5248FEF7C6FF01343648FEF7C2FFCD
:10129C002C60FFF734B82C684A48FEF7BBFF4C486B
:1012AC00FEF7B8FF01342F48FEF7B4FF2C60FFF7B0
:1012BC003BB82F684348FEF7ADFF4648FEF7AAFF40
:1012CC0001372848FEF7A6FF2F60FFF741B82F68BB
:1012DC003C48FEF79FFF4048FEF79CFF0137214832
:1012EC00FEF798FF2F60FFF74AB82F683548FEF7D6
:1012FC0091FF3A48FEF78EFF01371A48FEF78AFF36
:10130C002F60FFF753B82F682E48FEF783FF344841
:10131C00FEF780FF01371348FEF77CFF2F60FFF7C5
:10132C005AB82C682748FEF775FF2E48FEF772FF57
:10133C0001340C48FEF76EFF2C60FFF76FB82C6879
:10134C002048FEF767FF2848FEF764FF0134054884
:10135C00FEF760FF2C60FFF77DB800BF623A000813
:10136C001A400008194100088400002000000650B3
:10137C0039400008117E3DE9584000082A17937344
:10138C00774000089640000864636261AC40000836
:10139C00FE8BFE81BD400008CC4000086F4222CB82
:1013AC00DB4000087384578EEA400008CF7A9182A4
:1013BC00F9400008084100081B41000822410008C0
:1013CC00294100087D3A0008683A0008833A000871
:1013DC00933A0008A83A0008B83A0008D03A000836
:1013EC00F43A00080E3B00081D3B00082C68BC4872
:1013FC00FEF710FFBB48FEF70DFF0134BA48FEF7AD
:10140C0009FF2C60FFF73DB8B548D5F80080FEF712
:10141C0001FFB648FEF7FEFEB348FEF7FBFE08F1EF
:10142C0001032B60FFF75FB8AD48D5F80080FEF7DD
:10143C00F1FEAF48FEF7EEFEAB48FEF7EBFE08F10F
:10144C0001032B60FFF764B8A548D5F80080FEF7C0
:10145C00E1FEA848FEF7DEFEA348FEF7DBFE08F12E
:10146C0001032B60FFF769B89D48D5F80090FEF793
:10147C00D1FEA148FEF7CEFE9B48FEF7CBFE09F14C
:10148C0001032B60FFF774B89548D5F80080FEF780
:10149C00C1FE9A48FEF7BEFE9348FEF7BBFE08F16C
:1014AC0001032B60FFF7B2B88D48D5F80080FEF72A
:1014BC00B1FE9348FEF7AEFE8B48FEF7ABFE08F18B
:1014CC0001032B60FFF7C7B88548D5F80080FEF7FD
:1014DC00A1FE8C48FEF79EFE8348FEF79BFE08F1AA
:1014EC0001032B60FFF7C7B82F687D48FEF792FE0B
:1014FC008548FEF78FFE01377B48FEF78BFE2F6089
:10150C00FFF7CCB82F687648FEF784FE7F48FEF7CD
:10151C0081FE01377448FEF77DFE2F60FFF7D0B8CF
:10152C002F686F48FEF776FE7948FEF773FE013799
:10153C006D48FEF76FFE2F60FFF7D4B82F68684830
:10154C00FEF768FE7348FEF765FE01376648FEF746
:10155C0061FE2F60FFF7DDB82F686148FEF75AFE79
:10156C006D48FEF757FE01375F48FEF753FE2F60BC
:10157C00FFF7DFB82F685A48FEF74CFE6748FEF7B6
:10158C0049FE01375848FEF745FE2F60FFF7E3B8D8
:10159C002F685348FEF73EFE6148FEF73BFE0137CD
:1015AC005148FEF737FE2F60FFF7E7B82F684C481D
:1015BC00FEF730FE5B48FEF72DFE01374A48FEF77A
:1015CC0029FE2F60FFF7ECB82F684548FEF722FE86
:1015DC005548FEF71FFE01374348FEF71BFE2F60F0
:1015EC00FFF7F1B82F683E48FEF714FE4F48FEF7A0
:1015FC0011FE01373C48FEF70DFE2F60FFF7F6B8E1
:10160C002F683748FEF706FE4948FEF703FE013700
:10161C003548FEF7FFFD2F60FFF7FAB82F6830480A
:10162C00FEF7F8FD4348FEF7F5FD01372E48FEF7AF
:10163C00F1FD2F60FFF701B92E682948FEF7EAFD8E
:10164C003D48FEF7E7FD01362748FEF7E3FD2E6027
:10165C00FFF708B92E682248FEF7DCFD3748FEF785
:10166C00D9FD01362048FEF7D5FD2E60FFF711B9E4
:10167C002E681B48FEF7CEFD3148FEF7CBFD013638
:10168C001948FEF7C7FD2E60FFF718B92E681448ED
:10169C00FEF7C0FD2B48FEF7BDFD01361248FEF7E4
:1016AC00B9FD2E60FFF71FB92E680D48FEF7B2FD8D
:1016BC002548FEF7AFFD01360B48FEF7ABFD2E605B
:1016CC00FFF723B92E680648FEF7A4FD1F48FEF766
:1016DC00A1FD01360448FEF79DFD2E60FFF765B9AC
:1016EC007D3A00082F3B0008194100085A3B0008BE
:1016FC006E3B0008803B0008923B0008A43B0008AE
:10170C00C63B0008DC3B0008F23B0008043C000828
:10171C00163C0008293C00083E3C0008593C0008D7
:10172C00683C0008873C0008993C0008AB3C00086A
:10173C00BB3C0008CF3C0008E13C0008F73C00082B
:10174C000B3D00081D3D0008333D0008453D0008D9
:10175C002E68B548FEF75EFDB448FEF75BFD01361A
:10176C00B348FEF757FD2E60FFF735B92E68AE482B
:10177C00FEF750FDAF48FEF74DFD0136AC48FEF7C5
:10178C0049FD2E60FFF739B92E68A748FEF742FDD8
:10179C00A948FEF73FFD0136A548FEF73BFD2E603C
:1017AC00FFF740B92E68A048FEF734FDA348FEF7BA
:1017BC0031FD01369E48FEF72DFD2E60FFF747B92F
:1017CC002E689948FEF726FD9D48FEF723FD01364D
:1017DC009748FEF71FFD2E60FFF74BB92E68924815
:1017EC00FEF718FD9748FEF715FD01369048FEF7F9
:1017FC0011FD2E60FFF752B92E688B48FEF70AFDDB
:10180C009148FEF707FD01368948FEF703FD2E606F
:10181C00FFF759B92E688448FEF7FCFC8B48FEF79D
:10182C00F9FC01368248FEF7F5FC2E60FFF75DB936
:10183C002E687D48FEF7EEFC8548FEF7EBFC013682
:10184C007B48FEF7E7FC2E60FFF764B92E687648FC
:10185C00FEF7E0FC7F48FEF7DDFC01367448FEF72E
:10186C00D9FC2E60FFF76CB92E686F48FEF7D2FCDE
:10187C007948FEF7CFFC01366D48FEF7CBFC2E60A5
:10188C00FFF772B92E686848FEF7C4FC7348FEF780
:10189C00C1FC01366648FEF7BDFC2E60FFF779B936
:1018AC002E686148FEF7B6FC6D48FEF7B3FC0136B6
:1018BC005F48FEF7AFFC2E60FFF780B92E685A48E0
:1018CC00FEF7A8FC6748FEF7A5FC01365848FEF762
:1018DC00A1FC2E60FFF787B92E685348FEF79AFCDF
:1018EC006148FEF797FC01365148FEF793FC2E60D9
:1018FC00FFF78EB92E684C48FEF78CFC5B48FEF760
:10190C0089FC01364A48FEF785FC2E60FFF795B935
:10191C002E684548FEF77EFC5548FEF77BFC0136E9
:10192C004348FEF777FC2E60FFF79DB92E683E48C2
:10193C00FEF770FC4F48FEF76DFC01363C48FEF795
:10194C0069FC2E60FFF7E1B92E683748FEF762FCA0
:10195C004948FEF75FFC01363548FEF75BFC2E600C
:10196C00FFF7E8B92E683048FEF754FC4348FEF701
:10197C0051FC01362E48FEF74DFC2E60FFF7EFB9F7
:10198C002E682948FEF746FC3D48FEF743FC01361D
:10199C002748FEF73FFC2E60FFF7F6B92E68224869
:1019AC00FEF738FC3748FEF735FC01362048FEF7C9
:1019BC0031FC2E60FFF7FDB92E681B48FEF72AFCA0
:1019CC003148FEF727FC01361948FEF723FC2E6040
:1019DC00FFF704BA2E681448FEF71CFC2B48FEF7E0
:1019EC0019FC01361248FEF715FC2E60FFF70BBAF6
:1019FC002E680D48FEF70EFC2548FEF70BFC013651
:101A0C000B48FEF707FC2E60FFF712BA2E6806484B
:101A1C00FEF700FC1F48FEF7FDFB01360448FEF7FD
:101A2C00F9FB2E60FFF717BA7D3A0008553D000808
:101A3C0019410008653D0008783D0008893D000803
:101A4C009B3D0008AC3D0008BE3D0008D23D00089F
:101A5C00E43D0008F43D0008093E00081A3E000869
:101A6C002F3E00083E3E0008533E0008683E00082A
:101A7C00803E0008983E0008AC3E0008C13E0008BD
:101A8C00D63E0008E83E0008F83E0008103F00086B
:101A9C002A3F0008443F00082E688848FEF7BAFB2E
:101AAC008748FEF7B7FB01368648FEF7B3FB2E607E
:101ABC00FFF7E4B92E688148FEF7ACFB8248FEF7CD
:101ACC00A9FB01367F48FEF7A5FB2E60FFF7EAB9AC
:101ADC002E687A48FEF79EFB7C48FEF79BFB01368E
:101AEC007848FEF797FB2E60FFF700BA2E68734814
:101AFC00FEF790FB7648FEF78DFB01367148FEF73A
:101B0C0089FB2E60FFF704BA6C48D5F80080FEF70D
:101B1C0081FB7048FEF77EFB6A48FEF77BFB08F101
:101B2C0001032B60FFF70FBA6448D5F80080FEF76D
:101B3C0071FB6948FEF76EFB6248FEF76BFB08F120
:101B4C0001032B60FFF712BA5C48D5F80080FEF752
:101B5C0061FB6248FEF75EFB5A48FEF75BFB08F13F
:101B6C0001032B60FFF715BA2B6854480193FEF75D
:101B7C0051FB5B48FEF74EFB5248FEF74BFB019BBB
:101B8C0001332B60FFF718BA2F684C48FEF742FB65
:101B9C005448FEF73FFB01374A48FEF73BFB2F60EA
:101BAC00FFF779BA2E684548FEF734FB4E48FEF72E
:101BBC0031FB01364348FEF72DFB2E60FFF77CBA54
:101BCC002E683E48FEF726FB4848FEF723FB0136FD
:101BDC003C48FEF71FFB2E60FFF780BA2E68374893
:101BEC00FEF718FB4248FEF715FB01363548FEF7A9
:101BFC0011FB2E60FFF784BA2E683048FEF70AFB03
:101C0C003C48FEF707FB01362E48FEF703FB2E601F
:101C1C00FFF789BA2E682948FEF7FCFA3648FEF71A
:101C2C00F9FA01362748FEF7F5FA2E60FFF798BA55
:101C3C002E682248FEF7EEFA3048FEF7EBFA013632
:101C4C002048FEF7E7FA2E60FFF79DBA2E681B4876
:101C5C00FEF7E0FA2A48FEF7DDFA01361948FEF7DE
:101C6C00D9FA2E60FFF7A7BA2E681448FEF7D2FAFD
:101C7C002448FEF7CFFA01361248FEF7CBFA2E6055
:101C8C00FFF7ACBA2E680D48FEF7C4FA1E48FEF7F3
:101C9C00C1FA01360B48FEF7BDFA2E60FFF7B1BA58
:101CAC002E680648FEF7B6FA1848FEF7B3FA013666
:101CBC000448FEF7AFFA2E60FFF7B6BA7D3A00087B
:101CCC005A3F0008194100086F3F0008893F00087F
:101CDC00A03F0008B23F0008CC3F0008E63F0008D8
:101CEC00004000081A40000839400008584000081D
:101CFC007740000896400008AC400008BD40000842
:101D0C00CC400008DB400008EA400008F94000081D
:101D1C007047704738B50E4B1A784FF47A73B3FB93
:101D2C00F2F30C4A05461068B0FBF3F000F0A6F88D
:101D3C00044658B90F2D09D8024629464FF0FF30FA
:101D4C0000F04AF8044B20461D6038BD0120FCE72A
:101D5C0000000020100000200400002008B50B4BF0
:101D6C001A6842F400721A601A6842F480621A60AF
:101D7C001A6842F480721A60032000F01BF80020ED
:101D8C00FFF7C8FFFFF7C5FF002008BD003C02406D
:101D9C00034A044B11681B780B441360704700BF57
:101DAC008800002000000020014B1868704700BF1D
:101DBC00880000200749CA6822F4E062030212047A
:101DCC0003F4E063120C134343F0BF6343F400339A
:101DDC00CB60704700ED00E0164B30B5DC68C4F307
:101DEC000224C4F10703251D042B28BF0423062D50
:101DFC004FF0FF358CBF033C002405FA03F321EAB6
:101E0C000303A54022EA0502A340002843EA02038B
:101E1C00ACBF00F16040084A4FEA0313B8BF00F0B2
:101E2C000F00DBB2AABF00F56140135480F80033F9
:101E3C0030BD00BF00ED00E014ED00E0002807DB32
:101E4C00044A4109012300F01F00834042F821306D
:101E5C00704700BF00E100E000280CDB4309064995
:101E6C0000F01F0020330122824041F82320BFF3F1
:101E7C004F8FBFF36F8F704700E100E00138B0F176
:101E8C00807F0BD24FF0E023054A5861F02182F895
:101E9C0023100020072298611A61704701207047B7
:101EAC0000ED00E0002808DB4309044900F01F00A6
:101EBC0001226033824041F82320704700E100E0AA
:101ECC00704708B5FFF7FCFF08BD704710B5044616
:101EDC0050B1437903F0FF0213B90271FFF7F5FF1C
:101EEC0001236371002010BD0120FCE770B504468E
:101EFC00866DFFF759FF94F83530022B054606D056
:101F0C00802363650120002384F8343070BD23687E
:101F1C001A6822F016021A605A6922F080025A617D
:101F2C00226C0AB9A26C1AB11A6822F008021A6063
:101F3C001A6822F001021A602368186810F0010078
:101F4C0007D1E26D3F239340B360012384F8353011
:101F5C00D9E7FFF729FF401B0528EDD920230320E3
:101F6C00636584F83500CEE790F83530022B03D04A
:101F7C0080234365012070470268052380F83530C3
:101F8C00136823F00103136000207047044A516961
:101F9C00014208B502D0506100F0B4FE08BD00BF8C
:101FAC00003C01402DE9F341044640B30368DE07D1
:101FBC0010D423689D075BD42368190700F19D801A
:101FCC0023685A0700F1BD80A369002B40F02481DF
:101FDC0000202CE08D4B9A6802F00C02042A07D0EA
:101FEC009A6802F00C02082A0BD15B68590208D5DA
:101FFC00864B1B689A03DCD56368002BD9D1012072
:10200C0015E06368814DB3F5803F13D12B6843F421
:10201C0080332B60FFF7C8FE7C4E054633689B036C
:10202C00C7D4FFF7C1FE401B6428F7D9032002B0C8
:10203C00BDE8F081B3F5A02F04D12B6843F48023C5
:10204C002B60E3E72A6822F480322A602A6822F4A3
:10205C0080222A60002BDDD1FFF7A6FE06462B68F6
:10206C009F03A6D5FFF7A0FE801B6428F7D9DDE7F8
:10207C00664B9A6812F00C0F07D09A6802F00C02AB
:10208C00082A11D15B685D020ED4604A1368990767
:10209C0002D5E368012BB2D11368216923F0F80350
:1020AC0043EAC103136087E7E268594BB2B10122DE
:1020BC001A60FFF779FE554D06462B689B0707D52E
:1020CC002B68226923F0F80343EAC2032B6073E701
:1020DC00FFF76AFE801B0228EFD9A7E71A60FFF70B
:1020EC0063FE4A4E054633689F077FF565AFFFF7E1
:1020FC005BFE401B0228F6D998E76269444B82B11B
:10210C000122C3F8802EFFF74FFE404E0546736F39
:10211C009B073FF555AFFFF747FE401B0228F6D94A
:10212C0084E7C3F8802EFFF73FFE384E0546736FE9
:10213C009F077FF545AFFFF737FE401B0228F6D906
:10214C0074E7324B1A6C12F0805228D101921A6C3F
:10215C0042F080521A641B6C03F080530193019B74
:10216C0001272C4D2B68D8051BD5A368274D012BB7
:10217C0027D12B6F43F001032B67FFF715FE234E7E
:10218C00054641F28838336F9A0739D5002F3FF452
:10219C001BAF1E4A136C23F08053136414E7002703
:1021AC00DFE72B6843F480732B60FFF7FDFD0646D9
:1021BC002B68D905D9D4FFF7F7FD801B0228F7D976
:1021CC0034E7052B04D12B6F43F004032B67D0E7C6
:1021DC002A6F22F001022A672A6F22F004022A6772
:1021EC00002BCAD1FFF7E0FD41F2883806462B6F71
:1021FC009B07CBD5FFF7D8FD801B4045F7D915E7DA
:10220C00FFF7D2FD401B4045BDD90FE70038024017
:10221C000000474200700040374DAA6802F00C02E3
:10222C00082A3ED0022B354B4FF000021A662BD1F8
:10223C00FFF7BAFD06462B6899011FD4D4E9073283
:10224C001343626A43EA8213E26A43EA0263A26AB4
:10225C005208013A43EA02436B60284B264D012297
:10226C001A66FFF7A1FD04462B689A013FF5B0AE44
:10227C00FFF79AFD001B0228F6D9D7E6FFF794FD6D
:10228C00801B0228D7D9D1E6FFF78EFD04462B68B8
:10229C009B017FF59DAEFFF787FD001B0228F6D949
:1022AC00C4E6012B3FF4ABAE6B68E26903F480012A
:1022BC0091427FF4A4AE216A03F03F028A427FF47C
:1022CC009EAE616A47F6C0721A40B2EB811F7FF472
:1022DC0096AEA26A520803F44031013AB1EB024FB8
:1022EC007FF48DAEE26A03F07063B3EB026F14BF40
:1022FC00012000209BE600BF00380240000047424E
:10230C00134908B58B6803F00C03042B1CD0082B65
:10231C001CD14A684B68496813F4800314BF0D48FC
:10232C000D48C1F3881118BF002302F03F02A1FB36
:10233C000001FDF735FF064B5B68C3F30143013326
:10234C005B00B0FBF3F008BD0248FCE70248FAE77B
:10235C000038024000127A000024F4002DE9F0410C
:10236C000D46044610B90120BDE8F081434B1A68B4
:10237C0002F00F028A4228D321688F072DD4C80798
:10238C0040D43E4B1A6802F00F02AA4265D822686C
:10239C0051076BD4130707D5394A2169936823F485
:1023AC00604343EAC1039360FFF7AAFF344B354AFD
:1023BC009B68C3F30313D35CD840334B1860334B87
:1023CC001868FFF7A7FC0020CEE7CAB21A701B688A
:1023DC0003F00F038B42C6D1CEE7294B11F0040F4B
:1023EC001EBF9A6842F4E0529A600E0742BF9A6888
:1023FC0042F460429A609A68A06822F0F0020243AC
:10240C009A60BCE762681E4B012A1CD11B6813F44E
:10241C00003FA8D01A4EB36823F003031343B360F4
:10242C00FFF7C2FC41F288380746B368626803F0D4
:10243C000C03B3EB820FA4D0FFF7B6FCC01B4045D6
:10244C00F3D9032090E7911E01291B6802D813F0E1
:10245C00007FDEE713F0020FDBE7EAB21A701B68AD
:10246C0003F00F03AB427FF47EAF90E70449E068C2
:10247C008B6823F4E05303438B608BE7003C0240F2
:10248C0000380240374100081000002004000020F2
:10249C0070477047036870B5DD681E69B107044664
:1024AC000DD5AA070BD56FF002021A610122027733
:1024BC009B699B0769D000F0BBFB00232377710756
:1024CC0010D56A070ED523686FF004021A61022238
:1024DC0022779B6913F4407F20465CD000F0A8FB68
:1024EC000023237733070FD528070DD523686FF00A
:1024FC0008021A6104222277DB699907204650D022
:10250C0000F096FB00232377F20610D5EB060ED5D0
:10251C0023686FF010021A6108222277DB6913F42A
:10252C00407F204643D000F083FB00232377F00745
:10253C0008D5E90706D523686FF001021A61204619
:10254C0000F053FB320608D52B0606D523686FF036
:10255C0080021A61204600F032F8700608D5690630
:10256C0006D523686FF040021A612046FFF791FFF1
:10257C00B20622D5AB0620D523686FF02002204688
:10258C001A61BDE8704000F019B800F04FFB20460E
:10259C00FFF77EFF91E700F049FB2046FFF778FF3D
:1025AC009EE700F043FB2046FFF772FFAAE700F01E
:1025BC003DFB2046FFF76CFFB7E770BD70477047D7
:1025CC00026802F10C0353E8003F23F490730C32C1
:1025DC0042E8003102680029F2D102F1140353E8F9
:1025EC00003F23F0010302F1140C4CE800310029E8
:1025FC00F3D1036B012B0BD102F10C0353E8003F19
:10260C0023F0100302F10C0C4CE800310029F3D13B
:10261C00202380F8423000230363704790F8413048
:10262C00202B10D189B182B1C284016282840168ED
:10263C0000232122436480F84120CA6842F08002C2
:10264C00CA6018467047022070470120704708B5D1
:10265C00806B0023C38500F0C7FC08BD704790F861
:10266C004230222B07B542D181680268836AB1F5EA
:10267C00805F3FD1016900293FD15268C2F3080243
:10268C0023F8022B8362C38D013B9BB2C385002BC5
:10269C002DD10268D16821F02001D160D16821F4DC
:1026AC008071D160516921F001015161202280F8C3
:1026BC0042204363026B012A026828D1036302F1B2
:1026CC000C0353E8003F23F0100302F10C0C4CE810
:1026DC0000310029F3D11368DB0605D5019113688D
:1026EC00019353680193019B818DFFF7B7FF03B0F2
:1026FC005DF804FB39B9016929B95268D2B21A7074
:10270C00836A0133BEE7526802F07F02F7E700F0FC
:10271C0065FCECE703681A6873B51607D9685D6940
:10272C00044608D1960668D58D0666D502B0BDE87C
:10273C007040FFF794BF05F0010001F4907505435C
:10274C005BD0D60705D5CD0542BF636C43F00103C2
:10275C006364530704D518B1636C43F002036364DC
:10276C00960704D518B1636C43F004036364150732
:10277C0007D501F0200303431EBF636C43F008032D
:10278C006364636C002B32D0920604D58B0602D5A1
:10279C002046FFF764FF26687369626C03F0400300
:1027AC0002F0080253EA0205204622D0FFF708FF88
:1027BC0073695E0618D5226802F1140353E8003FD2
:1027CC0023F04003143242E800310029F3D1E06BCE
:1027DC0050B1774B0365FFF7C7FB40B1E06B036D5E
:1027EC0002B0BDE870401847204600F0FDFB02B077
:1027FC0070BD00F0F9FB6564F9E7206B012840F02F
:10280C009B80D50640F19880C80640F19580002247
:10281C0001921A6801925A680192019A5A69A18D23
:10282C00520656D5E06B0268526892B2002A47D025
:10283C00914245D9E285C269B2F5807F36D003F169
:10284C000C0252E8002F22F4807203F10C0040E8D5
:10285C0000210029F3D103F1140252E8002F22F0D9
:10286C00010203F1140040E800210029F3D103F127
:10287C00140252E8002F22F0400203F1140040E849
:10288C0000210029F3D1202284F84220216303F196
:10289C000C0252E8002F22F0100203F10C0040E869
:1028AC0000210029F3D1E06BFFF720FB02236363C7
:1028BC00E38DA18DC91A89B22046FFF7CFFE96E7AA
:1028CC00914294D1C369B3F5807F90D102236363A5
:1028DC00F2E7E28DE08D80B292B2002887D0891A9F
:1028EC0089B2002983D003F10C0252E8002F22F4A4
:1028FC00907203F10C0545E800200028F3D103F198
:10290C00140252E8002F22F0010203F1140545E8ED
:10291C0000200028F3D1202284F84220206303F108
:10292C000C0252E8002F22F0100203F10C0545E8CE
:10293C0000200028F3D1C9E7160628D50D0626D5A8
:10294C0094F84120212A7FF452AFA168226AB1F594
:10295C00805F17D12169A9B932F8021BC1F30801B4
:10296C0059602262E28C013A92B2E284002A7FF42E
:10297C003EAFDA6822F08002DA60DA6842F0400298
:10298C00DA6034E7511C216212785A60EAE750068B
:10299C007FF52DAF4A067FF52AAFDA6822F04002A8
:1029AC00DA60202384F84130204600F01AFB1EE741
:1029BC005B26000890F84030012B11D002682423CC
:1029CC0080F84130D36823F00C0343F00803D36044
:1029DC00202380F84130002380F84030184670479F
:1029EC000220704790F84030012B11D0026824234C
:1029FC0080F84130D36823F00C0343F00403D36018
:102A0C00202380F84130002380F84030184670476E
:102A1C000220704790F8412090F842001043704714
:102A2C00C2850023828502694364222380F84230E8
:102A3C00816203681AB1DA6842F48072DA605A690A
:102A4C0042F001025A61DA6842F02002DA6000209A
:102A5C00704770B590F84260202E07D141B13AB161
:102A6C0000240463FFF7DCFF204670BD0220FCE766
:102A7C000120FAE7836810B5044613B1032201461E
:102A8C009847204610BD000010B5074C206810B1C7
:102A9C000430FFF7FFFC606A20B1BDE81040043041
:102AAC00FFF7F8BC10BD00BF8C000020034B18686A
:102ABC0010B10430FFF7EEBC704700BF8C00002053
:102ACC00034B586810B10430FFF7E4BC704700BFEB
:102ADC008C000020034B986810B10430FFF7DABC6F
:102AEC00704700BF8C000020034BD86810B1043035
:102AFC00FFF7D0BC704700BF8C000020034B186957
:102B0C0010B10430FFF7C6BC704700BF8C0000202A
:102B1C00034B586910B10430FFF7BCBC704700BFC1
:102B2C008C000020034B986910B10430FFF7B2BC45
:102B3C00704700BF8C00002010B5074CE06910B145
:102B4C000430FFF7A7FC206B20B1BDE81040043027
:102B5C00FFF7A0BC10BD00BF8C000020034BD86950
:102B6C0010B10430FFF796BC704700BF8C000020FA
:102B7C00034B186A10B10430FFF78CBC704700BFD0
:102B8C008C000020034B986A10B10430FFF782BC14
:102B9C00704700BF8C000020034BD86A10B1043082
:102BAC00FFF778BC704700BF8C000020034B586BBC
:102BBC0010B10430FFF76EBC704700BF8C000020D2
:102BCC00826810B50AB900F029FFBDE81040C3684F
:102BDC00184708B500B9FEE700F09EF90068836E4F
:102BEC0013B16030FFF7ECFF08BDFFF7F2BF10B573
:102BFC0000B9FEE7037F013B072B10D8DFE803F099
:102C0C0004140F100F0F0F12012400F085F9006847
:102C1C00063400EB041083680BB1FFF7D1FF10BD35
:102C2C000324F2E70424F0E70224EEE7FFF7DFBF0A
:102C3C00FFF7DDBFFFF7B8B8704708B5FFF7A8F886
:102C4C00FFF73FF9FFF7F8FF08BD704784B0114B51
:102C5C0000220192196C41F080511964196C01F039
:102C6C008051019101990292596C41F4804159644F
:102C7C00596C01F480410291029903921A6B42F44F
:102C8C0080521A631B6B03F480530393039B04B0B1
:102C9C00704700BF003802400C4BD3F8FC20D20127
:102CAC005EBFD3F8FC2042F08072C3F8FC20084BC6
:102CBC0000225A601A6842F001021A6000BF00BF7D
:102CCC0000BF5868B0FA80F04009704700ED00E092
:102CDC00001000E008B5FFF7B9FFFFF7DDFFFFF7C5
:102CEC003DF8FFF7B2FF00F02DFABDE808400148AF
:102CFC00FFF7ECB8080000200023C0E90033C0E95E
:102D0C00023370470023012803F101020AD1142277
:102D1C00DBB25343054A181D1044816829B11A448B
:102D2C001369184740081346EDE77047C4000020AC
:102D3C000120FFF72BB90220FFF728B90420FFF779
:102D4C0025B90820FFF722B91020FFF71FB908B5E5
:102D5C002020FFF71BF94020FFF718F98020FFF720
:102D6C0015F94FF48070FFF711F9BDE808404FF4E6
:102D7C000070FFF70BB938B506244FF48065A8B284
:102D8C00FFF704F9013C4FEA4505F8D138BD0000C6
:102D9C00344A104608B5062300F8043BFFF7ACFF95
:102DAC00072302F118001375FFF7A6FF082302F1A1
:102DBC002C0082F82830FFF79FFF092302F1400016
:102DCC0082F83C30FFF798FF0A2302F1540082F896
:102DDC0050301721FFF790FF02F1680082F8641061
:102DEC00FFF78AFF02F17C0082F87810FFF784FF6E
:102DFC0002F1900082F88C10FFF77EFF02F1A40024
:102E0C0082F8A010FFF778FF02F1B80082F8B41036
:102E1C002821FFF771FF02F1CC0082F8C810FFF7F0
:102E2C006BFF02F1E00082F8DC10FFF765FF02F1A6
:102E3C00F40082F8F010FFF75FFF02F5847082F85F
:102E4C000411FFF759FF02F58E7082F81811FFF785
:102E5C0053FFBDE8084002F5987082F82C11FFF77B
:102E6C004BBF00BFC400002038B5054CA4F5A075BD
:102E7C00143C201DFFF7FEFDAC42F9D138BD00BF5C
:102E8C00040200200B685A1C01D1002070478342B9
:102E9C0001D1486870470C31F4E7431C01D0FFF7AF
:102EAC00F1BF002070474B6813B94FF0FF307047EB
:102EBC00834201D1086870470C31F4E708B1FFF781
:102ECC00F2BF4FF0FF3070471049D1F8883043F40F
:102EDC007003C1F888300E4B1A6842F001021A6078
:102EEC0000229A601A6822F0847222F480321A60EE
:102EFC00084A5A601A6822F480221A604FF47F0242
:102F0C00DA604FF000638B60704700BF00ED00E0AB
:102F1C0000380240103000240438704708B5074BC5
:102F2C0090F8652053F82200FFF774FD00F02200A2
:102F3C00A0F122035842584108BD00BF04020020F2
:102F4C0008B5074B90F8652053F82200FFF762FD97
:102F5C0000F02100A0F121035842584108BD00BFE8
:102F6C000402002038B515460446B8B1016590F945
:102F7C006400FEF771FFE36EB4F8761094F8650008
:102F8C0013FA81F1064BAAB253F82000FFF746FB67
:102F9C0094F96400BDE83840FEF750BF38BD00BF5F
:102FAC000402002048B1836D013306D190F86520EE
:102FBC00024B53F82200FFF7FDBC704704020020BF
:102FCC0048B1836D013306D190F86520024B53F85C
:102FDC002200FFF707BD704704020020836C043801
:102FEC001847C36C0438184730B5044650F80439F8
:102FFC001D6815F0010585B012D0002200921A68E8
:10300C0000925B680093009BFFF788FF40BB012296
:10301C0004F16201204605B0BDE83040FFF719BD50
:10302C00196811F0020106D001951A6801925B68CB
:10303C000193019BE8E71A6812F0040206D0029192
:10304C001A6802925B680293029BDDE71968090714
:10305C00DAD503921A6803925B680393039BD3E758
:10306C0005B030BD08B52520FEF71CFF024B1868D3
:10307C00BDE80840FFF74EBB0402002008B526202F
:10308C00FEF710FF034B586818B1BDE80840FFF776
:10309C0041BB08BD0402002008B52720FEF702FF43
:1030AC00034B986818B1BDE80840FFF733BB08BD67
:1030BC000402002008B53420FEF7F4FE024BD86859
:1030CC00BDE80840FFF726BB0402002008B53520F8
:1030DC00FEF7E8FE024B1869BDE80840FFF71ABB83
:1030EC000402002008B54720FEF7DCFE024B5869AD
:1030FC00BDE80840FFF70EBB0402002008B55220C3
:10310C00FEF7D0FE024B9869BDE80840FFF702BB02
:10311C000402002008B55320FEF7C4FE024BD86908
:10312C00BDE80840FFF7F6BA04020020FEE70000F5
:10313C00024B16221A604FF0FF30704774040020C7
:10314C000120704710B594B0102200210AA800F09D
:10315C0063FA1422002103A800F05EFA1F4B002131
:10316C0001911A6C42F080521A641B6C1C4A03F0D9
:10317C0080530193019B0291136823F4404343F461
:10318C0080431360136803F440430293029B0122B3
:10319C004FF480330224CDE908234FF48003CDE9AA
:1031AC000E4304214823CDE9101308A803231294DD
:1031BC001393FEF7F7FE00B1FEE70F23CDE90334BE
:1031CC004FF48053CDE906300590214603A8FFF754
:1031DC00C5F800B1FEE714B010BD00BF00380240C6
:1031EC000070004008B50320FEF7E4FDBDE8084080
:1031FC0000F042B808B5AFF30080FDF74DF8FEF7CC
:10320C0087FD00F02BF8FAE7DFF834D0FFF75CFE0F
:10321C000C480D490D4A002302E0D458C450043325
:10322C00C4188C42F9D30A4A0A4C002301E01360FB
:10323C000432A242FBD300F0F7F9FFF7DBFF704733
:10324C00000003200000002064000020E04400087F
:10325C006400002078040020FEE7000008B5044B51
:10326C002BB1044800F00AF808B1AFF3008008BD98
:10327C000000000024020020FFF72CBDB0F808313C
:10328C00B0F80421981A00F03F007047B0F80831EC
:10329C00B0F804219BB293421ABFD0F8FC30985C72
:1032AC004FF0FF30704790F80631B0F80A01C0B209
:1032BC00834227BFC3F13F03C018C01A00F1FF308F
:1032CC00704707B503688DF807105B6801220DF194
:1032DC000701984703B05DF804FB0000B0F87620B6
:1032EC00816F11FA82F202F03F0210B5A0F876203D
:1032FC00B0F87610B0F8722089B28A421AD0B0F8C1
:10330C007640B0F87610A4B24032121B544289B207
:10331C0004F03F0402F03F02C1F1400158BF624289
:10332C008A4228BF0A4682670349FFF71BFE4FF00B
:10333C00FF3010BD0020FCE7E93200082DE9F8430E
:10334C00036804469B6888461646984701232374F5
:10335C00D4F8EC30B4F8067101338146C7F140075C
:10336C0009D194F8113133B1002384F8113104F1EF
:10337C009400FFF717FE236820469B6898470028A7
:10338C00F9D03546BD4225D84D4523D8B4F8063181
:10339C00D4F800015A19402A184430D82A4641461C
:1033AC0000F066F92F46B4F806311D4405F03F05D0
:1033BC00A4F8065104F194052846FFF7C1FD30B975
:1033CC001649C4F80C713A462846FFF7CBFD304637
:1033DC00BDE8F8834F45236828BF4F463A4641461F
:1033EC005B6820469847236820469B689847ED1BEE
:1033FC00B844B4F806718146C7F14007C2E7C3F17F
:10340C0040073A46414600F033F9D4F80001EA1B74
:10341C0008EB070100F02CF9C5E700BFE932000802
:10342C00C0F8F030009BC0F8F430914208BF4FF068
:10343C00FF3100F11403C0E93A21C0F8FC3000F16F
:10344C0054020023A0F80831C0E94023A0F80A3147
:10345C0070470000F7B54FF47A7317460022C0E9A5
:10346C0001231D4B03604FF0FF33C0F8EC301B4BB6
:10347C001B4E04469C42D6F8D4000D4605D1336E43
:10348C00C4F8EC30C4F8E8000BE01649FFF705FD72
:10349C00854216D1336EC4F8EC30D6F8D430C4F86B
:1034AC00E830012F4FF0FF3308BFC4F8EC30009325
:1034BC002046D4E93A214FF0FF33FFF7B1FF03B0B8
:1034CC00F0BD09492846FFF7F9FC0649C4F8EC00A1
:1034DC002846FFF7F3FCD5E79C44000824020020A3
:1034EC00C84200080842000848410008037C70B537
:1034FC0004460D46A3B1FEF757FC0646B4F8062168
:10350C00B4F80A319BB29A420AD0002DF8D0FEF7DB
:10351C004BFC801B8542F1D8B4F80A31A4F8063173
:10352C0070BD0021FFF7E2BFD0F8EC30013310B5CD
:10353C0004460ED10368DB68984794F8113143B9FF
:10354C00012384F8113104F19400BDE81040FFF719
:10355C0037BD10BD10B50446FFF7E6FFB4F80821DF
:10356C00B4F8043192B29A421FBFD4F8FC20D05C5C
:10357C00013303F03F0314BFA4F804314FF0FF30C4
:10358C0010BD0000024903480022FFF763BF00BFD3
:10359C00001001402402002010B5044600F03AF857
:1035AC00E060236820465B699847002808DA00F041
:1035BC0031F8E368C01AA3689842F2D34FF0FF3099
:1035CC0010BDF8B507460D468E180C46B44201D115
:1035DC00601BF8BD3846FFF7DFFF431CF8D004F83A
:1035EC00010BF3E72DE9F0410746884616461D46C8
:1035FC0073B100243846FFF7CFFF431C05D040457C
:10360C0003D030550134A542F4D12046BDE8F081F9
:10361C001C46FAE7FFF70EBB02440346934200D167
:10362C00704703F8011BF9E770B50D4B0D4D5B1B93
:10363C009C100026A64209D100F0F4F90A4D0B4B60
:10364C005B1B9C100026A64205D170BD55F8043BAF
:10365C0098470136EEE755F8043B98470136F2E7F8
:10366C00C8440008C8440008C8440008D8440008EE
:10367C000A44914200F1FF3300D1704710B511F8A4
:10368C00014B03F8014F9142F9D110BD08B506204A
:10369C0000F02CF80120FFF749FD1F2938B505462D
:1036AC000C4604D9162303604FF0FF3038BDC26BB3
:1036BC0012B152F821304BB9284600F031F82246AD
:1036CC0001462846BDE8384000F018B8012B0AD056
:1036DC00591C03D1162303600120E7E7002142F8AF
:1036EC002410204698470020E0E70000024B0146DA
:1036FC001868FFF7D2BF00BF1400002038B5074D83
:10370C0000230446084611462B60FFF711FD431CAD
:10371C0002D12B6803B1236038BD00BF74040020B4
:10372C00FFF70EBD2DE9F047089D0F4604468C4669
:10373C00002B48D18A42164661D9B2FA82F34BB1BA
:10374C00C3F1200201FA03FC20FA02F29E4042EA85
:10375C000C0C9C404FEA164EB7B2BCFBFEF1220C8F
:10376C000EFB11CC42EA0C4201FB07F0904209D946
:10377C00B21801F1FF3C80F0EE80904240F2EB80F9
:10378C0002393244121AA4B2B2FBFEF00EFB102224
:10379C0044EA024400FB07F7A74209D9341900F1A7
:1037AC00FF3280F0DA80A74240F2D78034440238EE
:1037BC0040EA0140E41B00211DB1DC400023C5E9B7
:1037CC000043BDE8F0878B4206D90DB1C5E9000175
:1037DC0000210846BDE8F087B3FA83F1002948D1EF
:1037EC00BB4202D3824200F20781841A67EB0302C8
:1037FC0001209446002DE4D0C5E9004CE1E7002AF5
:10380C0000F09280B2FA82F3002B40F0A8808A1A62
:10381C004FEA164E1FFA86FC0121200CB2FBFEF774
:10382C000EFB172240EA02420CFB07F0904207D92C
:10383C00B21807F1FF3802D2904200F2E2804746FC
:10384C00121AA4B2B2FBFEF00EFB102244EA0244A0
:10385C000CFB00FCA44507D9341900F1FF3202D24D
:10386C00A44500F2CB801046A4EB0C0440EA0740C0
:10387C00A2E7C1F120068B4022FA06FC4CEA030CAD
:10388C0007FA01F420FA06F3F7404FEA1C492343E8
:10389C0000FA01F81FFA8CFEB7FBF9F01C0C09FBBF
:1038AC00107744EA074400FB0EF7A74202FA01F234
:1038BC000AD91CEB040400F1FF3A80F09B80A7426C
:1038CC0040F2988002386444E41B9FB2B4FBF9F3D5
:1038DC0009FB134447EA044403FB0EFEA64509D931
:1038EC001CEB040403F1FF3780F08280A6457FD9DE
:1038FC00023B644443EA0040A4EB0E04A0FB02E745
:10390C00BC427346B94663D360D05DB1B8EB0302D9
:10391C0064EB090404FA06F622FA01F31E43CC40C8
:10392C00C5E9006400214CE76208480842EAC1710D
:10393C000B0C43EA00438AB242EA0342B3FBF6F1B2
:10394C00E407B4463746B6461F23B0FBF6F0D21B4D
:10395C0041EA004161E7614614E7104628E7C3F1EC
:10396C00200120FA01F29E4027FA01F19F403A43D0
:10397C004FEA164E1FFA86FCB1FBFEF70EFB171032
:10398C00110C41EA004107FB0CF8884504FA03F4DA
:10399C003AD9711807F1FF3001D288451FD8A1EB35
:1039AC000801B1FBFEF808FB0CF70EFB181192B2E4
:1039BC0042EA0142BA422FD2B21808F1FF31C6D204
:1039CC00BA42C4D2A8F102013244C0E7F0459CD2FD
:1039DC00BEEB020367EB0C070138B94695E7A6EB83
:1039EC0008084144B81EB1FBFEF808FB0CF7DCE7F5
:1039FC003B467FE7504667E70846FBE6344402380F
:103A0C0032E7023F32441BE7A1EB08013846B1FB19
:103A1C00FEF808FB0CF7C8E7414698E708B5FFF736
:103A2C0035FE0000F8B500BFF8BC08BC9E467047D8
:0C3A3C00F8B500BFF8BC08BC9E467047FF
:103A48003D3D3D2044454550205045524950482071
:103A580054455354203D3D3D0A00504153532000E6
:103A680046534D4320424352312077726974652F83
:103A780072656164004641494C200046534D43201D
:103A8800425452312077726974650046534D432081
:103A9800424352322077726974652F7265616400FF
:103AA80046534D4320425452322077726974650060
:103AB80043414E20494E414B207365742061667422
:103AC800657220494E52510043414E20494E414BA8
:103AD80020636C6561726564206166746572206C30
:103AE800656176696E6720696E69740043414E208E
:103AF8005458525120636F6D706C6574656420284A
:103B0800544D4530290043414E20544952302077C6
:103B180072697465005344494F20434D4430204333
:103B28004D4453454E54005344494F20434D443867
:103B380020434D4453454E54005344494F20434D70
:103B4800443820726573706F6E73652076616C6996
:103B580064005344494F2041434D44343120434D80
:103B68004453454E54005344494F20434D4432205A
:103B7800434D4453454E54005344494F20434D440C
:103B88003320434D4453454E54005344494F20433A
:103B98004D443720434D4453454E54005344494FF8
:103BA80020434D44313320737461747573203D2074
:103BB80030783130302028726561647929005344A7
:103BC800494F20434D4431372044434F554E5420EC
:103BD800736574005344494F2064617461207866AA
:103BE8006572206163746976650044434D492053CA
:103BF800522064656661756C7420300044434D49F9
:103C0800204352207772697465206D6178004443BF
:103C18004D492043522077726974652030783146C7
:103C28000044434D49206461746120696E63726584
:103C38006D656E74730044434D4920464E452073AC
:103C4800657420616674657220636170747572654D
:103C58000044434D492049455220777269746500F4
:103C680044434D4920464E4520636C656172656446
:103C78002061667465722064697361626C650044D2
:103C8800434D492043575354525420777269746501
:103C980000493253204932534346475220777269CC
:103CA8007465004932532049325350522077726963
:103CB80074650049325320493253434647522063C2
:103CC8006C656172656400493253326578742043CB
:103CD80052312077726974650049325332657874BD
:103CE8002049325343464752207772697465004928
:103CF80032533265787420493253505220777269B2
:103D08007465004932533365787420435231207703
:103D180072697465004932533365787420493253A7
:103D280043464752207772697465005341492041E0
:103D38005F4352312064656661756C740053414974
:103D480020415F43523120777269746500534149BD
:103D580020415F43523220777269746500534149AC
:103D680020415F465243522064656661756C740059
:103D780053414920415F4652435220777269746526
:103D88000053414920415F534C4F54522077726988
:103D980074650053414920415F5352206465666150
:103DA800756C740053414920415F434C5246522080
:103DB80077726974650053414920415F4452207706
:103DC800726974652F726561640053414920425FCE
:103DD8004352312064656661756C74005341492013
:103DE800425F435231207772697465004C544443F2
:103DF80020535343522077726974652F726561644A
:103E0800004C544443204743522064656661756CF6
:103E180074004C54444320424343522077726974DF
:103E2800652F72656164004C544443204945522013
:103E38007772697465004C544443204943522063A7
:103E48006C656172656420495352004C54444320A8
:103E58004C3143522077726974652F726561640032
:103E68004C544443204C31434642415220777269B6
:103E780074652F72656164004C544443204C31438F
:103E880046424C522077726974652F7265616400EE
:103E98004558544920494D522077726974652F72EC
:103EA8006561640045585449205254535220777232
:103EB8006974652F726561640045585449204654F9
:103EC80053522077726974652F7265616400455892
:103ED8005449205357494552207365742050520065
:103EE8004558544920505220636C656172656400DE
:103EF800535953434647204D454D524D20777269DB
:103F080074652F72656164005359534346472045D1
:103F18005854494352312077726974652F7265612C
:103F28006400535953434647204558544943523433
:103F38002077726974652F72656164004442474D49
:103F48004355204944434F44452064656661756C78
:103F580074004442474D4355204352207772697498
:103F6800652F72656164004442474D4355204150B6
:103F780042315F465A2077726974652F72656164B1
:103F880000435259502043522077726974652028A3
:103F9800656E61626C652900435259502053522066
:103FA80049464E462B4F464E4500435259502041F4
:103FB80045532D3132382045434220435420776FF2
:103FC8007264300043525950204145532D313238E4
:103FD8002045434220435420776F72643100435296
:103FE8005950204145532D31323820454342204312
:103FF8005420776F72643200435259502041455320
:104008002D3132382045434220435420776F726463
:10401800330043525950204145532D313238204501
:104028004342206465637279707420776F726430DC
:104038000043525950204145532D313238204543D1
:1040480042206465637279707420776F72643100FE
:1040580043525950204145532D313238204543426F
:10406800206465637279707420776F7264320043DC
:10407800525950204145532D313238204543422072
:104088006465637279707420776F72643300435289
:10409800595020494D5343522077726974652F72E5
:1040A80065616400484153482053522044434953B2
:1040B800207365740048415348205348412D3120EE
:1040C8004852300048415348205348412D31204838
:1040D80052310048415348205348412D312048521D
:1040E800320048415348205348412D31204852332B
:1040F8000048415348205348412D3120485234004C
:104108002D2D2D2D2053554D4D415259202D2D2DFE
:104118002D0A00504153533A20004641494C3A2059
:10412800003D3D3D20444F4E45203D3D3D0A0000A9
:10413800000000000000000102030406070809004F
:1041480001000000004C00401208000003000000BD
:1041580000440040120700000A000000001001405F
:1041680012070000170000000010014012070000AD
:104178001B00000000480040120700002700000054
:1041880000140140120800002B000000004C004001
:10419800120800002B010000004800401207000030
:1041A80032000000005000401208000036000000F5
:1041B8000044004012070000390000000048004099
:1041C8001207000040000000007C004012080000B8
:1041D8004700000000780040120800005600000068
:1041E8000078004012080000690000000014014037
:1041F80012080000FFFFFFFF0000000000000000A1
:1042080000000000004C00401208000002000000FE
:10421800004400401207000009000000001001409F
:1042280012070000160000000010014012070000ED
:104238001A00000000480040120700002600000095
:1042480000140140120800002A000000004C004041
:10425800120800002A010000004800401207000070
:104268002C0000000050004012080000350000003B
:1042780000440040120700003800000000480040D9
:104288001207000041000000007C004012080000F6
:1042980048000000007800401208000057000000A5
:1042A80000780040120800006E0000000014014071
:1042B80012080000FFFFFFFF0000000000000000E0
:1042C8005400000052000000500000002E000000C2
:1042D80046000000440000004200000040000000CA
:1042E80018000000FFFFFFFF160000001400000088
:1042F8006F0000006D0000006B0000006900000006
:1043080037000000350000003300000031000000D5
:104318002C0000002A0000000E0000000C00000025
:104328000A00000008000000280000002600000025
:104338006700000065000000550000005300000001
:10434800510000002F0000002D0000004500000073
:1043580043000000410000001900000017000000A1
:1043680015000000130000006E0000006C00000043
:104378006A0000003600000034000000320000002F
:10438800300000002B0000000F0000000D000000AE
:104398000B000000090000002900000027000000B1
:1043A800680000006600000064000000560000007D
:1043B800580000005A0000007100000021000000B1
:1043C80023000000010000000300000005000000B9
:1043D8000700000025000000110000005C0000003C
:1043E8005E00000060000000470000004900000077
:1043F8004B0000004D0000004F0000001B000000B3
:104408001D0000001F000000390000003B000000F4
:104418003D0000003F00000063000000570000005E
:104428005900000070000000200000002200000079
:104438000000000002000000040000000600000068
:104448002400000010000000120000005B000000C3
:104458005D0000005F0000006100000048000000EF
:104468004A0000004C0000004E0000001A00000046
:104478001C0000001E000000380000003A00000088
:104488003C0000003E000000620000000000000048
:1044980000000000CF32000849330008B33200089A
:1044A8002F35000889320008613500089932000864
:0844B800CF350008F1350008C2
:0844C00070F2FF7F0100000013
:1044C800F1310008050200089D2D0008913500080B
:0844D800E1010008752E000847
:1044E0000100000010000000003002400000000049
:1044F0000024F40018000020000000003C0300200D
:10450000A40300200C0400200000000000000000B4
:10451000000000000000000000000000000000009B
:10452000000000000000000000000000000000008B
:10453000000000000000000000000000000000007B
:044540000000000077
:0400000508003215A8
:00000001FF
