:020000040800F2
:100000000000022029170008791700087917000856
:100010007917000879170008791700080000000018
:100020000000000000000000000000007917000838
:10003000791700080000000079170008DF11000898
:100040007917000879170008791700087917000850
:100050007917000879170008D5120008DB1200088C
:10006000E1120008E7120008ED12000879170008F5
:100070007917000879170008791700087917000820
:1000800079170008791700087917000800000000A8
:10009000000000000000000000000000F312000853
:1000A0003D110008B510000851110008D9100008D2
:1000B000ED1000080111000815110008791700085B
:1000C00079170008791700087917000879170008D0
:1000D0007917000809160008211600080000000022
:1000E0001B130008791700087917000800000000AA
:1000F0000000000000000000000000007917000868
:10010000000000007917000829110008791700087D
:1001100000000000000000000000000000000000DF
:10012000791700087917000879170008791700086F
:100130007917000800000000000000000000000027
:100140000000000000000000000000007917000817
:100150007917000879170008791700083D1600087C
:10016000791700087917000800000000000000005F
:10017000000000000000000000000000000000007F
:1001800000000000791700080000000000000000D7
:08019000791700087917000837
:1001980053B94AB9002908BF00281CBF4FF0FF31E6
:1001A8004FF0FF3000F00CB8ADF1080C6DE904CE4B
:1001B80001F08EFDDDF804E0DDE9022304B07047AC
:1001C800704700BF10B5054C237833B9044B13B101
:1001D8000448AFF300800123237010BD64000020A1
:1001E80000000000D81F000808B5034B1BB10349E5
:1001F8000348AFF3008008BD00000000680000203D
:10020800D81F000819491A4AD1F8303843F00103B9
:10021800C1F83038136843F480631360D1F840386C
:100228004FF040228B2043F40023C2F8080C43F01F
:10023800010342F20C00C2F80C0C43F67F6CC1F8C3
:1002480040384FF0804340F2E731C3E90AC1012149
:100258001960084911F8013B03B97047D2F8000C3E
:100268000006FBD5C2F8043CF4E700BF00300240AA
:1002780000000240F01F0008F0B54FF0804385B041
:100288001A69D60728D56FF001021A61244B1A683B
:1002980001321A60234A4FF0201191611B68EBB9B3
:1002A80030228DF800201A461F494FF0402011F8DF
:1002B800013B33BB4FF040236846D3F8001C0C06C3
:1002C800FBD5115CC3F8041C013AF6D2174A4FF06B
:1002D800402112F8013BDBB905B0F0BD144F6C4664
:1002E80000210A25B3FBF5F005FB10360A46BE5D72
:1002F80004F8016B1E46092E01F101010346F1D8ED
:10030800D2E7D0F8004C2506FBD5C0F8043CCEE770
:10031800D1F8000C0006FBD5C1F8043CD9E700BFB2
:100328008000002000000240082000080B20000880
:10033800FD1F00087047000038B50E4B1A784FF4BF
:100348007A73B3FBF2F30C4A05461068B0FBF3F07E
:1003580000F0A6F8044658B90F2D09D802462946D8
:100368004FF0FF3000F04AF8044B20461D6038BDBE
:100378000120FCE7000000201000002004000020FD
:1003880008B50B4B1A6842F400721A601A6842F4F6
:1003980080621A601A6842F480721A60032000F0C2
:1003A8001BF80020FFF7C8FFFFF7C4FF002008BDB7
:1003B800003C0240034A044B11681B780B4413604D
:1003C800704700BF8400002000000020014B18681F
:1003D800704700BF840000200749CA6822F4E06221
:1003E8000302120403F4E063120C134343F0BF63E7
:1003F80043F40033CB60704700ED00E0164B30B596
:10040800DC68C4F30224C4F10703251D042B28BFAC
:100418000423062D4FF0FF358CBF033C002405FA5A
:1004280003F321EA0303A54022EA0502A3400028BA
:1004380043EA0203ACBF00F16040084A4FEA0313E5
:10044800B8BF00F00F00DBB2AABF00F5614013543B
:1004580080F8003330BD00BF00ED00E014ED00E08F
:10046800002807DB044A4109012300F01F008340EC
:1004780042F82130704700BF00E100E000280CDBA3
:100488004309064900F01F0020330122824041F849
:100498002320BFF34F8FBFF36F8F704700E100E059
:1004A8000138B0F1807F0BD24FF0E023054A586144
:1004B800F02182F823100020072298611A61704702
:1004C8000120704700ED00E0002808DB43090449DB
:1004D80000F01F0001226033824041F8232070475A
:1004E80000E100E0704708B5FFF7FCFF08BD704762
:1004F80010B5044650B1437903F0FF0213B90271F5
:10050800FFF7F5FF01236371002010BD0120FCE710
:1005180070B50446866DFFF759FF94F83530022B05
:10052800054606D0802363650120002384F8343013
:1005380070BD23681A6822F016021A605A6922F000
:1005480080025A61226C0AB9A26C1AB11A6822F0A8
:1005580008021A601A6822F001021A6023681868F3
:1005680010F0010007D1E26D3F239340B3600123EF
:1005780084F83530D9E7FFF729FF401B0528EDD966
:1005880020230320636584F83500CEE790F83530E2
:10059800022B03D08023436501207047026805239E
:1005A80080F83530136823F001031360002070478A
:1005B800044A5169014208B502D0506100F070FE4A
:1005C80008BD00BF003C01402DE9F341044640B39B
:1005D8000368DE0710D423689D075BD423681907D6
:1005E80000F19D8023685A0700F1BD80A369002BA4
:1005F80040F0248100202CE08D4B9A6802F00C0218
:10060800042A07D09A6802F00C02082A0BD15B680A
:10061800590208D5864B1B689A03DCD56368002B02
:10062800D9D1012015E06368814DB3F5803F13D11E
:100638002B6843F480332B60FFF7C8FE7C4E0546D9
:1006480033689B03C7D4FFF7C1FE401B6428F7D962
:10065800032002B0BDE8F081B3F5A02F04D12B68C8
:1006680043F480232B60E3E72A6822F480322A606F
:100678002A6822F480222A60002BDDD1FFF7A6FE2B
:1006880006462B689F03A6D5FFF7A0FE801B6428AB
:10069800F7D9DDE7664B9A6812F00C0F07D09A6815
:1006A80002F00C02082A11D15B685D020ED4604A80
:1006B8001368990702D5E368012BB2D11368216941
:1006C80023F0F80343EAC103136087E7E268594B54
:1006D800B2B101221A60FFF779FE554D06462B6824
:1006E8009B0707D52B68226923F0F80343EAC20366
:1006F8002B6073E7FFF76AFE801B0228EFD9A7E794
:100708001A60FFF763FE4A4E054633689F077FF578
:1007180065AFFFF75BFE401B0228F6D998E76269D0
:10072800444B82B10122C3F8802EFFF74FFE404EA2
:100738000546736F9B073FF555AFFFF747FE401B14
:100748000228F6D984E7C3F8802EFFF73FFE384E1B
:100758000546736F9F077FF545AFFFF737FE401BD0
:100768000228F6D974E7324B1A6C12F0805228D15D
:1007780001921A6C42F080521A641B6C03F0805389
:100788000193019B01272C4D2B68D8051BD5A36825
:10079800274D012B27D12B6F43F001032B67FFF760
:1007A80015FE234E054641F28838336F9A0739D52E
:1007B800002F3FF41BAF1E4A136C23F080531364C1
:1007C80014E70027DFE72B6843F480732B60FFF7FB
:1007D800FDFD06462B68D905D9D4FFF7F7FD801B28
:1007E8000228F7D934E7052B04D12B6F43F0040313
:1007F8002B67D0E72A6F22F001022A672A6F22F0BE
:1008080004022A67002BCAD1FFF7E0FD41F28838BD
:1008180006462B6F9B07CBD5FFF7D8FD801B4045BD
:10082800F7D915E7FFF7D2FD401B4045BDD90FE7C3
:10083800003802400000474200700040374DAA6867
:1008480002F00C02082A3ED0022B354B4FF0000272
:100858001A662BD1FFF7BAFD06462B6899011FD4FB
:10086800D4E907321343626A43EA8213E26A43EA2D
:100878000263A26A5208013A43EA02436B60284BBA
:10088800264D01221A66FFF7A1FD04462B689A013E
:100898003FF5B0AEFFF79AFD001B0228F6D9D7E660
:1008A800FFF794FD801B0228D7D9D1E6FFF78EFD0C
:1008B80004462B689B017FF59DAEFFF787FD001B63
:1008C8000228F6D9C4E6012B3FF4ABAE6B68E269A7
:1008D80003F4800191427FF4A4AE216A03F03F0241
:1008E8008A427FF49EAE616A47F6C0721A40B2EB44
:1008F800811F7FF496AEA26A520803F44031013A90
:10090800B1EB024F7FF48DAEE26A03F07063B3EB94
:10091800026F14BF012000209BE600BF0038024090
:1009280000004742134908B58B6803F00C03042BF9
:100938001CD0082B1CD14A684B68496813F4800303
:1009480014BF0D480D48C1F3881118BF002302F0E9
:100958003F02A1FB0001FFF71BFC064B5B68C3F3DA
:10096800014301335B00B0FBF3F008BD0248FCE72C
:100978000248FAE70038024000127A000024F40026
:100988002DE9F0410D46044610B90120BDE8F0817B
:10099800434B1A6802F007028A4228D321688F075E
:1009A8002DD4C80740D43E4B1A6802F00702AA4269
:1009B80065D8226851076BD4130707D5394A2169CE
:1009C800936823F4604343EAC1039360FFF7AAFFE7
:1009D800344B354A9B68C3F30313D35CD840334B7D
:1009E8001860334B1868FFF7A7FC0020CEE7CAB29F
:1009F8001A701B6803F007038B42C6D1CEE7294B58
:100A080011F0040F1EBF9A6842F4E0529A600E0774
:100A180042BF9A6842F460429A609A68A06822F0DD
:100A2800F00202439A60BCE762681E4B012A1CD19F
:100A38001B6813F4003FA8D01A4EB36823F00303D1
:100A48001343B360FFF7C2FC41F288380746B36826
:100A5800626803F00C03B3EB820FA4D0FFF7B6FC77
:100A6800C01B4045F3D9032090E7911E01291B685C
:100A780002D813F0007FDEE713F0020FDBE7EAB2DB
:100A88001A701B6803F00703AB427FF47EAF90E750
:100A98000449E0688B6823F4E05303438B608BE7D9
:100AA800003C0240003802400E20000810000020E0
:100AB8000400002070477047036870B5DD681E6940
:100AC800B10704460DD5AA070BD56FF002021A61CB
:100AD800012202779B699B0769D000F077FB00230E
:100AE8002377710710D56A070ED523686FF00402C3
:100AF8001A61022222779B6913F4407F20465CD05A
:100B080000F064FB0023237733070FD528070DD5A2
:100B180023686FF008021A6104222277DB699907BB
:100B2800204650D000F052FB00232377F20610D560
:100B3800EB060ED523686FF010021A61082222779F
:100B4800DB6913F4407F204643D000F03FFB0023CD
:100B58002377F00708D5E90706D523686FF0010267
:100B68001A61204600F00FFB320608D52B0606D581
:100B780023686FF080021A61204600F032F8700690
:100B880008D5690606D523686FF040021A61204629
:100B9800FFF791FFB20622D5AB0620D523686FF088
:100BA800200220461A61BDE8704000F019B800F034
:100BB8000BFB2046FFF77EFF91E700F005FB204680
:100BC800FFF778FF9EE700F0FFFA2046FFF772FF75
:100BD800AAE700F0F9FA2046FFF76CFFB7E770BD07
:100BE80070477047026802F10C0353E8003F23F492
:100BF80090730C3242E8003102680029F2D102F108
:100C0800140353E8003F23F0010302F1140C4CE8ED
:100C180000310029F3D1036B012B0BD102F10C0336
:100C280053E8003F23F0100302F10C0C4CE80031AC
:100C38000029F3D1202380F8423000230363704752
:100C480090F84130202B10D189B182B1C284016261
:100C58008284016800232122436480F84120CA6805
:100C680042F08002CA60184670470220704701208F
:100C7800704708B5806B0023C38500F083FC08BD6E
:100C8800704790F84230222B07B542D1816802683C
:100C9800836AB1F5805F3FD1016900293FD152686D
:100CA800C2F3080223F8022B8362C38D013B9BB277
:100CB800C385002B2DD10268D16821F02001D160B5
:100CC800D16821F48071D160516921F0010151612D
:100CD800202280F842204363026B012A026828D14F
:100CE800036302F10C0353E8003F23F0100302F101
:100CF8000C0C4CE800310029F3D11368DB0605D54C
:100D080001911368019353680193019B818DFFF74B
:100D1800B7FF03B05DF804FB39B9016929B9526816
:100D2800D2B21A70836A0133BEE7526802F07F02BA
:100D3800F7E700F021FCECE703681A6873B51607BB
:100D4800D9685D69044608D1960668D58D0666D5CA
:100D580002B0BDE87040FFF794BF05F0010001F450
:100D6800907505435BD0D60705D5CD0542BF636CAA
:100D780043F001036364530704D518B1636C43F06F
:100D880002036364960704D518B1636C43F0040347
:100D98006364150707D501F0200303431EBF636C86
:100DA80043F008036364636C002B32D0920604D5C9
:100DB8008B0602D52046FFF764FF26687369626CCC
:100DC80003F0400302F0080253EA0205204622D04D
:100DD800FFF708FF73695E0618D5226802F114034D
:100DE80053E8003F23F04003143242E80031002961
:100DF800F3D1E06B50B1774B0365FFF7C7FB40B108
:100E0800E06B036D02B0BDE870401847204600F063
:100E1800B9FB02B070BD00F0B5FB6564F9E7206B63
:100E2800012840F09B80D50640F19880C80640F123
:100E38009580002201921A6801925A680192019ADB
:100E48005A69A18D520656D5E06B0268526892B273
:100E5800002A47D0914245D9E285C269B2F5807F20
:100E680036D003F10C0252E8002F22F4807203F10D
:100E78000C0040E800210029F3D103F1140252E8E4
:100E8800002F22F0010203F1140040E8002100299C
:100E9800F3D103F1140252E8002F22F0400203F1CB
:100EA800140040E800210029F3D1202284F84220D0
:100EB800216303F10C0252E8002F22F0100203F123
:100EC8000C0040E800210029F3D1E06BFFF720FB7C
:100ED80002236363E38DA18DC91A89B22046FFF707
:100EE800CFFE96E7914294D1C369B3F5807F90D144
:100EF80002236363F2E7E28DE08D80B292B20028AC
:100F080087D0891A89B2002983D003F10C0252E8EC
:100F1800002F22F4907203F10C0545E80020002808
:100F2800F3D103F1140252E8002F22F0010203F179
:100F3800140545E800200028F3D1202284F8422037
:100F4800206303F10C0252E8002F22F0100203F193
:100F58000C0545E800200028F3D1C9E7160628D576
:100F68000D0626D594F84120212A7FF452AFA168B6
:100F7800226AB1F5805F17D12169A9B932F8021B3D
:100F8800C1F3080159602262E28C013A92B2E2840C
:100F9800002A7FF43EAFDA6822F08002DA60DA686D
:100FA80042F04002DA6034E7511C216212785A603C
:100FB800EAE750067FF52DAF4A067FF52AAFDA68D3
:100FC80022F04002DA60202384F84130204600F005
:100FD800D6FA1EE77B0C000890F84030012B11D0A0
:100FE8000268242380F84130D36823F00C0343F0CF
:100FF8000803D360202380F84130002380F8403074
:10100800184670470220704790F84030012B11D0E5
:101018000268242380F84130D36823F00C0343F09E
:101028000403D360202380F84130002380F8403047
:10103800184670470220704790F8412090F8420007
:1010480010437047C28500238285026943642223C6
:1010580080F84230816203681AB1DA6842F480721B
:10106800DA605A6942F001025A61DA6842F02002F5
:10107800DA600020704770B590F84260202E07D1E2
:1010880041B13AB100240463FFF7DCFF204670BD8C
:101098000220FCE70120FAE7836810B5044613B183
:1010A800032201469847204610BD000010B5074CA2
:1010B800206810B10430FFF7FFFCA06920B1BDE83B
:1010C80010400430FFF7F8BC10BD00BF88000020B6
:1010D800034B186810B10430FFF7EEBC704700BF2F
:1010E80088000020034B586810B10430FFF7E4BCB7
:1010F800704700BF88000020034B986810B1043087
:10110800FFF7DABC704700BF88000020034BD8689F
:1011180010B10430FFF7D0BC704700BF8800002032
:10112800034B186910B10430FFF7C6BC704700BF05
:1011380088000020034B586910B10430FFF7BCBC8D
:10114800704700BF88000020034BD86910B10430F5
:10115800FFF7B2BC704700BF88000020826810B556
:101168000AB900F031FFBDE81040C368184708B558
:1011780000B9FEE700F09EF90068836E13B1603095
:10118800FFF7ECFF08BDFFF7F2BF10B500B9FEE7A7
:10119800037F013B072B10D8DFE803F004140F107E
:1011A8000F0F0F12012400F085F90068063400EBD8
:1011B800041083680BB1FFF7D1FF10BD0324F2E7D9
:1011C8000424F0E70224EEE7FFF7DFBFFFF7DDBFF7
:1011D800FFF7FCB8704708B5FFF7ECF8FFF783F99D
:1011E800FFF7F8FF08BD704784B0114B0022019249
:1011F800196C41F080511964196C01F0805101910A
:1012080001990292596C41F480415964596C01F476
:1012180080410291029903921A6B42F480521A6338
:101228001B6B03F480530393039B04B0704700BF08
:10123800003802400C4BD3F8FC20D2015EBFD3F833
:10124800FC2042F08072C3F8FC20084B00225A6050
:101258001A6842F001021A6000BF00BF00BF586858
:10126800B0FA80F04009704700ED00E0001000E09F
:1012780008B5FFF7B9FFFFF7DDFFFFF781F8FFF7C4
:10128800B2FF00F0EFF9BDE808400148FFF730B9B8
:10129800080000200023C0E90033C0E9023370478A
:1012A8000023012803F101020AD11422DBB25343BF
:1012B800054A181D1044816829B11A441369184752
:1012C80040081346EDE77047A80000200120FFF70B
:1012D8006FB90220FFF76CB90420FFF769B908203D
:1012E800FFF766B91020FFF763B908B52020FFF7AC
:1012F8005FF94020FFF75CF98020FFF759F94FF4B8
:101308008070FFF755F9BDE808404FF40070FFF70B
:101318004FB938B506244FF48065A8B2FFF748F9ED
:10132800013C4FEA4505F8D138BD0000344A104663
:1013380008B5062300F8043BFFF7ACFF072302F1CA
:1013480018001375FFF7A6FF082302F12C0082F896
:101358002830FFF79FFF092302F1400082F83C3054
:10136800FFF798FF0A2302F1540082F85030172142
:10137800FFF790FF02F1680082F86410FFF78AFF18
:1013880002F17C0082F87810FFF784FF02F19000E8
:1013980082F88C10FFF77EFF02F1A40082F8A010FB
:1013A800FFF778FF02F1B80082F8B4102821FFF7A0
:1013B80071FF02F1CC0082F8C810FFF76BFF02F151
:1013C800E00082F8DC10FFF765FF02F1F40082F814
:1013D800F010FFF75FFF02F5847082F80411FFF741
:1013E80059FF02F58E7082F81811FFF753FFBDE818
:1013F800084002F5987082F82C11FFF74BBF00BF28
:10140800A800002038B5054CA4F5A075143C201D93
:10141800FFF742FEAC42F9D138BD00BFE801002019
:101428000B685A1C01D100207047834201D14868DB
:1014380070470C31F4E7431C01D0FFF7F1BF0020DF
:1014480070474B6813B94FF0FF307047834201D1A2
:10145800086870470C31F4E708B1FFF7F2BF4FF0A6
:10146800FF3070471049D1F8883043F47003C1F851
:1014780088300E4B1A6842F001021A6000229A6006
:101488001A6822F0847222F480321A60084A5A607C
:101498001A6822F480221A604FF43F02DA604FF093
:1014A80000638B60704700BF00ED00E00038024029
:1014B800103000240438704708B5074B90F86520B1
:1014C80053F82200FFF7B8FD00F02200A0F1220334
:1014D8005842584108BD00BFE801002008B5074B35
:1014E80090F8652053F82200FFF7A6FD00F02100D0
:1014F800A0F121035842584108BD00BFE80100206F
:1015080038B515460446B8B1016590F96400FEF790
:10151800B5FFE36EB4F8761094F8650013FA81F11C
:10152800064BAAB253F82000FFF78AFB94F964002F
:10153800BDE83840FEF794BF38BD00BFE801002081
:1015480048B1836D013306D190F86520024B53F8FA
:101558002200FFF741BD7047E801002048B1836DC4
:10156800013306D190F86520024B53F82200FFF7AB
:101578004BBD7047E8010020836C04381847C36CE2
:101588000438184730B5044650F804391D6815F07A
:10159800010585B012D0002200921A6800925B689B
:1015A8000093009BFFF788FF40BB012204F1620112
:1015B800204605B0BDE83040FFF75DBD196811F061
:1015C800020106D001951A6801925B680193019B9C
:1015D800E8E71A6812F0040206D002911A6802922B
:1015E8005B680293029BDDE719680907DAD5039265
:1015F8001A6803925B680393039BD3E705B030BD79
:1016080008B52520FEF760FF024B1868BDE80840C2
:10161800FFF792BBE801002008B52620FEF754FF2B
:10162800034B586818B1BDE80840FFF785BB08BDF3
:10163800E801002008B54720FEF746FF024B9868EE
:10164800BDE80840FFF778BBE8010020FEE700008E
:10165800024B16221A604FF0FF30704744040020F6
:101668000120704710B594B0102200210AA800F09C
:10167800A9FA1422002103A800F0A4FA1D4B0021A6
:1016880001911A6C42F080521A641B6C03F080536B
:101698000193019B184B02911A6842F440421A6068
:1016A8001B6803F4404302930122029B4FF4A023DA
:1016B800CDE9082302244FF48003CDE90E436422C8
:1016C800042308A8CDE91032CDE91243FEF77CFFC8
:1016D80000B1FEE70F23CDE903344FF48053CDE981
:1016E80006300590032103A8FFF74AF900B1FEE789
:1016F80014B010BD003802400070004008B5032047
:10170800FEF76AFEBDE8084000F042B808B5AFF33E
:101718000080FEF777FDFEF7AFFD00F02BF8FAE743
:10172800DFF834D0FFF79EFE0C480D490D4A002320
:1017380002E0D458C4500433C4188C42F9D30A4A7E
:101748000A4C002301E013600432A242FBD300F0EC
:1017580041FAFFF7DBFF704700000220000000207D
:1017680064000020242200086400002048040020AF
:10177800FEE7000008B5044B2BB1044800F00AF856
:1017880008B1AFF3008008BD00000000F40100209C
:10179800FFF76EBDB0F80831B0F80421981A00F0D0
:1017A8003F007047B0F80831B0F804219BB293426B
:1017B8001ABFD0F8FC30985C4FF0FF30704790F8B3
:1017C8000631B0F80A01C0B2834227BFC3F13F0314
:1017D800C018C01A00F1FF30704707B503688DF8CC
:1017E80007105B6801220DF10701984703B05DF807
:1017F80004FB0000B0F87620816F11FA82F202F043
:101808003F0210B5A0F87620B0F87610B0F8722034
:1018180089B28A421AD0B0F87640B0F87610A4B2ED
:101828004032121B544289B204F03F0402F03F02D6
:10183800C1F1400158BF62428A4228BF0A46826706
:101848000349FFF75DFE4FF0FF3010BD0020FCE7B5
:10185800FD1700082DE9F843036804469B6888468D
:101868001646984701232374D4F8EC30B4F806716F
:1018780001338146C7F1400709D194F8113133B1DA
:10188800002384F8113104F19400FFF759FE23680E
:1018980020469B6898470028F9D03546BD4225D890
:1018A8004D4523D8B4F80631D4F800015A19402A16
:1018B800184430D82A46414600F0B0F92F46B4F80B
:1018C80006311D4405F03F05A4F8065104F19405BE
:1018D8002846FFF703FE30B91649C4F80C713A469A
:1018E8002846FFF70DFE3046BDE8F8834F452368CC
:1018F80028BF4F463A4641465B68204698472368CA
:1019080020469B689847ED1BB844B4F80671814699
:10191800C7F14007C2E7C3F140073A46414600F025
:101928007DF9D4F80001EA1B08EB070100F076F90D
:10193800C5E700BFFD170008C0F8F030009BC0F8ED
:10194800F430914208BF4FF0FF3100F11403C0E9B1
:101958003A21C0F8FC3000F154020023A0F8083105
:10196800C0E94023A0F80A317047037C70B50446EB
:101978000D46A3B1FEF72AFD0646B4F80621B4F8D1
:101988000A319BB29A420AD0002DF8D0FEF71EFD0C
:10199800801B8542F1D8B4F80A31A4F8063170BD2D
:1019A8000021FFF7E2BF0000CBB2332B08D80E4A64
:1019B80052F8233001F4E0611943C0F8EC10704785
:1019C80001F0C002C02A0CD1CF2B0AD8074B01F076
:1019D8003F0201F4E06153F82220034B53F8223010
:1019E800EAE74FF0FF31E8E708210008C8200008BF
:1019F800CBB2332B08D80E4A52F8233001F4E061F9
:101A08001943C0F8E810704701F0C002C02A0CD191
:101A1800CF2B0AD8074B01F03F0201F4E06153F8DD
:101A28002220034B53F82230EAE74FF0FF31E8E772
:101A380008210008C820000873B54FF47A731646C9
:101A48000022C0E901231D4B03604FF0FF33C0F8AB
:101A5800EC301B4B984204460D4615D1CD21FFF7BB
:101A6800A3FFCE21FFF7C4FF012E4FF0FF3308BFBD
:101A7800C4F8EC3000932046D4E93A214FF0FF3304
:101A8800FFF75AFF02B070BD0E4B0F499A6B0F4B10
:101A980053F82200FFF7CFFC854202D1CD21204622
:101AA800DDE70B492846FFF7D7FC0749C4F8EC00E7
:101AB8002846FFF7D1FCC4F8E800D5E7E021000884
:101AC800F4010020C820000874200008082100083C
:101AD80020200008D0F8EC30013310B504460ED1B0
:101AE8000368DB68984794F8113143B9012384F8F7
:101AF800113104F19400BDE81040FFF72FBD10BD6F
:101B080010B50446FFF7E6FFB4F80821B4F804312D
:101B180092B29A421FBFD4F8FC20D05C013303F084
:101B28003F0314BFA4F804314FF0FF3010BD00008C
:101B3800024903480022FFF77FBF00BF004400406E
:101B4800F401002010B5044600F03AF8E06023687C
:101B580020465B699847002808DA00F031F8E36806
:101B6800C01AA3689842F2D34FF0FF3010BDF8B501
:101B780007460D468E180C46B44201D1601BF8BDCD
:101B88003846FFF7DFFF431CF8D004F8010BF3E7F2
:101B98002DE9F0410746884616461D4673B10024D4
:101BA8003846FFF7CFFF431C05D0404503D03055DA
:101BB8000134A542F4D12046BDE8F0811C46FAE77D
:101BC800FFF706BB02440346934200D1704703F86F
:101BD800011BF9E770B50D4B0D4D5B1B9C100026E2
:101BE800A64209D100F0F4F90A4D0B4B5B1B9C107F
:101BF8000026A64205D170BD55F8043B984701362A
:101C0800EEE755F8043B98470136F2E70C22000846
:101C18000C2200080C2200081C2200080A449142E9
:101C280000F1FF3300D1704710B511F8014B03F8EC
:101C3800014F9142F9D110BD08B5062000F02CF8EB
:101C48000120FFF703FD1F2938B505460C4604D9C6
:101C5800162303604FF0FF3038BDC26B12B152F843
:101C680021304BB9284600F031F822460146284673
:101C7800BDE8384000F018B8012B0AD0591C03D130
:101C8800162303600120E7E7002142F824102046CC
:101C980098470020E0E70000024B01461868FFF76C
:101CA800D2BF00BF1400002038B5074D00230446FA
:101CB800084611462B60FFF7CBFC431C02D12B686A
:101CC80003B1236038BD00BF44040020FFF7C8BC3F
:101CD8002DE9F047089D0F4604468C46002B48D155
:101CE8008A42164661D9B2FA82F34BB1C3F1200297
:101CF80001FA03FC20FA02F29E4042EA0C0C9C40D6
:101D08004FEA164EB7B2BCFBFEF1220C0EFB11CC0B
:101D180042EA0C4201FB07F0904209D9B21801F1DE
:101D2800FF3C80F0EE80904240F2EB800239324472
:101D3800121AA4B2B2FBFEF00EFB102244EA0244CF
:101D480000FB07F7A74209D9341900F1FF3280F0E8
:101D5800DA80A74240F2D7803444023840EA014092
:101D6800E41B00211DB1DC400023C5E90043BDE8A8
:101D7800F0878B4206D90DB1C5E90001002108465C
:101D8800BDE8F087B3FA83F1002948D1BB4202D3FA
:101D9800824200F20781841A67EB0302012094460D
:101DA800002DE4D0C5E9004CE1E7002A00F092805C
:101DB800B2FA82F3002B40F0A8808A1A4FEA164E36
:101DC8001FFA86FC0121200CB2FBFEF70EFB17223E
:101DD80040EA02420CFB07F0904207D9B21807F11B
:101DE800FF3802D2904200F2E2804746121AA4B2AB
:101DF800B2FBFEF00EFB102244EA02440CFB00FC8E
:101E0800A44507D9341900F1FF3202D2A44500F2E3
:101E1800CB801046A4EB0C0440EA0740A2E7C1F1CE
:101E280020068B4022FA06FC4CEA030C07FA01F460
:101E380020FA06F3F7404FEA1C49234300FA01F859
:101E48001FFA8CFEB7FBF9F01C0C09FB107744EA6B
:101E5800074400FB0EF7A74202FA01F20AD91CEB6D
:101E6800040400F1FF3A80F09B80A74240F298807A
:101E780002386444E41B9FB2B4FBF9F309FB134432
:101E880047EA044403FB0EFEA64509D91CEB0404EB
:101E980003F1FF3780F08280A6457FD9023B644476
:101EA80043EA0040A4EB0E04A0FB02E7BC427346E1
:101EB800B94663D360D05DB1B8EB030264EB0904A3
:101EC80004FA06F622FA01F31E43CC40C5E9006481
:101ED80000214CE76208480842EAC1710B0C43EA4A
:101EE80000438AB242EA0342B3FBF6F1E407B44680
:101EF8003746B6461F23B0FBF6F0D21B41EA004135
:101F080061E7614614E7104628E7C3F1200120FA8B
:101F180001F29E4027FA01F19F403A434FEA164EDC
:101F28001FFA86FCB1FBFEF70EFB1710110C41EAF5
:101F3800004107FB0CF8884504FA03F43AD97118F4
:101F480007F1FF3001D288451FD8A1EB0801B1FB8A
:101F5800FEF808FB0CF70EFB181192B242EA014298
:101F6800BA422FD2B21808F1FF31C6D2BA42C4D24F
:101F7800A8F102013244C0E7F0459CD2BEEB02034F
:101F880067EB0C070138B94695E7A6EB080841440A
:101F9800B81EB1FBFEF808FB0CF7DCE73B467FE711
:101FA800504667E70846FBE63444023832E7023F0A
:101FB80032441BE7A1EB08013846B1FBFEF808FBE9
:101FC8000CF7C8E7414698E708B5FFF735FE00006B
:101FD800F8B500BFF8BC08BC9E467047F8B500BF0E
:081FE800F8BC08BC9E467047DE
:101FF00054696D65722073746172740A00303132F5
:102000003334353637383900743D00730A00000028
:102010000000000000000102030406070809000098
:102020000300000000440040120700000A00000006
:1020300000100140120700000C00000000140140D5
:1020400012080000130000000010014012070000F9
:1020500017000000001001401207000027000000D8
:102060000014014012080000FFFFFFFF0000000005
:1020700000000000020000000044004012070000C1
:102080000900000000100140120700000B000000D2
:1020900000140140120800000F0000000010014071
:1020A0001207000016000000001001401207000097
:1020B000260000000014014012080000FFFFFFFF8F
:1020C00000000000000000002E0000002F000000B3
:1020D000300000003100000032000000330000003A
:1020E0000B0000000C0000001C0000001D000000A0
:1020F00023000000290000002D0000000000000067
:10210000010000000D0000000300000002000000BC
:102110000A00000013000000150000001400000079
:102120001A0000000800000009000000270000005D
:102130001600000007000000060000000500000077
:1021400019000000180000002A0000002C00000008
:10215000FFFFFFFF0D0000000E0000000F00000059
:10216000170000002D0000002E0000002F000000CE
:102170005000000051000000220000002300000079
:102180002B000000320000002900000028000000A1
:1021900026000000250000000C0000000B000000DD
:1021A0001C0000001B0000001200000011000000D5
:1021B0001F0000001E0000001D00000024000000A1
:1021C00000000000010000000400000010000000FA
:1021D00021000000200000000000000000000000BE
:1021E000E31700085D180008C7170008A9190008C0
:1021F0009D170008091B0008AD170008771B000891
:04220000991B00081E
:08220400D4FAFF7F0100000085
:10220C0005170008F101000835130008391B0008F8
:08221C00CD0100080D140008BB
:102224000100000010000000003002400000000027
:102234000024F40018000020000000000C0300201B
:1022440074030020DC0300200000000000000000F4
:10225400000000000000000000000000000000007A
:10226400000000000000000000000000000000006A
:10227400000000000000000000000000000000005A
:042284000000000056
:0400000508001729AF
:00000001FF
